{"abi":[{"type":"constructor","inputs":[],"stateMutability":"nonpayable"},{"type":"function","name":"MAX_PROTOCOL_FEE","inputs":[],"outputs":[{"name":"","type":"uint16","internalType":"uint16"}],"stateMutability":"view"},{"type":"function","name":"PROTOCOL_FEE_PRECISION","inputs":[],"outputs":[{"name":"","type":"uint16","internalType":"uint16"}],"stateMutability":"view"},{"type":"function","name":"UPGRADE_INTERFACE_VERSION","inputs":[],"outputs":[{"name":"","type":"string","internalType":"string"}],"stateMutability":"view"},{"type":"function","name":"acceptOwnership","inputs":[],"outputs":[],"stateMutability":"nonpayable"},{"type":"function","name":"addAllowedPublisherRefCode","inputs":[{"name":"_campaignId","type":"uint256","internalType":"uint256"},{"name":"_publisherRefCode","type":"string","internalType":"string"}],"outputs":[],"stateMutability":"nonpayable"},{"type":"function","name":"addConversionConfig","inputs":[{"name":"_campaignId","type":"uint256","internalType":"uint256"},{"name":"_conversionConfig","type":"tuple","internalType":"struct IFlywheelCampaigns.ConversionConfigInput","components":[{"name":"eventType","type":"uint8","internalType":"enum IFlywheelCampaigns.EventType"},{"name":"eventName","type":"string","internalType":"string"},{"name":"conversionMetadataUrl","type":"string","internalType":"string"},{"name":"publisherBidValue","type":"uint256","internalType":"uint256"},{"name":"userBidValue","type":"uint256","internalType":"uint256"},{"name":"rewardType","type":"uint8","internalType":"enum IFlywheelCampaigns.RewardType"},{"name":"cadenceType","type":"uint8","internalType":"enum IFlywheelCampaigns.CadenceEventType"}]}],"outputs":[],"stateMutability":"nonpayable"},{"type":"function","name":"allowedTokenAddresses","inputs":[{"name":"tokenAddress","type":"address","internalType":"address"}],"outputs":[{"name":"allowed","type":"bool","internalType":"bool"}],"stateMutability":"view"},{"type":"function","name":"attributeOffchainEvents","inputs":[{"name":"_campaignId","type":"uint256","internalType":"uint256"},{"name":"_events","type":"tuple[]","internalType":"struct IFlywheelCampaigns.OffchainEvent[]","components":[{"name":"conversionConfigId","type":"uint8","internalType":"uint8"},{"name":"eventId","type":"bytes16","internalType":"bytes16"},{"name":"payoutAddress","type":"address","internalType":"address"},{"name":"payoutAmount","type":"uint256","internalType":"uint256"},{"name":"recipientType","type":"uint8","internalType":"uint8"},{"name":"publisherRefCode","type":"string","internalType":"string"},{"name":"clickId","type":"string","internalType":"string"},{"name":"timestamp","type":"uint32","internalType":"uint32"}]}],"outputs":[],"stateMutability":"nonpayable"},{"type":"function","name":"attributeOnchainEvents","inputs":[{"name":"_campaignId","type":"uint256","internalType":"uint256"},{"name":"_events","type":"tuple[]","internalType":"struct IFlywheelCampaigns.OnchainEvent[]","components":[{"name":"conversionConfigId","type":"uint8","internalType":"uint8"},{"name":"eventId","type":"bytes16","internalType":"bytes16"},{"name":"payoutAddress","type":"address","internalType":"address"},{"name":"payoutAmount","type":"uint256","internalType":"uint256"},{"name":"recipientType","type":"uint8","internalType":"uint8"},{"name":"publisherRefCode","type":"string","internalType":"string"},{"name":"clickId","type":"string","internalType":"string"},{"name":"userAddress","type":"address","internalType":"address"},{"name":"timestamp","type":"uint32","internalType":"uint32"},{"name":"txHash","type":"bytes32","internalType":"bytes32"},{"name":"txChainId","type":"uint256","internalType":"uint256"},{"name":"txEventLogIndex","type":"uint256","internalType":"uint256"}]}],"outputs":[],"stateMutability":"nonpayable"},{"type":"function","name":"attributionProviders","inputs":[{"name":"id","type":"uint256","internalType":"uint256"}],"outputs":[{"name":"ownerAddress","type":"address","internalType":"address"},{"name":"signerAddress","type":"address","internalType":"address"}],"stateMutability":"view"},{"type":"function","name":"calculateProtocolFeeAmount","inputs":[{"name":"_amount","type":"uint256","internalType":"uint256"}],"outputs":[{"name":"","type":"uint256","internalType":"uint256"}],"stateMutability":"view"},{"type":"function","name":"campaigns","inputs":[{"name":"campaignId","type":"uint256","internalType":"uint256"}],"outputs":[{"name":"status","type":"uint8","internalType":"enum IFlywheelCampaigns.CampaignStatus"},{"name":"campaignBalanceAddress","type":"address","internalType":"address"},{"name":"tokenAddress","type":"address","internalType":"address"},{"name":"attributionProviderId","type":"uint256","internalType":"uint256"},{"name":"advertiserAddress","type":"address","internalType":"address"},{"name":"conversionConfigCount","type":"uint8","internalType":"uint8"},{"name":"campaignMetadataUrl","type":"string","internalType":"string"},{"name":"totalAmountClaimed","type":"uint256","internalType":"uint256"},{"name":"totalAmountAllocated","type":"uint256","internalType":"uint256"},{"name":"protocolFeesBalance","type":"uint256","internalType":"uint256"},{"name":"isAllowlistSet","type":"bool","internalType":"bool"}],"stateMutability":"view"},{"type":"function","name":"claimProtocolFees","inputs":[{"name":"_campaignIds","type":"uint256[]","internalType":"uint256[]"}],"outputs":[],"stateMutability":"nonpayable"},{"type":"function","name":"claimRewards","inputs":[{"name":"_campaignIds","type":"uint256[]","internalType":"uint256[]"},{"name":"_to","type":"address","internalType":"address"}],"outputs":[],"stateMutability":"nonpayable"},{"type":"function","name":"createCampaign","inputs":[{"name":"_tokenAddress","type":"address","internalType":"address"},{"name":"_attributionProviderId","type":"uint256","internalType":"uint256"},{"name":"_setToCampaignReady","type":"bool","internalType":"bool"},{"name":"_campaignMetadataUrl","type":"string","internalType":"string"},{"name":"_conversionConfigs","type":"tuple[]","internalType":"struct IFlywheelCampaigns.ConversionConfigInput[]","components":[{"name":"eventType","type":"uint8","internalType":"enum IFlywheelCampaigns.EventType"},{"name":"eventName","type":"string","internalType":"string"},{"name":"conversionMetadataUrl","type":"string","internalType":"string"},{"name":"publisherBidValue","type":"uint256","internalType":"uint256"},{"name":"userBidValue","type":"uint256","internalType":"uint256"},{"name":"rewardType","type":"uint8","internalType":"enum IFlywheelCampaigns.RewardType"},{"name":"cadenceType","type":"uint8","internalType":"enum IFlywheelCampaigns.CadenceEventType"}]},{"name":"_allowedPublisherRefCodes","type":"string[]","internalType":"string[]"}],"outputs":[{"name":"","type":"uint256","internalType":"uint256"},{"name":"","type":"address","internalType":"address"},{"name":"","type":"uint8[]","internalType":"uint8[]"}],"stateMutability":"nonpayable"},{"type":"function","name":"deactivateConversionConfig","inputs":[{"name":"_campaignId","type":"uint256","internalType":"uint256"},{"name":"_conversionConfigId","type":"uint8","internalType":"uint8"}],"outputs":[],"stateMutability":"nonpayable"},{"type":"function","name":"getAvailableProtocolFees","inputs":[{"name":"_campaignId","type":"uint256","internalType":"uint256"}],"outputs":[{"name":"","type":"uint256","internalType":"uint256"}],"stateMutability":"view"},{"type":"function","name":"getCampaignTotalBalance","inputs":[{"name":"_campaignId","type":"uint256","internalType":"uint256"}],"outputs":[{"name":"","type":"uint256","internalType":"uint256"}],"stateMutability":"view"},{"type":"function","name":"getCampaignTotalFunded","inputs":[{"name":"_campaignId","type":"uint256","internalType":"uint256"}],"outputs":[{"name":"","type":"uint256","internalType":"uint256"}],"stateMutability":"view"},{"type":"function","name":"getConversionConfig","inputs":[{"name":"_campaignId","type":"uint256","internalType":"uint256"},{"name":"_conversionConfigId","type":"uint8","internalType":"uint8"}],"outputs":[{"name":"","type":"tuple","internalType":"struct IFlywheelCampaigns.ConversionConfig","components":[{"name":"status","type":"uint8","internalType":"enum IFlywheelCampaigns.ConversionConfigStatus"},{"name":"eventType","type":"uint8","internalType":"enum IFlywheelCampaigns.EventType"},{"name":"eventName","type":"string","internalType":"string"},{"name":"conversionMetadataUrl","type":"string","internalType":"string"},{"name":"publisherBidValue","type":"uint256","internalType":"uint256"},{"name":"userBidValue","type":"uint256","internalType":"uint256"},{"name":"rewardType","type":"uint8","internalType":"enum IFlywheelCampaigns.RewardType"},{"name":"cadenceType","type":"uint8","internalType":"enum IFlywheelCampaigns.CadenceEventType"}]}],"stateMutability":"view"},{"type":"function","name":"getPublisherPayoutAddress","inputs":[{"name":"_refCode","type":"string","internalType":"string"}],"outputs":[{"name":"","type":"address","internalType":"address"}],"stateMutability":"view"},{"type":"function","name":"getRecipientBalance","inputs":[{"name":"campaignId","type":"uint256","internalType":"uint256"},{"name":"payoutAddress","type":"address","internalType":"address"}],"outputs":[{"name":"","type":"uint256","internalType":"uint256"}],"stateMutability":"view"},{"type":"function","name":"getRecipientClaimed","inputs":[{"name":"campaignId","type":"uint256","internalType":"uint256"},{"name":"recipient","type":"address","internalType":"address"}],"outputs":[{"name":"","type":"uint256","internalType":"uint256"}],"stateMutability":"view"},{"type":"function","name":"initialize","inputs":[{"name":"_owner","type":"address","internalType":"address"},{"name":"_treasuryAddress","type":"address","internalType":"address"},{"name":"_allowedTokenAddresses","type":"address[]","internalType":"address[]"},{"name":"_attributionProviders","type":"tuple[]","internalType":"struct IFlywheelCampaigns.AttributionProvider[]","components":[{"name":"ownerAddress","type":"address","internalType":"address"},{"name":"signerAddress","type":"address","internalType":"address"}]},{"name":"_publisherRegistryAddress","type":"address","internalType":"address"}],"outputs":[],"stateMutability":"nonpayable"},{"type":"function","name":"isPublisherRefCodeAllowed","inputs":[{"name":"_campaignId","type":"uint256","internalType":"uint256"},{"name":"_publisherRefCode","type":"string","internalType":"string"}],"outputs":[{"name":"","type":"bool","internalType":"bool"}],"stateMutability":"view"},{"type":"function","name":"nextAttributionProviderId","inputs":[],"outputs":[{"name":"","type":"uint256","internalType":"uint256"}],"stateMutability":"view"},{"type":"function","name":"nextCampaignId","inputs":[],"outputs":[{"name":"","type":"uint256","internalType":"uint256"}],"stateMutability":"view"},{"type":"function","name":"owner","inputs":[],"outputs":[{"name":"","type":"address","internalType":"address"}],"stateMutability":"view"},{"type":"function","name":"pendingOwner","inputs":[],"outputs":[{"name":"","type":"address","internalType":"address"}],"stateMutability":"view"},{"type":"function","name":"protocolFee","inputs":[],"outputs":[{"name":"","type":"uint16","internalType":"uint16"}],"stateMutability":"view"},{"type":"function","name":"proxiableUUID","inputs":[],"outputs":[{"name":"","type":"bytes32","internalType":"bytes32"}],"stateMutability":"view"},{"type":"function","name":"publisherRegistryAddress","inputs":[],"outputs":[{"name":"","type":"address","internalType":"address"}],"stateMutability":"view"},{"type":"function","name":"pushRewards","inputs":[{"name":"_campaignId","type":"uint256","internalType":"uint256"},{"name":"_recipientAddresses","type":"address[]","internalType":"address[]"}],"outputs":[],"stateMutability":"nonpayable"},{"type":"function","name":"registerAttributionProvider","inputs":[{"name":"_signerAddress","type":"address","internalType":"address"}],"outputs":[{"name":"","type":"uint256","internalType":"uint256"}],"stateMutability":"nonpayable"},{"type":"function","name":"renounceOwnership","inputs":[],"outputs":[],"stateMutability":"pure"},{"type":"function","name":"transferOwnership","inputs":[{"name":"newOwner","type":"address","internalType":"address"}],"outputs":[],"stateMutability":"nonpayable"},{"type":"function","name":"treasuryAddress","inputs":[],"outputs":[{"name":"","type":"address","internalType":"address"}],"stateMutability":"view"},{"type":"function","name":"updateAllowedTokenAddress","inputs":[{"name":"_tokenAddress","type":"address","internalType":"address"},{"name":"_allowed","type":"bool","internalType":"bool"}],"outputs":[],"stateMutability":"nonpayable"},{"type":"function","name":"updateAttributionProviderSigner","inputs":[{"name":"_id","type":"uint256","internalType":"uint256"},{"name":"_signerAddress","type":"address","internalType":"address"}],"outputs":[],"stateMutability":"nonpayable"},{"type":"function","name":"updateCampaignStatus","inputs":[{"name":"_campaignId","type":"uint256","internalType":"uint256"},{"name":"_newStatus","type":"uint8","internalType":"enum IFlywheelCampaigns.CampaignStatus"}],"outputs":[],"stateMutability":"nonpayable"},{"type":"function","name":"updateProtocolFee","inputs":[{"name":"_newProtocolFee","type":"uint16","internalType":"uint16"}],"outputs":[],"stateMutability":"nonpayable"},{"type":"function","name":"updatePublisherRegistryAddress","inputs":[{"name":"_publisherRegistryAddress","type":"address","internalType":"address"}],"outputs":[],"stateMutability":"nonpayable"},{"type":"function","name":"updateTreasuryAddress","inputs":[{"name":"newTreasuryAddress","type":"address","internalType":"address"}],"outputs":[],"stateMutability":"nonpayable"},{"type":"function","name":"upgradeToAndCall","inputs":[{"name":"newImplementation","type":"address","internalType":"address"},{"name":"data","type":"bytes","internalType":"bytes"}],"outputs":[],"stateMutability":"payable"},{"type":"function","name":"withdrawRemainingBalance","inputs":[{"name":"_campaignId","type":"uint256","internalType":"uint256"},{"name":"_to","type":"address","internalType":"address"}],"outputs":[],"stateMutability":"nonpayable"},{"type":"event","name":"AllowedPublisherRefCodeAdded","inputs":[{"name":"campaignId","type":"uint256","indexed":true,"internalType":"uint256"},{"name":"publisherRefCode","type":"string","indexed":false,"internalType":"string"}],"anonymous":false},{"type":"event","name":"CampaignCreated","inputs":[{"name":"campaignId","type":"uint256","indexed":true,"internalType":"uint256"},{"name":"advertiserAddress","type":"address","indexed":true,"internalType":"address"},{"name":"campaignBalanceAddress","type":"address","indexed":false,"internalType":"address"},{"name":"tokenAddress","type":"address","indexed":false,"internalType":"address"},{"name":"attributionProviderId","type":"uint256","indexed":false,"internalType":"uint256"},{"name":"campaignMetadataUrl","type":"string","indexed":false,"internalType":"string"}],"anonymous":false},{"type":"event","name":"ClaimedReward","inputs":[{"name":"campaignId","type":"uint256","indexed":true,"internalType":"uint256"},{"name":"payoutAddress","type":"address","indexed":true,"internalType":"address"},{"name":"payoutAmount","type":"uint256","indexed":false,"internalType":"uint256"},{"name":"to","type":"address","indexed":false,"internalType":"address"}],"anonymous":false},{"type":"event","name":"CreatedConversionConfig","inputs":[{"name":"conversionConfigId","type":"uint8","indexed":true,"internalType":"uint8"},{"name":"campaignId","type":"uint256","indexed":true,"internalType":"uint256"},{"name":"eventType","type":"uint8","indexed":false,"internalType":"uint8"},{"name":"eventName","type":"string","indexed":false,"internalType":"string"},{"name":"conversionMetadataUrl","type":"string","indexed":false,"internalType":"string"},{"name":"publisherBidValue","type":"uint256","indexed":false,"internalType":"uint256"},{"name":"userBidValue","type":"uint256","indexed":false,"internalType":"uint256"},{"name":"rewardType","type":"uint8","indexed":false,"internalType":"uint8"},{"name":"cadenceType","type":"uint8","indexed":false,"internalType":"uint8"}],"anonymous":false},{"type":"event","name":"DeactivatedConversionConfig","inputs":[{"name":"campaignId","type":"uint256","indexed":true,"internalType":"uint256"},{"name":"conversionConfigId","type":"uint8","indexed":false,"internalType":"uint8"}],"anonymous":false},{"type":"event","name":"Initialized","inputs":[{"name":"version","type":"uint64","indexed":false,"internalType":"uint64"}],"anonymous":false},{"type":"event","name":"OffchainConversion","inputs":[{"name":"campaignId","type":"uint256","indexed":true,"internalType":"uint256"},{"name":"publisherRefCode","type":"string","indexed":false,"internalType":"string"},{"name":"conversionConfigId","type":"uint8","indexed":false,"internalType":"uint8"},{"name":"eventId","type":"bytes16","indexed":false,"internalType":"bytes16"},{"name":"payoutAddress","type":"address","indexed":false,"internalType":"address"},{"name":"payoutAmount","type":"uint256","indexed":false,"internalType":"uint256"},{"name":"protocolFeeAmount","type":"uint256","indexed":false,"internalType":"uint256"},{"name":"recipientType","type":"uint8","indexed":false,"internalType":"uint8"},{"name":"clickId","type":"string","indexed":false,"internalType":"string"},{"name":"timestamp","type":"uint32","indexed":false,"internalType":"uint32"}],"anonymous":false},{"type":"event","name":"OnchainConversion","inputs":[{"name":"campaignId","type":"uint256","indexed":true,"internalType":"uint256"},{"name":"publisherRefCode","type":"string","indexed":false,"internalType":"string"},{"name":"conversionConfigId","type":"uint8","indexed":false,"internalType":"uint8"},{"name":"eventId","type":"bytes16","indexed":false,"internalType":"bytes16"},{"name":"payoutAddress","type":"address","indexed":false,"internalType":"address"},{"name":"payoutAmount","type":"uint256","indexed":false,"internalType":"uint256"},{"name":"protocolFeeAmount","type":"uint256","indexed":false,"internalType":"uint256"},{"name":"recipientType","type":"uint8","indexed":false,"internalType":"uint8"},{"name":"clickId","type":"string","indexed":false,"internalType":"string"},{"name":"userAddress","type":"address","indexed":false,"internalType":"address"},{"name":"timestamp","type":"uint32","indexed":false,"internalType":"uint32"},{"name":"txHash","type":"bytes32","indexed":false,"internalType":"bytes32"},{"name":"txChainId","type":"uint256","indexed":false,"internalType":"uint256"},{"name":"txEventLogIndex","type":"uint256","indexed":false,"internalType":"uint256"}],"anonymous":false},{"type":"event","name":"OwnershipTransferStarted","inputs":[{"name":"previousOwner","type":"address","indexed":true,"internalType":"address"},{"name":"newOwner","type":"address","indexed":true,"internalType":"address"}],"anonymous":false},{"type":"event","name":"OwnershipTransferred","inputs":[{"name":"previousOwner","type":"address","indexed":true,"internalType":"address"},{"name":"newOwner","type":"address","indexed":true,"internalType":"address"}],"anonymous":false},{"type":"event","name":"ProtocolFeesWithdrawn","inputs":[{"name":"campaignId","type":"uint256","indexed":true,"internalType":"uint256"},{"name":"amount","type":"uint256","indexed":false,"internalType":"uint256"},{"name":"treasury","type":"address","indexed":false,"internalType":"address"}],"anonymous":false},{"type":"event","name":"PushedReward","inputs":[{"name":"campaignId","type":"uint256","indexed":true,"internalType":"uint256"},{"name":"payoutAddress","type":"address","indexed":true,"internalType":"address"},{"name":"payoutAmount","type":"uint256","indexed":false,"internalType":"uint256"},{"name":"to","type":"address","indexed":false,"internalType":"address"}],"anonymous":false},{"type":"event","name":"RegisterAttributionProvider","inputs":[{"name":"id","type":"uint256","indexed":true,"internalType":"uint256"},{"name":"ownerAddress","type":"address","indexed":true,"internalType":"address"},{"name":"signerAddress","type":"address","indexed":false,"internalType":"address"}],"anonymous":false},{"type":"event","name":"RemainingBalanceWithdrawn","inputs":[{"name":"campaignId","type":"uint256","indexed":true,"internalType":"uint256"},{"name":"advertiserAddress","type":"address","indexed":true,"internalType":"address"},{"name":"to","type":"address","indexed":false,"internalType":"address"},{"name":"amount","type":"uint256","indexed":false,"internalType":"uint256"}],"anonymous":false},{"type":"event","name":"UpdateAllowedTokenAddress","inputs":[{"name":"tokenAddress","type":"address","indexed":true,"internalType":"address"},{"name":"allowed","type":"bool","indexed":true,"internalType":"bool"}],"anonymous":false},{"type":"event","name":"UpdateAttributionProviderSigner","inputs":[{"name":"id","type":"uint256","indexed":true,"internalType":"uint256"},{"name":"signerAddress","type":"address","indexed":true,"internalType":"address"}],"anonymous":false},{"type":"event","name":"UpdateCampaignStatus","inputs":[{"name":"campaignId","type":"uint256","indexed":true,"internalType":"uint256"},{"name":"newStatus","type":"uint8","indexed":false,"internalType":"uint8"}],"anonymous":false},{"type":"event","name":"UpdateProtocolFee","inputs":[{"name":"protocolFee","type":"uint16","indexed":true,"internalType":"uint16"}],"anonymous":false},{"type":"event","name":"UpdatePublisherRegistryAddress","inputs":[{"name":"publisherRegistryAddress","type":"address","indexed":true,"internalType":"address"}],"anonymous":false},{"type":"event","name":"UpdateTreasuryAddress","inputs":[{"name":"treasuryAddress","type":"address","indexed":true,"internalType":"address"}],"anonymous":false},{"type":"event","name":"Upgraded","inputs":[{"name":"implementation","type":"address","indexed":true,"internalType":"address"}],"anonymous":false},{"type":"error","name":"AddressEmptyCode","inputs":[{"name":"target","type":"address","internalType":"address"}]},{"type":"error","name":"AttributionProviderDoesNotExist","inputs":[]},{"type":"error","name":"CallerIsNotAttributionProvider","inputs":[]},{"type":"error","name":"CampaignDoesNotExist","inputs":[]},{"type":"error","name":"CannotOverAttribute","inputs":[]},{"type":"error","name":"ConversionConfigDoesNotExist","inputs":[]},{"type":"error","name":"ConversionConfigNotActive","inputs":[]},{"type":"error","name":"ERC1967InvalidImplementation","inputs":[{"name":"implementation","type":"address","internalType":"address"}]},{"type":"error","name":"ERC1967NonPayable","inputs":[]},{"type":"error","name":"FailedCall","inputs":[]},{"type":"error","name":"InvalidAddress","inputs":[]},{"type":"error","name":"InvalidCampaignStatus","inputs":[]},{"type":"error","name":"InvalidConversionConfig","inputs":[]},{"type":"error","name":"InvalidEventType","inputs":[]},{"type":"error","name":"InvalidInitialization","inputs":[]},{"type":"error","name":"InvalidProtocolFee","inputs":[]},{"type":"error","name":"InvalidPublisherRefCode","inputs":[]},{"type":"error","name":"InvalidStatusTransition","inputs":[]},{"type":"error","name":"MaxConversionConfigsReached","inputs":[]},{"type":"error","name":"NotInitializing","inputs":[]},{"type":"error","name":"OwnableInvalidOwner","inputs":[{"name":"owner","type":"address","internalType":"address"}]},{"type":"error","name":"OwnableUnauthorizedAccount","inputs":[{"name":"account","type":"address","internalType":"address"}]},{"type":"error","name":"OwnershipRenunciationDisabled","inputs":[]},{"type":"error","name":"PublisherAllowlistNotSet","inputs":[]},{"type":"error","name":"PublisherRefCodeNotAllowed","inputs":[]},{"type":"error","name":"TokenAddressNotSupported","inputs":[]},{"type":"error","name":"UUPSUnauthorizedCallContext","inputs":[]},{"type":"error","name":"UUPSUnsupportedProxiableUUID","inputs":[{"name":"slot","type":"bytes32","internalType":"bytes32"}]},{"type":"error","name":"Unauthorized","inputs":[]}],"bytecode":{"object":"0x60a06040523461003e5761001161004d565b610019610043565b617fa46102858239608051818181616685015281816166ea01526168910152617fa490f35b610049565b60405190565b5f80fd5b61005561005f565b61005d6101a8565b565b6100676100ab565b565b60018060a01b031690565b90565b61008b61008661009092610069565b610074565b610069565b90565b61009c90610077565b90565b6100a890610093565b90565b6100b43061009f565b608052565b60401c90565b60ff1690565b6100d16100d6916100b9565b6100bf565b90565b6100e390546100c5565b90565b5f0190565b5f1c90565b60018060401b031690565b61010761010c916100eb565b6100f0565b90565b61011990546100fb565b90565b60018060401b031690565b5f1b90565b9061013d60018060401b0391610127565b9181191691161790565b61015b6101566101609261011c565b610074565b61011c565b90565b90565b9061017b61017661018292610147565b610163565b825461012c565b9055565b61018f9061011c565b9052565b91906101a6905f60208501940190610186565b565b6101b0610260565b6101bb5f82016100d9565b610244576101ca5f820161010f565b6101e26101dc60018060401b0361011c565b9161011c565b036101eb575b50565b6101fe905f60018060401b039101610166565b60018060401b0361023b7fc7f505b2f371ae2175ee4913f4499e1f2633a7b5936321eed1cdaeb6115181d291610232610043565b91829182610193565b0390a15f6101e8565b5f63f92ee8a960e01b81528061025c600482016100e6565b0390fd5b7ff0c57e16840df040f15088dc2f81fe391c3923bec73e23a9662efc9c229c6a009056fe60806040526004361015610013575b612224565b61001d5f356102ec565b8063020624d2146102e757806302db9ca4146102e257806303f49f52146102dd5780630520537f146102d85780630570490d146102d3578063061b3354146102ce57806308426083146102c957806310eb6d50146102c45780631268cf84146102bf578063141961bc146102ba5780631d1be404146102b55780631f640291146102b05780632872b4f1146102ab5780632925edc0146102a657806331f86f1b146102a157806332e8faa11461029c578063370675681461029757806339fd02cb146102925780633c8edeb61461028d5780633f9d90e114610288578063455894da14610283578063467304101461027e5780634b79ed64146102795780634f1ef2861461027457806352d1902d1461026f578063562569dd1461026a5780635e6cdfab14610265578063631651c414610260578063715018a61461025b5780637373c241146102565780637903a7561461025157806379ba50971461024c578063841e4561146102475780638da5cb5b14610242578063ad3cb1cc1461023d578063b0e21e8a14610238578063b8ca3b8314610233578063c43682ab1461022e578063c5f956af14610229578063d5bf7f9a14610224578063db73656c1461021f578063e30c39781461021a578063ea7a251714610215578063f0bf26b6146102105763f2fde38b0361000e576121f1565b6121bb565b612186565b6120c8565b612095565b612060565b611ff3565b611fb0565b611f7b565b611f0e565b611e7a565b611db5565b611d82565b611d4f565b611d1a565b611cd7565b611c88565b611c51565b611a1c565b611720565b61168c565b61163d565b611548565b61148f565b611459565b6113c9565b6111d2565b61102f565b610fb2565b610f7d565b610f2a565b610e0b565b610dd6565b610da1565b610d6d565b610ca6565b6107e1565b610757565b6106d9565b6106a3565b610620565b6105b6565b6104fe565b61043b565b610351565b60e01c90565b60405190565b5f80fd5b5f80fd5b5f80fd5b61ffff1690565b61031481610304565b0361031b57565b5f80fd5b9050359061032c8261030b565b565b9060208282031261034757610344915f0161031f565b90565b6102fc565b5f0190565b3461037f5761036961036436600461032e565b612322565b6103716102f2565b8061037b8161034c565b0390f35b6102f8565b90565b61039081610384565b0361039757565b5f80fd5b905035906103a882610387565b565b5f80fd5b5f80fd5b5f80fd5b909182601f830112156103f05781359167ffffffffffffffff83116103eb5760200192602083028401116103e657565b6103b2565b6103ae565b6103aa565b9190916040818403126104365761040e835f830161039b565b92602082013567ffffffffffffffff81116104315761042d92016103b6565b9091565b610300565b6102fc565b3461046a5761045461044e3660046103f5565b9161239d565b61045c6102f2565b806104668161034c565b0390f35b6102f8565b60018060a01b031690565b6104839061046f565b90565b61048f8161047a565b0361049657565b5f80fd5b905035906104a782610486565b565b151590565b6104b7816104a9565b036104be57565b5f80fd5b905035906104cf826104ae565b565b91906040838203126104f957806104ed6104f6925f860161049a565b936020016104c2565b90565b6102fc565b3461052d576105176105113660046104d1565b906125df565b61051f6102f2565b806105298161034c565b0390f35b6102f8565b909182601f8301121561056c5781359167ffffffffffffffff831161056757602001926020830284011161056257565b6103b2565b6103ae565b6103aa565b916040838303126105b1575f83013567ffffffffffffffff81116105ac5761059e836105a9928601610532565b93909460200161049a565b90565b610300565b6102fc565b346105e5576105cf6105c9366004610571565b91612630565b6105d76102f2565b806105e18161034c565b0390f35b6102f8565b9060208282031261061b575f82013567ffffffffffffffff8111610616576106129201610532565b9091565b610300565b6102fc565b3461064f576106396106333660046105ea565b906127f0565b6106416102f2565b8061064b8161034c565b0390f35b6102f8565b919060408382031261067c5780610670610679925f860161039b565b9360200161049a565b90565b6102fc565b61068a90610384565b9052565b91906106a1905f60208501940190610681565b565b346106d4576106d06106bf6106b9366004610654565b90612a30565b6106c76102f2565b9182918261068e565b0390f35b6102f8565b34610708576106f26106ec366004610654565b90612ac1565b6106fa6102f2565b806107048161034c565b0390f35b6102f8565b6007111561071757565b5f80fd5b905035906107288261070d565b565b9190604083820312610752578061074661074f925f860161039b565b9360200161071b565b90565b6102fc565b346107865761077061076a36600461072a565b90612bed565b6107786102f2565b806107828161034c565b0390f35b6102f8565b60ff1690565b61079a8161078b565b036107a157565b5f80fd5b905035906107b282610791565b565b91906040838203126107dc57806107d06107d9925f860161039b565b936020016107a5565b90565b6102fc565b34610810576107fa6107f43660046107b4565b90613288565b6108026102f2565b8061080c8161034c565b0390f35b6102f8565b9060208282031261082e5761082b915f0161039b565b90565b6102fc565b90565b61084a61084561084f92610384565b610833565b610384565b90565b9061085c90610836565b5f5260205260405f2090565b5f1c90565b60ff1690565b61087f61088491610868565b61086d565b90565b6108919054610873565b90565b60081c90565b60018060a01b031690565b6108b16108b691610894565b61089a565b90565b6108c390546108a5565b90565b6108d26108d791610868565b61089a565b90565b6108e490546108c6565b90565b90565b6108f66108fb91610868565b6108e7565b90565b61090890546108ea565b90565b60ff1690565b61091d61092291610868565b61090b565b90565b61092f9054610911565b90565b634e487b7160e01b5f52602260045260245ffd5b9060016002830492168015610966575b602083101461096157565b610932565b91607f1691610956565b60209181520190565b5f5260205f2090565b905f929180549061099c61099583610946565b8094610970565b916001811690815f146109f357506001146109b7575b505050565b6109c49192939450610979565b915f925b8184106109db57505001905f80806109b2565b600181602092959395548486015201910192906109c8565b92949550505060ff19168252151560200201905f80806109b2565b90610a1891610982565b90565b601f801991011690565b634e487b7160e01b5f52604160045260245ffd5b90610a4390610a1b565b810190811067ffffffffffffffff821117610a5d57604052565b610a25565b90610a82610a7b92610a726102f2565b93848092610a0e565b0383610a39565b565b60ff1690565b610a96610a9b91610868565b610a84565b90565b610aa89054610a8a565b90565b610ab6906006610852565b610ac15f8201610887565b91610acd5f83016108b9565b91610ada600182016108da565b91610ae7600283016108fe565b91610af4600382016108da565b91610b0160058301610925565b91610b0e60068201610a62565b91610b1b600783016108fe565b91610b28600882016108fe565b91610b41600d610b3a600985016108fe565b9301610a9e565b90565b634e487b7160e01b5f52602160045260245ffd5b60071115610b6257565b610b44565b90610b7182610b58565b565b610b7c90610b67565b90565b610b8890610b73565b9052565b610b959061047a565b9052565b610ba29061078b565b9052565b5190565b60209181520190565b90825f9392825e0152565b610bdd610be6602093610beb93610bd481610ba6565b93848093610baa565b95869101610bb3565b610a1b565b0190565b610bf8906104a9565b9052565b9690610c7c91610c6f610c9d986101409b9f9e9c96610ca49e99610c5b610c929a60608f610c54610c6596610c4a610c879e610c4061016086019e5f870190610b7f565b6020850190610b8c565b6040830190610b8c565b0190610681565b60808d0190610b8c565b60a08b0190610b99565b88820360c08a0152610bbe565b9a60e0870190610681565b610100850190610681565b610120830190610681565b0190610bef565b565b34610ce357610cdf610cc1610cbc366004610815565b610aab565b97610cd69b999b9791979692969593956102f2565b9b8c9b8c610bfc565b0390f35b6102f8565b909182601f83011215610d225781359167ffffffffffffffff8311610d1d576020019260208302840111610d1857565b6103b2565b6103ae565b6103aa565b919091604081840312610d6857610d40835f830161039b565b92602082013567ffffffffffffffff8111610d6357610d5f9201610ce8565b9091565b610300565b6102fc565b34610d9c57610d86610d80366004610d27565b91613bdc565b610d8e6102f2565b80610d988161034c565b0390f35b6102f8565b34610dd157610dcd610dbc610db7366004610815565b613c16565b610dc46102f2565b9182918261068e565b0390f35b6102f8565b34610e0657610e02610df1610dec366004610815565b613d6e565b610df96102f2565b9182918261068e565b0390f35b6102f8565b34610e3b57610e37610e26610e21366004610815565b613daf565b610e2e6102f2565b9182918261068e565b0390f35b6102f8565b5f80fd5b90610e57610e506102f2565b9283610a39565b565b67ffffffffffffffff8111610e7757610e73602091610a1b565b0190565b610a25565b90825f939282370152565b90929192610e9c610e9782610e59565b610e44565b93818552602085019082840111610eb857610eb692610e7c565b565b610e40565b9080601f83011215610edb57816020610ed893359101610e87565b90565b6103aa565b90602082820312610f10575f82013567ffffffffffffffff8111610f0b57610f089201610ebd565b90565b610300565b6102fc565b9190610f28905f60208501940190610b8c565b565b34610f5a57610f56610f45610f40366004610ee0565b613e0a565b610f4d6102f2565b91829182610f15565b0390f35b6102f8565b90602082820312610f7857610f75915f0161049a565b90565b6102fc565b34610fad57610fa9610f98610f93366004610f5f565b613ea6565b610fa06102f2565b9182918261068e565b0390f35b6102f8565b34610fe257610fde610fcd610fc8366004610815565b613ebc565b610fd56102f2565b9182918261068e565b0390f35b6102f8565b5f910312610ff157565b6102fc565b1c90565b61100a90600861100f9302610ff6565b6108e7565b90565b9061101d9154610ffa565b90565b61102c60015f90611012565b90565b3461105f5761103f366004610fe7565b61105b61104a611020565b6110526102f2565b9182918261068e565b0390f35b6102f8565b5f80fd5b5f80fd5b6003111561107657565b5f80fd5b905035906110878261106c565b565b6003111561109357565b5f80fd5b905035906110a482611089565b565b600311156110b057565b5f80fd5b905035906110c1826110a6565b565b91909160e081840312611188576110da60e0610e44565b926110e7815f840161107a565b5f850152602082013567ffffffffffffffff8111611183578161110b918401610ebd565b602085015260408201359167ffffffffffffffff831161117e5761113482611177948301610ebd565b6040860152611146826060830161039b565b6060860152611158826080830161039b565b608086015261116a8260a08301611097565b60a086015260c0016110b4565b60c0830152565b611068565b611068565b611064565b9190916040818403126111cd576111a6835f830161039b565b92602082013567ffffffffffffffff81116111c8576111c592016110c3565b90565b610300565b6102fc565b34611201576111eb6111e536600461118d565b90614053565b6111f36102f2565b806111fd8161034c565b0390f35b6102f8565b6003111561121057565b610b44565b9061121f82611206565b565b61122a90611215565b90565b61123690611221565b9052565b6003111561124457565b610b44565b906112538261123a565b565b61125e90611249565b90565b61126a90611255565b9052565b61128d61129660209361129b9361128481610ba6565b93848093610970565b95869101610bb3565b610a1b565b0190565b6112a890610384565b9052565b600311156112b657565b610b44565b906112c5826112ac565b565b6112d0906112bb565b90565b6112dc906112c7565b9052565b600311156112ea57565b610b44565b906112f9826112e0565b565b611304906112ef565b90565b611310906112fb565b9052565b906113ae9060e08061136d61135b61010085016113375f8901515f88019061122d565b61134960208901516020880190611261565b6040880151868203604088015261126e565b6060870151858203606087015261126e565b946113806080820151608086019061129f565b61139260a082015160a086019061129f565b6113a460c082015160c08601906112d3565b0151910190611307565b90565b6113c69160208201915f818403910152611314565b90565b346113fa576113f66113e56113df3660046107b4565b90614290565b6113ed6102f2565b918291826113b1565b0390f35b6102f8565b91909160408184031261143f57611418835f830161039b565b92602082013567ffffffffffffffff811161143a576114379201610ebd565b90565b610300565b6102fc565b9190611457905f60208501940190610bef565b565b3461148a5761148661147561146f3660046113ff565b90614346565b61147d6102f2565b91829182611444565b0390f35b6102f8565b346114be576114a86114a2366004610654565b906145e5565b6114b06102f2565b806114ba8161034c565b0390f35b6102f8565b909182601f830112156114fd5781359167ffffffffffffffff83116114f85760200192602083028401116114f357565b6103b2565b6103ae565b6103aa565b9190916040818403126115435761151b835f830161039b565b92602082013567ffffffffffffffff811161153e5761153a92016114c3565b9091565b610300565b6102fc565b346115775761156161155b366004611502565b91614cd6565b6115696102f2565b806115738161034c565b0390f35b6102f8565b67ffffffffffffffff811161159a57611596602091610a1b565b0190565b610a25565b909291926115b46115af8261157c565b610e44565b938185526020850190828401116115d0576115ce92610e7c565b565b610e40565b9080601f830112156115f3578160206115f09335910161159f565b90565b6103aa565b91909160408184031261163857611611835f830161049a565b92602082013567ffffffffffffffff81116116335761163092016115d5565b90565b610300565b6102fc565b61165161164b3660046115f8565b90614d0c565b6116596102f2565b806116638161034c565b0390f35b90565b61167390611667565b9052565b919061168a905f6020850194019061166a565b565b346116bc5761169c366004610fe7565b6116b86116a7614d87565b6116af6102f2565b91829182611677565b0390f35b6102f8565b906116cb90610836565b5f5260205260405f2090565b6116e29060046116c1565b906116fa60016116f35f85016108da565b93016108da565b90565b91602061171e92949361171760408201965f830190610b8c565b0190610b8c565b565b3461175157611738611733366004610815565b6116d7565b9061174d6117446102f2565b928392836116fd565b0390f35b6102f8565b67ffffffffffffffff811161176e5760208091020190565b610a25565b92919061178761178282611756565b610e44565b93818552602080860192028101918383116117de5781905b8382106117ad575050505050565b813567ffffffffffffffff81116117d9576020916117ce87849387016110c3565b81520191019061179f565b6103aa565b6103b2565b9080601f83011215611801578160206117fe93359101611773565b90565b6103aa565b67ffffffffffffffff811161181e5760208091020190565b610a25565b92919061183761183282611806565b610e44565b938185526020808601920281019183831161188e5781905b83821061185d575050505050565b813567ffffffffffffffff81116118895760209161187e8784938701610ebd565b81520191019061184f565b6103aa565b6103b2565b9080601f830112156118b1578160206118ae93359101611823565b90565b6103aa565b9160c08383031261195c576118cd825f850161049a565b926118db836020830161039b565b926118e981604084016104c2565b92606083013567ffffffffffffffff8111611957578261190a918501610ebd565b92608081013567ffffffffffffffff8111611952578361192b9183016117e3565b9260a082013567ffffffffffffffff811161194d5761194a9201611893565b90565b610300565b610300565b610300565b6102fc565b5190565b60209181520190565b60200190565b61197d9061078b565b9052565b9061198e81602093611974565b0190565b60200190565b906119b56119af6119a884611961565b8093611965565b9261196e565b905f5b8181106119c55750505090565b9091926119de6119d86001928651611981565b94611992565b91019190916119b8565b611a0c611a19949293611a0260608401955f850190610681565b6020830190610b8c565b6040818403910152611998565b90565b34611a5657611a52611a3e611a323660046118b6565b94939093929192614e54565b611a499391936102f2565b938493846119e8565b0390f35b6102f8565b67ffffffffffffffff8111611a735760208091020190565b610a25565b90929192611a8d611a8882611a5b565b610e44565b9381855260208086019202830192818411611aca57915b838310611ab15750505050565b60208091611abf848661049a565b815201920191611aa4565b6103b2565b9080601f83011215611aed57816020611aea93359101611a78565b90565b6103aa565b67ffffffffffffffff8111611b0a5760208091020190565b610a25565b9190604083820312611b4957611b4290611b296040610e44565b93611b36825f830161049a565b5f86015260200161049a565b6020830152565b611064565b90929192611b63611b5e82611af2565b610e44565b938185526040602086019202830192818411611ba257915b838310611b885750505050565b6020604091611b978486611b0f565b815201920191611b7b565b6103b2565b9080601f83011215611bc557816020611bc293359101611b4e565b90565b6103aa565b919060a083820312611c4c57611be2815f850161049a565b92611bf0826020830161049a565b92604082013567ffffffffffffffff8111611c475783611c11918401611acf565b9260608301359067ffffffffffffffff8211611c4257611c3681611c3f938601611ba7565b9360800161049a565b90565b610300565b610300565b6102fc565b34611c8357611c6d611c64366004611bca565b9392909261559a565b611c756102f2565b80611c7f8161034c565b0390f35b6102f8565b34611c9d57611c98366004610fe7565b6155a9565b6102f8565b611cb2906008611cb79302610ff6565b61089a565b90565b90611cc59154611ca2565b90565b611cd460035f90611cba565b90565b34611d0757611ce7366004610fe7565b611d03611cf2611cc8565b611cfa6102f2565b91829182610f15565b0390f35b6102f8565b611d175f5f90611012565b90565b34611d4a57611d2a366004610fe7565b611d46611d35611d0c565b611d3d6102f2565b9182918261068e565b0390f35b6102f8565b34611d7d57611d5f366004610fe7565b611d676155c5565b611d6f6102f2565b80611d798161034c565b0390f35b6102f8565b34611db057611d9a611d95366004610f5f565b6156b2565b611da26102f2565b80611dac8161034c565b0390f35b6102f8565b34611de557611dc5366004610fe7565b611de1611dd06156bd565b611dd86102f2565b91829182610f15565b0390f35b6102f8565b90611dfc611df783610e59565b610e44565b918252565b5f7f352e302e30000000000000000000000000000000000000000000000000000000910152565b611e326005611dea565b90611e3f60208301611e01565b565b611e49611e28565b90565b611e54611e41565b90565b611e5f611e4c565b90565b611e779160208201915f818403910152610bbe565b90565b34611eaa57611e8a366004610fe7565b611ea6611e95611e57565b611e9d6102f2565b91829182611e62565b0390f35b6102f8565b61ffff1690565b611ec6906008611ecb9302610ff6565b611eaf565b90565b90611ed99154611eb6565b90565b611ee96002601490611ece565b90565b611ef590610304565b9052565b9190611f0c905f60208501940190611eec565b565b34611f3e57611f1e366004610fe7565b611f3a611f29611edc565b611f316102f2565b91829182611ef9565b0390f35b6102f8565b90565b611f5a611f55611f5f92611f43565b610833565b610304565b90565b611f6d6103e8611f46565b90565b611f78611f62565b90565b34611fab57611f8b366004610fe7565b611fa7611f96611f70565b611f9e6102f2565b91829182611ef9565b0390f35b6102f8565b34611fdf57611fc9611fc33660046113ff565b906158fd565b611fd16102f2565b80611fdb8161034c565b0390f35b6102f8565b611ff060025f90611cba565b90565b3461202357612003366004610fe7565b61201f61200e611fe4565b6120166102f2565b91829182610f15565b0390f35b6102f8565b90565b61203f61203a61204492612028565b610833565b610304565b90565b61205261271061202b565b90565b61205d612047565b90565b3461209057612070366004610fe7565b61208c61207b612055565b6120836102f2565b91829182611ef9565b0390f35b6102f8565b346120c3576120ad6120a8366004610f5f565b6159a5565b6120b56102f2565b806120bf8161034c565b0390f35b6102f8565b346120f8576120d8366004610fe7565b6120f46120e36159b0565b6120eb6102f2565b91829182610f15565b0390f35b6102f8565b61211161210c6121169261046f565b610833565b61046f565b90565b612122906120fd565b90565b61212e90612119565b90565b9061213b90612125565b5f5260205260405f2090565b61215790600861215c9302610ff6565b610a84565b90565b9061216a9154612147565b90565b6121839061217e6005915f92612131565b61215f565b90565b346121b6576121b26121a161219c366004610f5f565b61216d565b6121a96102f2565b91829182611444565b0390f35b6102f8565b346121ec576121e86121d76121d1366004610654565b906159ce565b6121df6102f2565b9182918261068e565b0390f35b6102f8565b3461221f57612209612204366004610f5f565b615a74565b6122116102f2565b8061221b8161034c565b0390f35b6102f8565b5f80fd5b61223990612234615a7f565b61229a565b565b60a01b90565b9061225161ffff60a01b9161223b565b9181191691161790565b61226f61226a61227492610304565b610833565b610304565b90565b90565b9061228f61228a6122969261225b565b612277565b8254612241565b9055565b806122b46122ae6122a9611f62565b610304565b91610304565b11612306576122c481600261227a565b6122ee7f990c608f52a5f1807834028bfc1c7af2110edc57963882072a5d87750f0a0a029161225b565b906122f76102f2565b806123018161034c565b0390a2565b5f631752ff0760e31b81528061231e6004820161034c565b0390fd5b61232b90612228565b565b5090565b5f90565b60016123419101610384565b90565b634e487b7160e01b5f52603260045260245ffd5b9190811015612368576020020190565b612344565b3561237781610486565b90565b91602061239b92949361239460408201965f830190610681565b0190610b8c565b565b336123c66123c06123bb60036123b560068790610852565b016108da565b61047a565b9161047a565b1415806124d9575b6124be576123dd82849061232d565b926123e6612331565b5b806123fa6123f487610384565b91610384565b10156124b7576124b2906124368461241c61241788878691612358565b61236d565b61243061242b89888791612358565b61236d565b91615acd565b849061244c61244788878691612358565b61236d565b909161246261245d89888791612358565b61236d565b61249561248f7f10fef4a7f0059a42b87896789713337efd8cd9ad4a2fb935752a380535e9ffe793610836565b93612125565b936124aa6124a16102f2565b9283928361237a565b0390a3612335565b6123e7565b5050505050565b5f6282b42960e81b8152806124d56004820161034c565b0390fd5b503361251961251361250e6001612508600461250260026124fc60068b90610852565b016108fe565b906116c1565b016108da565b61047a565b9161047a565b14156123ce565b906125329161252d615a7f565b61257e565b565b5f1b90565b9061254560ff91612534565b9181191691161790565b612558906104a9565b90565b90565b9061257361256e61257a9261254f565b61255b565b8254612539565b9055565b6125938261258e60058490612131565b61255e565b906125c76125c17f75bb45827ceadca9a5968a7e282f8a9ef20f54d233bdb6194ad79e725da4512893612125565b9161254f565b916125d06102f2565b806125da8161034c565b0390a3565b906125e991612520565b565b5090565b91908110156125ff576020020190565b612344565b3561260e81610387565b90565b90565b61262861262361262d92612611565b610833565b610384565b90565b91909161263e8184906125eb565b92612647612331565b5b8061265b61265587610384565b91610384565b1015612712576126a39061268461267c612677868685916125ef565b612604565b338791615acd565b806126976126915f612614565b91610384565b036126a8575b50612335565b612648565b6126bc6126b7868685916125ef565b612604565b90339091876126f46126ee7fccb9e2ea02788925db02dbaf6fe1ce4a97d090e082fb8b3a8b2ec06c965985b893610836565b93612125565b936127096127006102f2565b9283928361237a565b0390a35f61269d565b5050505050565b906127255f1991612534565b9181191691161790565b90565b9061274761274261274e92610836565b61272f565b8254612719565b9055565b634e487b7160e01b5f52601160045260245ffd5b61277561277b91939293610384565b92610384565b820180921161278657565b612752565b612794906120fd565b90565b6127a09061278b565b90565b6127ac906120fd565b90565b6127b8906127a3565b90565b6127c490612119565b90565b5f80fd5b60e01b90565b5f9103126127db57565b6102fc565b6127e86102f2565b3d5f823e3d90fd5b3361280c61280661280160026108da565b61047a565b9161047a565b036129ff5761281c8183906125eb565b92612825612331565b5b8061283961283387610384565b91610384565b10156129f85761285361284e848684916125ef565b612604565b9061286b600961286560068590610852565b016108fe565b8061287e6128785f612614565b91610384565b03612894575b5061288f9150612335565b612826565b6128b46128a05f612614565b60096128ae60068790610852565b01612732565b6128ec6128d86128d160076128cb60068890610852565b016108fe565b8390612766565b60076128e660068790610852565b01612732565b61291a61291561291061290b5f61290560068990610852565b016108b9565b612797565b6127af565b6127bb565b9263c58a6ce88261292b60026108da565b95803b156129f3576129505f809461295b6129446102f2565b9a8b96879586946127cb565b84526004840161237a565b03925af19384156129ee5761288f946129c2575b5061297a60026108da565b6129a47f4b37444511309f220f2dc177f699fc678b5fc6590490b414eb57a3c02d8fa8d492610836565b926129b96129b06102f2565b9283928361237a565b0390a25f612884565b6129e1905f3d81116129e7575b6129d98183610a39565b8101906127d1565b5f61296f565b503d6129cf565b6127e0565b6127c7565b5092505050565b5f6282b42960e81b815280612a166004820161034c565b0390fd5b90612a2490612125565b5f5260205260405f2090565b612a5891600a612a4d612a5393612a45612331565b506006610852565b01612a1a565b6108fe565b90565b612a6f612a6a612a7492612611565b610833565b61046f565b90565b612a8090612a5b565b90565b90612a9460018060a01b0391612534565b9181191691161790565b90565b90612ab6612ab1612abd92612125565b612a9e565b8254612a83565b9055565b81612adc612ad6612ad15f612a77565b61047a565b9161047a565b14612b8d57612af75f612af1600484906116c1565b016108da565b612b09612b033361047a565b9161047a565b03612b7257612b26826001612b20600485906116c1565b01612aa1565b90612b5a612b547ffdb34c480c74a3672ebe5e6c696ce54d2b76cb3683ac7d9afd838370b506f5bc93610836565b91612125565b91612b636102f2565b80612b6d8161034c565b0390a3565b5f6282b42960e81b815280612b896004820161034c565b0390fd5b5f63e6c4247b60e01b815280612ba56004820161034c565b0390fd5b612bb290610b67565b90565b90565b90612bcd612bc8612bd492612ba9565b612bb5565b8254612539565b9055565b9190612beb905f60208501940190610b99565b565b612c046003612bfe60068490610852565b016108da565b612c16612c103361047a565b9161047a565b14612c446001612c3e6004612c386002612c3260068990610852565b016108fe565b906116c1565b016108da565b612c56612c503361047a565b9161047a565b14612c6182156104a9565b806130dc575b6130c157612c815f612c7b60068690610852565b01610887565b9184612c95612c8f5f610b67565b91610b67565b1480156130a7575b801561308d575b8015613072575b8015613057575b61303b5784612cca612cc46002610b67565b91610b67565b145f14612d8957612cdc9150156104a9565b908115612d6c575b50612d5057612d0b905b612d05835f612cff60068590610852565b01612bb8565b91610b73565b90612d4b612d397fd9cdddff721ea39e169b574af11d0e81c588bbb9c3a73da68ce35fbe8b738bfa92610836565b92612d426102f2565b91829182612bd8565b0390a2565b5f63088bd32360e11b815280612d686004820161034c565b0390fd5b9050612d81612d7b6001610b67565b91610b67565b14155f612ce4565b84612d9d612d976003610b67565b91610b67565b145f14612e36575081612db9612db36002610b67565b91610b67565b145f14612df657612dcb9150156104a9565b612dda57612d0b905b5b612cee565b5f63088bd32360e11b815280612df26004820161034c565b0390fd5b50612e0a612e046004610b67565b91610b67565b145f14612e1a57612d0b90612dd4565b5f63088bd32360e11b815280612e326004820161034c565b0390fd5b9084612e4b612e456004610b67565b91610b67565b145f14612e92575050612e67612e616003610b67565b91610b67565b03612e7657612d0b905b612dd5565b5f63088bd32360e11b815280612e8e6004820161034c565b0390fd5b84612ea6612ea06005610b67565b91610b67565b145f14612f2e5750612eb890156104a9565b908115612eeb575b50612ecf57612d0b905b612e71565b5f63088bd32360e11b815280612ee76004820161034c565b0390fd5b809150612f01612efb6003610b67565b91610b67565b14159081612f11575b505f612ec0565b9050612f26612f206004610b67565b91610b67565b14155f612f0a565b909184612f44612f3e6006610b67565b91610b67565b14612f56575b505050612d0b90612eca565b80612f6a612f646005610b67565b91610b67565b145f14612faa5750612f7d9150156104a9565b612f8e57612d0b905b905f80612f4a565b5f63088bd32360e11b815280612fa66004820161034c565b0390fd5b809150612fc0612fba6001610b67565b91610b67565b1490811561301f575b505f1461300357612fda90156104a9565b612fe757612d0b90612f86565b5f63088bd32360e11b815280612fff6004820161034c565b0390fd5b5f63088bd32360e11b81528061301b6004820161034c565b0390fd5b905061303461302e6002610b67565b91610b67565b145f612fc9565b5f63088bd32360e11b8152806130536004820161034c565b0390fd5b508261306c6130666006610b67565b91610b67565b14612cb2565b50846130876130816001610b67565b91610b67565b14612cab565b50846130a161309b85610b67565b91610b67565b14612ca4565b50826130bb6130b55f610b67565b91610b67565b14612c9d565b5f6282b42960e81b8152806130d86004820161034c565b0390fd5b506130e781156104a9565b612c67565b9061310360036130fd846006610852565b016108da565b61311561310f3361047a565b9161047a565b0361312557613123916131c8565b565b5f6282b42960e81b81528061313c6004820161034c565b0390fd5b61315461314f6131599261078b565b610833565b61078b565b90565b9061316690613140565b5f5260205260405f2090565b60ff1690565b61318461318991610868565b613172565b90565b6131969054613178565b90565b6131a290611215565b90565b90565b906131bd6131b86131c492613199565b6131a5565b8254612539565b9055565b6131eb5f6131e560046131dd60068690610852565b01859061315c565b0161318c565b6131fe6131f86001611215565b91611215565b0361326c5761322860025f613222600461321a60068790610852565b01869061315c565b016131a8565b6132676132557f6cecb74258bd2532f1a621b4906ef4e43b5ba33567eac3f22276bdcee0a882a892610836565b9261325e6102f2565b91829182612bd8565b0390a2565b5f63f95b6c4560e01b8152806132846004820161034c565b0390fd5b90613292916130ec565b565b9190826132ad5f6132a760068490610852565b01610887565b6132bf6132b95f610b67565b91610b67565b146133c0576132db60026132d560068490610852565b016108fe565b6133036132fd6132f860016132f2339560046116c1565b016108da565b61047a565b9161047a565b036133a4575f61331761331d926006610852565b01610887565b8061333161332b6001610b67565b91610b67565b148015613389575b90811561336d575b506133515761334f926136d1565b565b5f6342c5f9f560e01b8152806133696004820161034c565b0390fd5b905061338261337c6006610b67565b91610b67565b145f613341565b508061339e6133986002610b67565b91610b67565b14613339565b5f632d6700a760e01b8152806133bc6004820161034c565b0390fd5b5f639b35ed3b60e01b8152806133d86004820161034c565b0390fd5b5090565b5f80fd5b5f80fd5b5f80fd5b90359060016101800381360303821215613404570190565b6133e0565b9082101561342357602061342092028101906133ec565b90565b612344565b3561343281610791565b90565b903590600160200381360303821215613477570180359067ffffffffffffffff82116134725760200191600182023603831361346d57565b6133e8565b6133e4565b6133e0565b613487913691610e87565b90565b5f90565b613497906120fd565b90565b6134a39061348e565b90565b90565b6134bd6134b86134c2926134a6565b610833565b61078b565b90565b6134ce90612119565b90565b905051906134de82610486565b565b906020828203126134f9576134f6915f016134d1565b90565b6102fc565b9190613518816135118161351d95610baa565b8095610e7c565b610a1b565b0190565b90916135389260208301925f8185039101526134fe565b90565b61354a61355091939293610384565b92610384565b820391821161355b57565b612752565b6fffffffffffffffffffffffffffffffff191690565b61357f81613560565b0361358657565b5f80fd5b3561359481613576565b90565b63ffffffff1690565b6135a981613597565b036135b057565b5f80fd5b356135be816135a0565b90565b6135ca81611667565b036135d157565b5f80fd5b356135df816135c1565b90565b6135eb90613560565b9052565b6135f890613597565b9052565b9a9f9e9c969861368e6136cf9f9a9960c06101809f988f906136c89f969d61367d6136bd9f9d6136736136b29f946136696136a79f61369b9f9e6136546136879961365f926101a08d01918d5f8185039101526134fe565b9f60208b0190610b99565b60408901906135e2565b6060870190610b8c565b6080850190610681565b60a0830190610681565b0190610b99565b8b830360e08d01526134fe565b9c610100890190610b8c565b6101208701906135ef565b61014085019061166a565b610160830190610681565b0190610681565b565b916136da612331565b6136e2612331565b916136ee8482906133dc565b956136f7612331565b5b8061370b6137058a610384565b91610384565b1015613b09576137318761372b5f6137258a888791613409565b01613428565b90615c80565b61375d876137576137516137478a888791613409565b60a0810190613435565b9061347c565b90615cd6565b61377f876137775f6137718a888791613409565b01613428565b600291615d35565b6137a96137a461379e61379489878691613409565b60a0810190613435565b9061347c565b615d8b565b613aed576137c460806137be88868591613409565b01613428565b6137cc61348a565b506137df6137da60036108da565b61349a565b906137f36137ed60016134a9565b9161078b565b1480613adf575b5f14613ac257602061380e613847926134c5565b63b7a9b36d9061382d6138238b898891613409565b60a0810190613435565b94909261385261383b6102f2565b968795869485946127cb565b845260048401613521565b03915afa908115613abd575f91613a8f575b505b8684839061387392613409565b60600161387f90612604565b61388890613d6e565b958785849061389692613409565b6060016138a290612604565b876138ac9161353b565b9060068a6138b991610852565b600a01836138c691612a1a565b6138cf906108fe565b826138d991612766565b60068b6138e591610852565b600a01846138f291612a1a565b906138fc91612732565b8761390691612766565b958886859061391492613409565b60600161392090612604565b61392991612766565b9689918987869061393992613409565b60a0810161394691613435565b918b878a8281839061395792613409565b5f0161396290613428565b968382849061397092613409565b60200161397c9061358a565b9994908483859061398c92613409565b60800161399890613428565b90858486906139a692613409565b60c081016139b391613435565b929091878688906139c392613409565b60e0016139cf9061236d565b94888789906139dd92613409565b610100016139ea906135b4565b9689818a906139f892613409565b61012001613a05906135d5565b988a828290613a1392613409565b61014001613a2090612604565b9a91613a2b92613409565b61016001613a3890612604565b997ff53c9be4e377f5eaa9bf3ee8c8df85cf507556faf630d0d4caa0f6a60113cbec9e613a6490610836565b9f613a6d6102f2565b9e8f9e8f9e613a7b9f6135fc565b0390a2613a8790612335565b9392936136f8565b613ab0915060203d8111613ab6575b613aa88183610a39565b8101906134e0565b5f613864565b503d613a9e565b6127e0565b50613ada6040613ad488868591613409565b0161236d565b613866565b50613ae8615e51565b6137fa565b5f638a425e3160e01b815280613b056004820161034c565b0390fd5b5095505090929150613b286008613b2260068590610852565b016108fe565b613b4d613b47613b41613b3a86613daf565b9385612766565b92610384565b91610384565b11613bc057613bb8613bb0613bbe94613b95613b81600995613b7c6008613b7660068b90610852565b016108fe565b612766565b6008613b8f60068990610852565b01612732565b613bab84613ba560068890610852565b016108fe565b612766565b926006610852565b01612732565b565b5f6326b2f7bf60e01b815280613bd86004820161034c565b0390fd5b90613be79291613294565b565b90505190613bf682610387565b565b90602082820312613c1157613c0e915f01613be9565b90565b6102fc565b6020613c51613c4c613c47613c425f613c3c613c6797613c34612331565b506006610852565b016108b9565b612797565b6127af565b6127bb565b6312065fe090613c5f6102f2565b9384926127cb565b82528180613c776004820161034c565b03915afa908115613cbb575f91613c8d575b5090565b613cae915060203d8111613cb4575b613ca68183610a39565b810190613bf8565b5f613c89565b503d613c9c565b6127e0565b60a01c90565b613cd2613cd791613cc0565b611eaf565b90565b613ce49054613cc6565b90565b613cfb613cf6613d0092610304565b610833565b610384565b90565b613d12613d1891939293610384565b92610384565b91613d24838202610384565b928184041490151715613d3357565b612752565b634e487b7160e01b5f52601260045260245ffd5b613d58613d5e91610384565b91610384565b908115613d69570490565b613d38565b613d96613dac91613d7d612331565b50613d90613d8b6002613cda565b613ce7565b90613d03565b613da6613da1612047565b613ce7565b90613d4c565b90565b613de190613dbb612331565b50613ddb6007613dd5613dcd84613c16565b936006610852565b016108fe565b90612766565b90565b92916020613e00613e089360408701908782035f890152610bbe565b940190610681565b565b613e1261348a565b506020613e2f613e2a613e2560036108da565b61349a565b6134c5565b633a06252a9290613e524694613e5d613e466102f2565b968795869485946127cb565b845260048401613de4565b03915afa908115613ea1575f91613e73575b5090565b613e94915060203d8111613e9a575b613e8c8183610a39565b8101906134e0565b5f613e6f565b503d613e82565b6127e0565b613eb990613eb2612331565b5033615edd565b90565b6009613ed5613edb92613ecd612331565b506006610852565b016108fe565b90565b90613ef56003613eef846006610852565b016108da565b613f07613f013361047a565b9161047a565b03613f1757613f1591613f94565b565b5f6282b42960e81b815280613f2e6004820161034c565b0390fd5b613f3e613f449161078b565b9161078b565b019060ff8211613f5057565b612752565b613f5e9061078b565b60ff8114613f6c5760010190565b612752565b90565b90613f89613f84613f9092613140565b613f71565b8254612539565b9055565b613fbe613fae6005613fa860068590610852565b01610925565b613fb860016134a9565b90613f32565b613fd1613fcb60ff61078b565b9161078b565b116140375761401d6005916140166140359461400c613ffc86613ff660068790610852565b01610925565b61400660016134a9565b90613f32565b908391909161642e565b6006610852565b0161402f61402a82610925565b613f55565b90613f74565b565b5f63a3328e6360e01b81528061404f6004820161034c565b0390fd5b9061405d91613ede565b565b61406a610100610e44565b90565b5f90565b5f90565b606090565b5f90565b5f90565b5f90565b61408e61405f565b90602080808080808080896140a161406d565b8152016140ac614071565b8152016140b7614075565b8152016140c2614075565b8152016140cd61407a565b8152016140d861407a565b8152016140e361407e565b8152016140ee614082565b81525050565b6140fc614086565b90565b9061410990611215565b9052565b60ff1690565b61411f61412491610894565b61410d565b90565b6141319054614113565b90565b9061413e90611249565b9052565b52565b9061414f90610384565b9052565b60ff1690565b61416561416a91610868565b614153565b90565b6141779054614159565b90565b90614184906112bb565b9052565b60ff1690565b61419a61419f91610894565b614188565b90565b6141ac905461418e565b90565b906141b9906112ef565b9052565b9061428261427960056141ce61405f565b946141e56141dd5f830161318c565b5f88016140ff565b6141fc6141f35f8301614127565b60208801614134565b61421461420b60018301610a62565b60408801614142565b61422c61422360028301610a62565b60608801614142565b61424461423b600383016108fe565b60808801614145565b61425c614253600483016108fe565b60a08801614145565b61427361426a83830161416d565b60c0880161417a565b016141a2565b60e084016141af565b565b61428d906141bd565b90565b6142b89160046142ad6142b3936142a56140f4565b506006610852565b0161315c565b614284565b90565b5f90565b905090565b6142e96142e0926020926142d781610ba6565b948580936142bf565b93849101610bb3565b0190565b90565b6142fc61430191610384565b6142ed565b9052565b61431561431c91602094936142c4565b80926142f0565b0190565b61433461432b6102f2565b92839283614305565b03902090565b61434391614320565b90565b61436e91600c6143636143699361435b6142bb565b506006610852565b0161433a565b610a9e565b90565b906143886003614382846006610852565b016108da565b61439a6143943361047a565b9161047a565b036143aa576143a8916143e8565b565b5f6282b42960e81b8152806143c16004820161034c565b0390fd5b9160206143e69294936143df60408201965f830190610b8c565b0190610681565b565b906143ff5f6143f960068590610852565b01610887565b61441261440c6006610b67565b91610b67565b036145c95761444061442383613daf565b61443a600861443460068790610852565b016108fe565b9061353b565b918261445461444e5f612614565b91610384565b146145c45761449161447d614476600861447060068690610852565b016108fe565b8590612766565b600861448b60068590610852565b01612732565b6144c96144b56144ae60076144a860068690610852565b016108fe565b8590612766565b60076144c360068590610852565b01612732565b6144f76144f26144ed6144e85f6144e260068790610852565b016108b9565b612797565b6127af565b6127bb565b63c58a6ce8848492803b156145bf576145235f809461452e6145176102f2565b978896879586946127cb565b84526004840161237a565b03925af180156145ba5761458e575b5033919261457461456e7f123b746c2ef9af1069d18c5b16b2ab8a19c8811695dc6ba2c95c7eeaa2138bbf93610836565b93612125565b936145896145806102f2565b928392836143c5565b0390a3565b6145ad905f3d81116145b3575b6145a58183610a39565b8101906127d1565b5f61453d565b503d61459b565b6127e0565b6127c7565b505050565b5f6342c5f9f560e01b8152806145e16004820161034c565b0390fd5b906145ef91614371565b565b91908261460a5f61460460068490610852565b01610887565b61461c6146165f610b67565b91610b67565b1461471d57614638600261463260068490610852565b016108fe565b61466061465a614655600161464f339560046116c1565b016108da565b61047a565b9161047a565b03614701575f61467461467a926006610852565b01610887565b8061468e6146886001610b67565b91610b67565b1480156146e6575b9081156146ca575b506146ae576146ac92614834565b565b5f6342c5f9f560e01b8152806146c66004820161034c565b0390fd5b90506146df6146d96006610b67565b91610b67565b145f61469e565b50806146fb6146f56002610b67565b91610b67565b14614696565b5f632d6700a760e01b8152806147196004820161034c565b0390fd5b5f639b35ed3b60e01b8152806147356004820161034c565b0390fd5b5090565b90359060016101000381360303821215614755570190565b6133e0565b90821015614774576020614771920281019061473d565b90565b612344565b93929061479760209161479f9460408801918883035f8a01526134fe565b940190610681565b565b9b9a98939661480961481d949760808f6148026148329f9a6147f86101009f999e61482a9f6147e36148139b6147ee926101208901918983035f8b01526134fe565b9f6020870190610b99565b60408501906135e2565b6060830190610b8c565b0190610681565b60a08d0190610681565b60c08b0190610b99565b88830360e08a01526134fe565b9401906135ef565b565b92919061483f612331565b91614848612331565b92614854838390614739565b9461485d612331565b5b8061487161486b89610384565b91610384565b1015614c0357614897886148915f61488b8989879161475a565b01613428565b90615c80565b6148c3886148bd6148b76148ad8989879161475a565b60a0810190613435565b9061347c565b90615cd6565b6148e5886148dd5f6148d78989879161475a565b01613428565b600191615d35565b61490f61490a6149046148fa8888869161475a565b60a0810190613435565b9061347c565b615d8b565b614be75761492561492060036108da565b61349a565b61492d61348a565b50614945608061493f8888869161475a565b01613428565b61495861495260016134a9565b9161078b565b1480614bd9575b5f14614bbc5760206149736149ad926134c5565b633a06252a906149926149888a8a889161475a565b60a0810190613435565b9490926149b8466149a16102f2565b978896879586956127cb565b855260048501614779565b03915afa908115614bb7575f91614b89575b505b858583906149d99261475a565b6060016149e590612604565b6149ee90613d6e565b96868684906149fc9261475a565b606001614a0890612604565b88614a129161353b565b9060068b614a1f91610852565b600a0183614a2c91612a1a565b614a35906108fe565b82614a3f91612766565b60068c614a4b91610852565b600a0184614a5891612a1a565b90614a6291612732565b88614a6c91612766565b9487878590614a7a9261475a565b606001614a8690612604565b614a8f91612766565b978a9188888690614a9f9261475a565b60a08101614aac91613435565b91898b80828a90614abc9261475a565b5f01614ac790613428565b9581838b90614ad59261475a565b602001614ae19061358a565b98939082848c90614af19261475a565b608001614afd90613428565b9183858d90614b0b9261475a565b60c08101614b1891613435565b959094908d90614b279261475a565b60e001614b33906135b4565b957f8355af646d8d5372baf9ea81999539155b6384d4f14df107c5138b06760488ec9a614b5f90610836565b9b614b686102f2565b9a8b9a614b759a8c6147a1565b0390a2614b8190612335565b94919461485e565b614baa915060203d8111614bb0575b614ba28183610a39565b8101906134e0565b5f6149ca565b503d614b98565b6127e0565b50614bd46040614bce8787859161475a565b0161236d565b6149cc565b50614be2615e51565b61495f565b5f638a425e3160e01b815280614bff6004820161034c565b0390fd5b5095939450915050614c226008614c1c60068590610852565b016108fe565b614c47614c41614c3b614c3486613daf565b9385612766565b92610384565b91610384565b11614cba57614cb2614caa614cb894614c8f614c7b600995614c766008614c7060068b90610852565b016108fe565b612766565b6008614c8960068990610852565b01612732565b614ca584614c9f60068890610852565b016108fe565b612766565b926006610852565b01612732565b565b5f6326b2f7bf60e01b815280614cd26004820161034c565b0390fd5b90614ce192916145f1565b565b90614cf591614cf0616674565b614cf7565b565b90614d0a91614d0581616726565b616782565b565b90614d1691614ce3565b565b5f90565b614d2d90614d28616880565b614d7b565b90565b90565b614d47614d42614d4c92614d30565b612534565b611667565b90565b614d787f360894a13ba1a3210667c828492db98dca3e2076cc3735a920a3ca505d382bbc614d33565b90565b50614d84614d4f565b90565b614d97614d92614d18565b614d1c565b90565b606090565b5190565b90614dad82614d9f565b811015614dbe576020809102010190565b612344565b614dcc90610384565b5f198114614dda5760010190565b612752565b604090614e08614e0f9496959396614dfe60608401985f850190610681565b6020830190610b8c565b0190610b8c565b565b9092614e4490614e3a614e519694614e3060808601975f870190610b8c565b6020850190610b8c565b6040830190610681565b6060818403910152610bbe565b90565b959391929095614e62612331565b50614e6b61348a565b50614e74614d9a565b50614e92614e8c614e8760058490612131565b610a9e565b156104a9565b61507057614eac5f614ea660048a906116c1565b016108da565b614ec6614ec0614ebb5f612a77565b61047a565b9161047a565b1461505457614ed486614d9f565b96614edd612331565b5b80614ef1614eeb8b610384565b91610384565b1015614f3957614f0b614f05898390614da3565b51615d8b565b614f1d57614f1890612335565b614ede565b5f638a425e3160e01b815280614f356004820161034c565b0390fd5b5090919293949650614f5b614f55614f505f6108fe565b614dc3565b5f612732565b614f645f6108fe565b82903391614f706102f2565b92610e6c84019184831067ffffffffffffffff84111761504f578493614f9d93610e6c61712c8739614ddf565b03905ff0801561504a5761503895614fb7614fcf926127bb565b97614fc15f6108fe565b91898690869289949561693a565b614fd85f6108fe565b9033926150278891929561501561500f7f0bcd8961fbc54d5c134fd32d92c2928de8e033d8f31edd8fcaeb1a030ebef9be96610836565b96612125565b9661501e6102f2565b94859485614e11565b0390a36150335f6108fe565b616bc6565b916150425f6108fe565b919291929190565b6127e0565b610a25565b5f63dcc0fcb160e01b81528061506c6004820161034c565b0390fd5b5f630c69b51560e11b8152806150886004820161034c565b0390fd5b60401c90565b61509e6150a39161508c565b610a84565b90565b6150b09054615092565b90565b67ffffffffffffffff1690565b6150cc6150d191610868565b6150b3565b90565b6150de90546150c0565b90565b67ffffffffffffffff1690565b6151026150fd61510792612611565b610833565b6150e1565b90565b61511e615119615123926134a6565b610833565b6150e1565b90565b61512f90612119565b90565b9061514567ffffffffffffffff91612534565b9181191691161790565b61516361515e615168926150e1565b610833565b6150e1565b90565b90565b9061518361517e61518a9261514f565b61516b565b8254615132565b9055565b60401b90565b906151a868ff00000000000000009161518e565b9181191691161790565b906151c76151c26151ce9261254f565b61255b565b8254615194565b9055565b6151db9061510a565b9052565b91906151f2905f602085019401906151d2565b565b91939092615200616cd0565b9461521561520f5f88016150a6565b156104a9565b946152215f88016150d4565b8061523461522e5f6150ee565b916150e1565b148061534e575b9061524f615249600161510a565b916150e1565b1480615326575b6152619091156104a9565b9081615315575b506152f9576152919461528661527e600161510a565b5f8a0161516e565b866152e7575b6153aa565b615299575b50565b6152a6905f8091016151b2565b60016152de7fc7f505b2f371ae2175ee4913f4499e1f2633a7b5936321eed1cdaeb6115181d2916152d56102f2565b918291826151df565b0390a15f615296565b6152f460015f8a016151b2565b61528c565b5f63f92ee8a960e01b8152806153116004820161034c565b0390fd5b6153209150156104a9565b5f615268565b5061526161533330615126565b3b6153466153405f612614565b91610384565b149050615256565b508661523b565b5190565b9061536382615355565b811015615374576020809102010190565b612344565b615383905161047a565b90565b5190565b9061539482615386565b8110156153a5576020809102010190565b612344565b919493816153c86153c26153bd5f612a77565b61047a565b9161047a565b148015615578575b61555c57615402926153e66153fb926003612aa1565b6153ee616cfe565b6153f6616d12565b616d7c565b6002612aa1565b615420600161541b60056154155f612a77565b90612131565b61255e565b61542983615355565b91615432612331565b5b8061544661544086610384565b91610384565b10156154e0576154db906154786001615473600561546d6154688b8790615359565b615379565b90612131565b61255e565b61548b615486878390615359565b615379565b60016154c06154ba7f75bb45827ceadca9a5968a7e282f8a9ef20f54d233bdb6194ad79e725da4512893612125565b9161254f565b916154c96102f2565b806154d38161034c565b0390a3612335565b615433565b50915091506154ee82615386565b906154f7612331565b5b8061550b61550585610384565b91610384565b1015615556576155519061554b61552e5f61552788859061538a565b5101615379565b615545602061553e89869061538a565b5101615379565b90615edd565b50612335565b6154f8565b50915050565b5f63e6c4247b60e01b8152806155746004820161034c565b0390fd5b508261559461558e6155895f612a77565b61047a565b9161047a565b146153d0565b906155a7949392916151f4565b565b5f6310e83c2760e21b8152806155c16004820161034c565b0390fd5b6155cd616d9a565b6155d56159b0565b6155e76155e18361047a565b9161047a565b036155f7576155f590616d7c565b565b615612905f91829163118cdaa760e01b835260048301610f15565b0390fd5b61562790615622615a7f565b615629565b565b8061564461563e6156395f612a77565b61047a565b9161047a565b1461569657615654816002612aa1565b61567e7f30d36c1dd67e2019526263df539f65050c3b537a6acf65766b5da7de7128cf3691612125565b906156876102f2565b806156918161034c565b0390a2565b5f63e6c4247b60e01b8152806156ae6004820161034c565b0390fd5b6156bb90615616565b565b6156c561348a565b506156d85f6156d2616da7565b016108da565b90565b906156f260036156ec846006610852565b016108da565b6157046156fe3361047a565b9161047a565b03615714576157129161575c565b565b5f6282b42960e81b81528061572b6004820161034c565b0390fd5b9050519061573c826104ae565b565b9060208282031261575757615754915f0161572f565b90565b6102fc565b61577c615776600d61577060068590610852565b01610a9e565b156104a9565b6158e15761579261578d60036108da565b61349a565b61579a615e51565b9081615852575b50615836576157c76157c2600c6157ba60068590610852565b01849061433a565b610a9e565b615832576157ee60016157e9600c6157e160068690610852565b01859061433a565b61255e565b61582d61581b7f75ca7feb69615dcb453a6d1e3c842826e2dd2f0bc6503d89a10c295fd3e5d8c792610836565b926158246102f2565b91829182611e62565b0390a2565b5050565b5f638a425e3160e01b81528061584e6004820161034c565b0390fd5b61588c91506158626020916134c5565b638a4225399061588186926158756102f2565b958694859384936127cb565b835260048301611e62565b03915afa80156158dc576158a8915f916158ae575b50156104a9565b5f6157a1565b6158cf915060203d81116158d5575b6158c78183610a39565b81019061573e565b5f6158a1565b503d6158bd565b6127e0565b5f6304cd1eef60e11b8152806158f96004820161034c565b0390fd5b90615907916156db565b565b61591a90615915615a7f565b61591c565b565b8061593761593161592c5f612a77565b61047a565b9161047a565b1461598957615947816003612aa1565b6159717f1442237e28ccb0fdb083c40be28e1af6ebdcdda36b6fe2b266ec01c0d391e2a191612125565b9061597a6102f2565b806159848161034c565b0390a2565b5f63e6c4247b60e01b8152806159a16004820161034c565b0390fd5b6159ae90615909565b565b6159b861348a565b506159cb5f6159c5616dcb565b016108da565b90565b6159f691600b6159eb6159f1936159e3612331565b506006610852565b01612a1a565b6108fe565b90565b615a0a90615a05615a7f565b615a0c565b565b615a20615a17616dcb565b5f839101612aa1565b615a286156bd565b90615a5c615a567f38d16b8cac22d99fc7c124b9cd0de2d3fa1faef420bfe791d8c362d765e2270093612125565b91612125565b91615a656102f2565b80615a6f8161034c565b0390a3565b615a7d906159f9565b565b615a876156bd565b615aa0615a9a615a95616d9a565b61047a565b9161047a565b03615aa757565b615ac9615ab2616d9a565b5f91829163118cdaa760e01b835260048301610f15565b0390fd5b919091615ad8612331565b50615afa615af5600a615aed60068590610852565b018590612a1a565b6108fe565b9283615b0e615b085f612614565b91610384565b14615c7057615be4615bdf5f615bd9615bee95615b9a615be996615b74615b56615b4f615b4a600b615b4260068990610852565b018590612a1a565b6108fe565b8d90612766565b615b6f600b615b6760068890610852565b018490612a1a565b612732565b615b95615b8086612614565b91600a615b8f60068790610852565b01612a1a565b612732565b615bd2615bbe615bb76007615bb160068690610852565b016108fe565b8b90612766565b6007615bcc60068590610852565b01612732565b6006610852565b016108b9565b612797565b6127af565b6127bb565b9063c58a6ce890839092803b15615c6b57615c1c5f8094615c27615c106102f2565b978896879586946127cb565b84526004840161237a565b03925af18015615c6657615c3a575b5090565b615c59905f3d8111615c5f575b615c518183610a39565b8101906127d1565b5f615c36565b503d615c47565b6127e0565b6127c7565b50505050615c7d5f612614565b90565b615c9b615ca1926004615c955f946006610852565b0161315c565b0161318c565b615cb3615cad5f611215565b91611215565b14615cba57565b5f63528a7d7f60e11b815280615cd26004820161034c565b0390fd5b90615cee600d615ce860068590610852565b01610a9e565b9182615d19575b5050615cfd57565b5f634da20c4960e11b815280615d156004820161034c565b0390fd5b615d2e925090615d2891614346565b156104a9565b5f80615cf5565b615d5c5f615d56615d68946004615d50615d62966006610852565b0161315c565b01614127565b92611249565b91611249565b03615d6f57565b5f631746482760e11b815280615d876004820161034c565b0390fd5b615d936142bb565b50615da5615d9f615e51565b156104a9565b615e4c576020615df091615dc9615dc4615dbf60036108da565b61349a565b6134c5565b615de5638a422539615dd96102f2565b958694859384936127cb565b835260048301611e62565b03915afa8015615e4757615e0c915f91615e19575b50156104a9565b615e14575f90565b600190565b615e3a915060203d8111615e40575b615e328183610a39565b81019061573e565b5f615e05565b503d615e28565b6127e0565b505f90565b615e596142bb565b50615e6460036108da565b615e7e615e78615e735f612a77565b61047a565b9161047a565b141590565b615e8d6040610e44565b90565b90615e9a9061047a565b9052565b90615ec960206001615ecf94615ec15f8201615ebb5f8801615379565b90612aa1565b019201615379565b90612aa1565b565b90615edb91615e9e565b565b90615ee6612331565b5081615f02615efc615ef75f612a77565b61047a565b9161047a565b148015615fea575b615fce57615f2a615f23615f1e60016108fe565b614dc3565b6001612732565b615f6982615f4f83615f46615f3d615e83565b935f8501615e90565b60208301615e90565b615f646004615f5e60016108fe565b906116c1565b615ed1565b615f7360016108fe565b919091615fbe615fac615fa67fb166a7afad190ab7379ee7d8fde41c4308205b7e30a51105411af9e86ebc54ba93610836565b93612125565b93615fb56102f2565b91829182610f15565b0390a3615fcb60016108fe565b90565b5f63e6c4247b60e01b815280615fe66004820161034c565b0390fd5b5080616006616000615ffb5f612a77565b61047a565b9161047a565b14615f0a565b61601690516112bb565b90565b61602390516112ef565b90565b6160309051611249565b90565b61603d9051610384565b90565b61604b610100610e44565b90565b6160589051611215565b90565b60081b90565b9061606e61ff009161605b565b9181191691161790565b61608190611249565b90565b90565b9061609c6160976160a392616078565b616084565b8254616061565b9055565b5190565b601f602091010490565b1b90565b919060086160d49102916160ce5f19846160b5565b926160b5565b9181191691161790565b91906160f46160ef6160fc93610836565b61272f565b9083546160b9565b9055565b6161129161610c612331565b916160de565b565b5b818110616120575050565b8061612d5f600193616100565b01616115565b9190601f8111616143575b505050565b61614f61617493610979565b90602061615b846160ab565b8301931061617c575b61616d906160ab565b0190616114565b5f808061613e565b915061616d81929050616164565b9061619a905f1990600802610ff6565b191690565b816161a99161618a565b906002021790565b906161bb81610ba6565b9067ffffffffffffffff821161627b576161df826161d98554610946565b85616133565b602090601f831160011461621357918091616202935f92616207575b505061619f565b90555b565b90915001515f806161fb565b601f1983169161622285610979565b925f5b81811061626357509160029391856001969410616249575b50505002019055616205565b616259910151601f84169061618a565b90555f808061623d565b91936020600181928787015181550195019201616225565b610a25565b9061628a916161b1565b565b616295906112bb565b90565b90565b906162b06162ab6162b79261628c565b616298565b8254612539565b9055565b6162c4906112ef565b90565b90565b906162df6162da6162e6926162bb565b6162c7565b8254616061565b9055565b906163a960e060056163af9461630d5f82016163075f880161604e565b906131a8565b6163255f820161631f60208801616026565b90616087565b61633e60018201616338604088016160a7565b90616280565b61635760028201616351606088016160a7565b90616280565b6163706003820161636a60808801616033565b90612732565b6163896004820161638360a08801616033565b90612732565b6163a182820161639b60c0880161600c565b9061629b565b019201616019565b906162ca565b565b906163bb916162ea565b565b9260c09498979561641161640661641b936163f861642c9b96616425986163eb60e08c01925f8d0190610b99565b8a820360208c0152610bbe565b9088820360408a0152610bbe565b9a6060870190610681565b6080850190610681565b60a0830190610b99565b0190610b99565b565b9061643b60a0840161600c565b61644d6164475f6112bb565b916112bb565b148015616643575b801561661f575b616603576001835f0161646e90616026565b846020015185604001518660600161648590616033565b8760800161649290616033565b918860a0016164a09061600c565b938960c0016164ae90616019565b956164b7616040565b975f8901906164c5916140ff565b60208801906164d391614134565b60408701906164e191614142565b60608601906164ef91614142565b60808501906164fd91614145565b60a084019061650b91614145565b60c08301906165199161417a565b60e0820190616527916141af565b60068361653391610852565b600401826165409161315c565b9061654a916163b1565b825f0161655690616026565b61655f90611255565b83602001518460400151918560600161657790616033565b958060800161658590616033565b908060a0016165939061600c565b61659c906112c7565b9060c0016165a990616019565b6165b2906112fb565b917f4e825c347ac8f4fb7e20f5ceb169bb090a037ee937a0b7ed7213816671905911966165de90613140565b976165e890610836565b986165f16102f2565b9687966165fe96886163bd565b0390a3565b5f63dbdddc1360e01b81528061661b6004820161034c565b0390fd5b5061662b5f8401616026565b61663d6166375f611249565b91611249565b1461645c565b5061665060c08401616019565b61666261665c5f6112ef565b916112ef565b14616455565b61667190612119565b90565b61667d30616668565b6166af6166a97f000000000000000000000000000000000000000000000000000000000000000061047a565b9161047a565b1480156166d9575b6166bd57565b5f63703e46dd60e11b8152806166d56004820161034c565b0390fd5b506166e2616def565b61671461670e7f000000000000000000000000000000000000000000000000000000000000000061047a565b9161047a565b14156166b7565b50616724615a7f565b565b61672f9061671b565b565b61673a906120fd565b90565b61674690616731565b90565b61675290612119565b90565b90505190616762826135c1565b565b9060208282031261677d5761677a915f01616755565b90565b6102fc565b91906167b0602061679a6167958661673d565b616749565b6352d1902d906167a86102f2565b9384926127cb565b825281806167c06004820161034c565b03915afa80915f92616850575b50155f146168015750509060016167e257505b565b6167fd905f918291634c9c8ce360e01b835260048301610f15565b0390fd5b928361681c616816616811614d4f565b611667565b91611667565b036168315761682c929350616e19565b6167e0565b61684c845f918291632a87526960e21b835260048301611677565b0390fd5b61687291925060203d8111616879575b61686a8183610a39565b810190616764565b905f6167cd565b503d616860565b61688930616668565b6168bb6168b57f000000000000000000000000000000000000000000000000000000000000000061047a565b9161047a565b036168c257565b5f63703e46dd60e11b8152806168da6004820161034c565b0390fd5b90565b906168f4610100600160a81b039161605b565b9181191691161790565b9061691361690e61691a92612125565b612a9e565b82546168e1565b9055565b61693261692d61693792612611565b610833565b61078b565b90565b96959491936169876169bb9461697e616990949761696161695c8d6006610852565b6168de565b985f14616aee5761697660025b5f8b01612bb8565b5f89016168fe565b60018701612aa1565b60028501612732565b61699d3360038501612aa1565b6169b26169a95f61691e565b60058501613f74565b60068301616280565b6169d06169c75f612614565b60078301612732565b6169e56169dc5f612614565b60088301612732565b6169fa6169f15f612614565b60098301612732565b616a0382614d9f565b616a15616a0f5f612614565b91610384565b03616ad0575b616a2482614d9f565b92616a2d612331565b5b80616a41616a3b87610384565b91610384565b1015616ac857616ac390616a6e6001616a69600c8701616a62898690614da3565b519061433a565b61255e565b86616a7a868390614da3565b5190616abb616aa97f75ca7feb69615dcb453a6d1e3c842826e2dd2f0bc6503d89a10c295fd3e5d8c792610836565b92616ab26102f2565b91829182611e62565b0390a2612335565b616a2e565b509350505050565b616ae96001600d616ae360068890610852565b0161255e565b616a1b565b616976600161696e565b5190565b616b10616b0b616b159261078b565b610833565b610384565b90565b67ffffffffffffffff8111616b305760208091020190565b610a25565b90616b47616b4283616b18565b610e44565b918252565b369037565b90616b76616b5e83616b35565b92602080616b6c8693616b18565b9201910390616b4c565b565b90616b8282616af8565b811015616b93576020809102010190565b612344565b90616ba282611961565b811015616bb3576020809102010190565b612344565b90616bc29061078b565b9052565b9190616bd0614d9a565b50616bda81616af8565b616bed616be760ff616afc565b91610384565b11616cb457616bfc60016134a9565b92616c0e616c0983616af8565b616b51565b91616c1881616af8565b93616c21612331565b955b86616c36616c3088610384565b91610384565b1015616caa57616c9e616ca491616c5a8682616c53888d90616b78565b519161642e565b616c836005616c6b60068990610852565b01616c7d616c7882610925565b613f55565b90613f74565b616c9981616c9489918c9092616b98565b616bb8565b613f55565b96612335565b95616c23565b5094505050905090565b5f63a3328e6360e01b815280616ccc6004820161034c565b0390fd5b7ff0c57e16840df040f15088dc2f81fe391c3923bec73e23a9662efc9c229c6a0090565b616cfc616ea2565b565b616d06616cf4565b565b616d10616ea2565b565b616d1a616d08565b565b91906008616d3c910291616d3660018060a01b03846160b5565b926160b5565b9181191691161790565b9190616d5c616d57616d6493612125565b612a9e565b908354616d1c565b9055565b616d7a91616d7461348a565b91616d46565b565b616d9890616d935f80616d8d616dcb565b01616d68565b616ed5565b565b616da261348a565b503390565b7f9016d09d72d40fdae2fd8ceac6b6234c7706214fd39c1cd1e609a0528c19930090565b7f237e158222e3e6968b72b9db0d8043aacf074ad9f650f0d1606b4d82ee432c0090565b616df761348a565b50616e125f616e0c616e07614d4f565b616f41565b016108da565b90565b5190565b90616e2382616f44565b81616e4e7fbc7cd75a20ee27fd9adebab32041f755214dbc6bffa90cc0225b39da2e5c2d3b91612125565b90616e576102f2565b80616e618161034c565b0390a2616e6d81616e15565b616e7f616e795f612614565b91610384565b115f14616e9357616e8f91617014565b505b565b5050616e9d616f99565b616e91565b616eb3616ead617043565b156104a9565b616eb957565b5f631afcd79f60e31b815280616ed16004820161034c565b0390fd5b616edd616da7565b616ef5616eeb5f83016108da565b915f849101612aa1565b90616f29616f237f8be0079c531659141344cd1fd0a4f28419497f9722a3daafe3b4186f6b6457e093612125565b91612125565b91616f326102f2565b80616f3c8161034c565b0390a3565b90565b803b616f58616f525f612614565b91610384565b14616f7a57616f78905f616f72616f6d614d4f565b616f41565b01612aa1565b565b616f95905f918291634c9c8ce360e01b835260048301610f15565b0390fd5b34616fac616fa65f612614565b91610384565b11616fb357565b5f63b398979f60e01b815280616fcb6004820161034c565b0390fd5b606090565b90616fe6616fe18361157c565b610e44565b918252565b3d5f1461700657616ffb3d616fd4565b903d5f602084013e5b565b61700e616fcf565b90617004565b5f8061704093617022616fcf565b508390602081019051915af490617037616feb565b90919091617061565b90565b61704b6142bb565b5061705e5f617058616cd0565b016150a6565b90565b906170759061706e616fcf565b50156104a9565b5f1461708157506170e5565b61708a82616e15565b61709c6170965f612614565b91610384565b14806170ca575b6170ab575090565b6170c6905f918291639996b31560e01b835260048301610f15565b0390fd5b50803b6170df6170d95f612614565b91610384565b146170a3565b6170ee81616e15565b6171006170fa5f612614565b91610384565b115f1461710f57805190602001fd5b5f63d6bda27560e01b8152806171276004820161034c565b0390fdfe610100604052346100855761001b61001561018c565b916101af565b61002361008a565b610cad6101bf823960805181818160c501526105ec015260a051816101b1015260c051818181610263015281816104e601528181610531015281816106e7015281816107810152610875015260e05181818161020a01526107c80152610cad90f35b610090565b60405190565b5f80fd5b601f801991011690565b634e487b7160e01b5f52604160045260245ffd5b906100bc90610094565b810190811060018060401b038211176100d457604052565b61009e565b906100ec6100e561008a565b92836100b2565b565b5f80fd5b90565b6100fe816100f2565b0361010557565b5f80fd5b90505190610116826100f5565b565b60018060a01b031690565b61012c90610118565b90565b61013881610123565b0361013f57565b5f80fd5b905051906101508261012f565b565b90916060828403126101875761018461016d845f8501610109565b9361017b8160208601610143565b93604001610143565b90565b6100ee565b6101aa610e6c8038038061019f816100d9565b928339810190610152565b909192565b60a05260c0523360805260e05256fe60806040526004361015610028575b361561001e5761001c610b11565b005b610026610ad4565b005b6100325f356100a0565b8062821de31461009b57806312065fe0146100965780638ed5b0fc146100915780638fcfd6001461008c5780639d76ea5814610087578063c58a6ce8146100825763ef36442a0361000e57610393565b610332565b610285565b61022c565b6101d3565b61017a565b610120565b60e01c90565b60405190565b5f80fd5b5f80fd5b5f9103126100be57565b6100b0565b7f000000000000000000000000000000000000000000000000000000000000000090565b60018060a01b031690565b6100fb906100e7565b90565b610107906100f2565b9052565b919061011e905f602085019401906100fe565b565b34610150576101303660046100b4565b61014c61013b6100c3565b6101436100a6565b9182918261010b565b0390f35b6100ac565b90565b61016190610155565b9052565b9190610178905f60208501940190610158565b565b346101aa5761018a3660046100b4565b6101a66101956104db565b61019d6100a6565b91829182610165565b0390f35b6100ac565b7f000000000000000000000000000000000000000000000000000000000000000090565b34610203576101e33660046100b4565b6101ff6101ee6101af565b6101f66100a6565b91829182610165565b0390f35b6100ac565b7f000000000000000000000000000000000000000000000000000000000000000090565b3461025c5761023c3660046100b4565b610258610247610208565b61024f6100a6565b9182918261010b565b0390f35b6100ac565b7f000000000000000000000000000000000000000000000000000000000000000090565b346102b5576102953660046100b4565b6102b16102a0610261565b6102a86100a6565b9182918261010b565b0390f35b6100ac565b6102c381610155565b036102ca57565b5f80fd5b905035906102db826102ba565b565b6102e6816100f2565b036102ed57565b5f80fd5b905035906102fe826102dd565b565b9190604083820312610328578061031c610325925f86016102ce565b936020016102f1565b90565b6100b0565b5f0190565b346103615761034b610345366004610300565b906107b2565b6103536100a6565b8061035d8161032d565b0390f35b6100ac565b919060408382031261038e578061038261038b925f86016102f1565b936020016102f1565b90565b6100b0565b346103c2576103ac6103a6366004610366565b90610aa5565b6103b46100a6565b806103be8161032d565b0390f35b6100ac565b5f90565b90565b90565b6103e56103e06103ea926103cb565b6103ce565b6100e7565b90565b6103f6906103d1565b90565b61040d610408610412926100e7565b6103ce565b6100e7565b90565b61041e906103f9565b90565b61042a90610415565b90565b610436906103f9565b90565b6104429061042d565b90565b61044e90610415565b90565b601f801991011690565b634e487b7160e01b5f52604160045260245ffd5b9061047990610451565b810190811067ffffffffffffffff82111761049357604052565b61045b565b60e01b90565b905051906104ab826102ba565b565b906020828203126104c6576104c3915f0161049e565b90565b6100b0565b6104d36100a6565b3d5f823e3d90fd5b6104e36103c7565b507f000000000000000000000000000000000000000000000000000000000000000061051f6105196105145f6103ed565b6100f2565b916100f2565b146105d55761058c602061055a6105557f0000000000000000000000000000000000000000000000000000000000000000610439565b610445565b6370a082319061058161056c30610421565b926105756100a6565b95869485938493610498565b83526004830161010b565b03915afa9081156105d0575f916105a2575b5090565b6105c3915060203d81116105c9575b6105bb818361046f565b8101906104ad565b5f61059e565b503d6105b1565b6104cb565b6105de30610421565b3190565b90336106166106107f00000000000000000000000000000000000000000000000000000000000000006100f2565b916100f2565b0361062657610624916106e4565b565b5f636b6aa58960e11b81528061063e6004820161032d565b0390fd5b905090565b6106525f8092610642565b0190565b61065f90610647565b90565b9061067561066e6100a6565b928361046f565b565b67ffffffffffffffff811161069557610691602091610451565b0190565b61045b565b906106ac6106a783610677565b610662565b918252565b606090565b3d5f146106d1576106c63d61069a565b903d5f602084013e5b565b6106d96106b1565b906106cf565b151590565b907f000000000000000000000000000000000000000000000000000000000000000061072061071a6107155f6103ed565b6100f2565b916100f2565b145f14610778575f610755928192906107376100a6565b908161074281610656565b03925af161074e6106b6565b50156106df565b61075c575b565b5f6312171d8360e31b8152806107746004820161032d565b0390fd5b6107ad916107a57f0000000000000000000000000000000000000000000000000000000000000000610439565b919091610b7f565b61075a565b906107bc916105e2565b565b90336107f26107ec7f00000000000000000000000000000000000000000000000000000000000000006100f2565b916100f2565b03610802576108009161086c565b565b5f63284e9ce760e01b81528061081a6004820161032d565b0390fd5b61083261082d610837926103cb565b6103ce565b610155565b90565b60409061086361086a949695939661085960608401985f8501906100fe565b60208301906100fe565b0190610158565b565b8061089f6108997f00000000000000000000000000000000000000000000000000000000000000006100f2565b916100f2565b14610a8957806108bf6108b96108b45f6103ed565b6100f2565b916100f2565b145f14610981576108cf30610421565b3190816108e46108de5f61081e565b91610155565b036108f0575b5050505b565b61091d5f8085856108ff6100a6565b908161090a81610656565b03925af16109166106b6565b50156106df565b6109655791909161095a7feca1cfd23c6f080235ae1c1da0631d6ee86ebe28476dbe0837ef8d5d24d4a11e936109516100a6565b9384938461083a565b0390a15f80806108ea565b5f6312171d8360e31b81528061097d6004820161032d565b0390fd5b6109c9602061099761099284610439565b610445565b6370a08231906109be6109a930610421565b926109b26100a6565b95869485938493610498565b83526004830161010b565b03915afa908115610a84575f91610a56575b5090816109f06109ea5f61081e565b91610155565b036109fe575b5050506108ee565b610a12610a0a82610439565b848491610b7f565b919091610a4b7feca1cfd23c6f080235ae1c1da0631d6ee86ebe28476dbe0837ef8d5d24d4a11e93610a426100a6565b9384938461083a565b0390a15f80806109f6565b610a77915060203d8111610a7d575b610a6f818361046f565b8101906104ad565b5f6109db565b503d610a65565b6104cb565b5f6372c8333160e01b815280610aa16004820161032d565b0390fd5b90610aaf916107be565b565b916020610ad2929493610acb60408201965f8301906100fe565b0190610158565b565b33347fe41f1d3d870a239e6ea9389a547a1330e815f2d008cdca3f571a906ad72bfd8f91610b0c610b036100a6565b92839283610ab1565b0390a1565b33347fe41f1d3d870a239e6ea9389a547a1330e815f2d008cdca3f571a906ad72bfd8f91610b49610b406100a6565b92839283610ab1565b0390a1565b63ffffffff1690565b63ffffffff60e01b1690565b610b77610b72610b7c92610b4e565b610498565b610b57565b90565b90610bc6610bcb93610bb760049493610b9e63a9059cbb919391610b63565b92610ba76100a6565b9687946020860190815201610ab1565b6020820181038252038361046f565b610bec565b565b90565b610be4610bdf610be992610bcd565b6103ce565b610155565b90565b905f602091610bf96103c7565b50610c026103c7565b50828151910182855af115610c95573d5f5190610c27610c215f61081e565b91610155565b145f14610c7b5750610c3881610445565b3b610c4b610c455f61081e565b91610155565b145b610c545750565b610c60610c7791610445565b5f918291635274afe760e01b83526004830161010b565b0390fd5b610c8e610c886001610bd0565b91610155565b1415610c4d565b6040513d5f823e3d90fdfea164736f6c634300081d000aa164736f6c634300081d000a","linkReferences":{}},"methodIdentifiers":{"MAX_PROTOCOL_FEE()":"b8ca3b83","PROTOCOL_FEE_PRECISION()":"d5bf7f9a","UPGRADE_INTERFACE_VERSION()":"ad3cb1cc","acceptOwnership()":"79ba5097","addAllowedPublisherRefCode(uint256,string)":"c43682ab","addConversionConfig(uint256,(uint8,string,string,uint256,uint256,uint8,uint8))":"3c8edeb6","allowedTokenAddresses(address)":"ea7a2517","attributeOffchainEvents(uint256,(uint8,bytes16,address,uint256,uint8,string,string,uint32)[])":"4b79ed64","attributeOnchainEvents(uint256,(uint8,bytes16,address,uint256,uint8,string,string,address,uint32,bytes32,uint256,uint256)[])":"1d1be404","attributionProviders(uint256)":"562569dd","calculateProtocolFeeAmount(uint256)":"2872b4f1","campaigns(uint256)":"141961bc","claimProtocolFees(uint256[])":"0570490d","claimRewards(uint256[],address)":"0520537f","createCampaign(address,uint256,bool,string,(uint8,string,string,uint256,uint256,uint8,uint8)[],string[])":"5e6cdfab","deactivateConversionConfig(uint256,uint8)":"1268cf84","getAvailableProtocolFees(uint256)":"37067568","getCampaignTotalBalance(uint256)":"1f640291","getCampaignTotalFunded(uint256)":"2925edc0","getConversionConfig(uint256,uint8)":"3f9d90e1","getPublisherPayoutAddress(string)":"31f86f1b","getRecipientBalance(uint256,address)":"061b3354","getRecipientClaimed(uint256,address)":"f0bf26b6","initialize(address,address,address[],(address,address)[],address)":"631651c4","isPublisherRefCodeAllowed(uint256,string)":"455894da","nextAttributionProviderId()":"39fd02cb","nextCampaignId()":"7903a756","owner()":"8da5cb5b","pendingOwner()":"e30c3978","protocolFee()":"b0e21e8a","proxiableUUID()":"52d1902d","publisherRegistryAddress()":"7373c241","pushRewards(uint256,address[])":"02db9ca4","registerAttributionProvider(address)":"32e8faa1","renounceOwnership()":"715018a6","transferOwnership(address)":"f2fde38b","treasuryAddress()":"c5f956af","updateAllowedTokenAddress(address,bool)":"03f49f52","updateAttributionProviderSigner(uint256,address)":"08426083","updateCampaignStatus(uint256,uint8)":"10eb6d50","updateProtocolFee(uint16)":"020624d2","updatePublisherRegistryAddress(address)":"db73656c","updateTreasuryAddress(address)":"841e4561","upgradeToAndCall(address,bytes)":"4f1ef286","withdrawRemainingBalance(uint256,address)":"46730410"},"id":23}