{"abi":[{"type":"constructor","inputs":[],"stateMutability":"nonpayable"},{"type":"function","name":"UPGRADE_INTERFACE_VERSION","inputs":[],"outputs":[{"name":"","type":"string","internalType":"string"}],"stateMutability":"view"},{"type":"function","name":"acceptOwnership","inputs":[],"outputs":[],"stateMutability":"nonpayable"},{"type":"function","name":"getPublisherDefaultPayoutAddress","inputs":[{"name":"_refCode","type":"string","internalType":"string"}],"outputs":[{"name":"","type":"address","internalType":"address"}],"stateMutability":"view"},{"type":"function","name":"getPublisherOverridePayout","inputs":[{"name":"_refCode","type":"string","internalType":"string"},{"name":"_chainId","type":"uint256","internalType":"uint256"}],"outputs":[{"name":"","type":"address","internalType":"address"}],"stateMutability":"view"},{"type":"function","name":"getPublisherPayoutAddress","inputs":[{"name":"_refCode","type":"string","internalType":"string"},{"name":"_chainId","type":"uint256","internalType":"uint256"}],"outputs":[{"name":"","type":"address","internalType":"address"}],"stateMutability":"view"},{"type":"function","name":"getRefCode","inputs":[{"name":"_publisherNonce","type":"uint256","internalType":"uint256"}],"outputs":[{"name":"","type":"string","internalType":"string"}],"stateMutability":"pure"},{"type":"function","name":"initialize","inputs":[{"name":"_owner","type":"address","internalType":"address"},{"name":"_signerAddress","type":"address","internalType":"address"}],"outputs":[],"stateMutability":"nonpayable"},{"type":"function","name":"nextPublisherNonce","inputs":[],"outputs":[{"name":"","type":"uint256","internalType":"uint256"}],"stateMutability":"view"},{"type":"function","name":"owner","inputs":[],"outputs":[{"name":"","type":"address","internalType":"address"}],"stateMutability":"view"},{"type":"function","name":"pendingOwner","inputs":[],"outputs":[{"name":"","type":"address","internalType":"address"}],"stateMutability":"view"},{"type":"function","name":"proxiableUUID","inputs":[],"outputs":[{"name":"","type":"bytes32","internalType":"bytes32"}],"stateMutability":"view"},{"type":"function","name":"publisherExists","inputs":[{"name":"_refCode","type":"string","internalType":"string"}],"outputs":[{"name":"","type":"bool","internalType":"bool"}],"stateMutability":"view"},{"type":"function","name":"publishers","inputs":[{"name":"refCode","type":"string","internalType":"string"}],"outputs":[{"name":"owner","type":"address","internalType":"address"},{"name":"metadataUrl","type":"string","internalType":"string"},{"name":"defaultPayout","type":"address","internalType":"address"}],"stateMutability":"view"},{"type":"function","name":"registerPublisher","inputs":[{"name":"_metadataUrl","type":"string","internalType":"string"},{"name":"_defaultPayout","type":"address","internalType":"address"},{"name":"_overridePayouts","type":"tuple[]","internalType":"struct FlywheelPublisherRegistry.OverridePublisherPayout[]","components":[{"name":"chainId","type":"uint256","internalType":"uint256"},{"name":"payoutAddress","type":"address","internalType":"address"}]}],"outputs":[{"name":"","type":"string","internalType":"string"},{"name":"","type":"uint256","internalType":"uint256"}],"stateMutability":"nonpayable"},{"type":"function","name":"registerPublisherCustom","inputs":[{"name":"_refCode","type":"string","internalType":"string"},{"name":"_publisherOwner","type":"address","internalType":"address"},{"name":"_metadataUrl","type":"string","internalType":"string"},{"name":"_defaultPayout","type":"address","internalType":"address"},{"name":"_overridePayouts","type":"tuple[]","internalType":"struct FlywheelPublisherRegistry.OverridePublisherPayout[]","components":[{"name":"chainId","type":"uint256","internalType":"uint256"},{"name":"payoutAddress","type":"address","internalType":"address"}]}],"outputs":[],"stateMutability":"nonpayable"},{"type":"function","name":"renounceOwnership","inputs":[],"outputs":[],"stateMutability":"pure"},{"type":"function","name":"signerAddress","inputs":[],"outputs":[{"name":"","type":"address","internalType":"address"}],"stateMutability":"view"},{"type":"function","name":"transferOwnership","inputs":[{"name":"newOwner","type":"address","internalType":"address"}],"outputs":[],"stateMutability":"nonpayable"},{"type":"function","name":"updateMetadataUrl","inputs":[{"name":"_refCode","type":"string","internalType":"string"},{"name":"_metadataUrl","type":"string","internalType":"string"}],"outputs":[],"stateMutability":"nonpayable"},{"type":"function","name":"updatePublisherDefaultPayout","inputs":[{"name":"_refCode","type":"string","internalType":"string"},{"name":"_newDefaultPayoutAddress","type":"address","internalType":"address"}],"outputs":[],"stateMutability":"nonpayable"},{"type":"function","name":"updatePublisherOverridePayout","inputs":[{"name":"_refCode","type":"string","internalType":"string"},{"name":"_chainId","type":"uint256","internalType":"uint256"},{"name":"_newPayoutAddress","type":"address","internalType":"address"}],"outputs":[],"stateMutability":"nonpayable"},{"type":"function","name":"updatePublisherOwner","inputs":[{"name":"_refCode","type":"string","internalType":"string"},{"name":"_newOwner","type":"address","internalType":"address"}],"outputs":[],"stateMutability":"nonpayable"},{"type":"function","name":"updateSignerAddress","inputs":[{"name":"_newSignerAddress","type":"address","internalType":"address"}],"outputs":[],"stateMutability":"nonpayable"},{"type":"function","name":"upgradeToAndCall","inputs":[{"name":"newImplementation","type":"address","internalType":"address"},{"name":"data","type":"bytes","internalType":"bytes"}],"outputs":[],"stateMutability":"payable"},{"type":"event","name":"Initialized","inputs":[{"name":"version","type":"uint64","indexed":false,"internalType":"uint64"}],"anonymous":false},{"type":"event","name":"OwnershipTransferStarted","inputs":[{"name":"previousOwner","type":"address","indexed":true,"internalType":"address"},{"name":"newOwner","type":"address","indexed":true,"internalType":"address"}],"anonymous":false},{"type":"event","name":"OwnershipTransferred","inputs":[{"name":"previousOwner","type":"address","indexed":true,"internalType":"address"},{"name":"newOwner","type":"address","indexed":true,"internalType":"address"}],"anonymous":false},{"type":"event","name":"PublisherRegistered","inputs":[{"name":"owner","type":"address","indexed":true,"internalType":"address"},{"name":"defaultPayout","type":"address","indexed":true,"internalType":"address"},{"name":"refCode","type":"string","indexed":false,"internalType":"string"},{"name":"metadataUrl","type":"string","indexed":false,"internalType":"string"},{"name":"isCustom","type":"bool","indexed":false,"internalType":"bool"}],"anonymous":false},{"type":"event","name":"UpdateMetadataUrl","inputs":[{"name":"refCode","type":"string","indexed":false,"internalType":"string"},{"name":"metadataUrl","type":"string","indexed":false,"internalType":"string"}],"anonymous":false},{"type":"event","name":"UpdatePublisherChainPayoutAddress","inputs":[{"name":"refCode","type":"string","indexed":false,"internalType":"string"},{"name":"chainId","type":"uint256","indexed":false,"internalType":"uint256"},{"name":"payoutAddress","type":"address","indexed":false,"internalType":"address"}],"anonymous":false},{"type":"event","name":"UpdatePublisherDefaultPayoutAddress","inputs":[{"name":"refCode","type":"string","indexed":false,"internalType":"string"},{"name":"payoutAddress","type":"address","indexed":false,"internalType":"address"}],"anonymous":false},{"type":"event","name":"UpdateSignerAddress","inputs":[{"name":"signerAddress","type":"address","indexed":true,"internalType":"address"}],"anonymous":false},{"type":"event","name":"UpdatedPublisherOwner","inputs":[{"name":"refCode","type":"string","indexed":false,"internalType":"string"},{"name":"newOwner","type":"address","indexed":false,"internalType":"address"}],"anonymous":false},{"type":"event","name":"Upgraded","inputs":[{"name":"implementation","type":"address","indexed":true,"internalType":"address"}],"anonymous":false},{"type":"error","name":"AddressEmptyCode","inputs":[{"name":"target","type":"address","internalType":"address"}]},{"type":"error","name":"ERC1967InvalidImplementation","inputs":[{"name":"implementation","type":"address","internalType":"address"}]},{"type":"error","name":"ERC1967NonPayable","inputs":[]},{"type":"error","name":"FailedCall","inputs":[]},{"type":"error","name":"InvalidAddress","inputs":[]},{"type":"error","name":"InvalidInitialization","inputs":[]},{"type":"error","name":"NotInitializing","inputs":[]},{"type":"error","name":"OwnableInvalidOwner","inputs":[{"name":"owner","type":"address","internalType":"address"}]},{"type":"error","name":"OwnableUnauthorizedAccount","inputs":[{"name":"account","type":"address","internalType":"address"}]},{"type":"error","name":"OwnershipRenunciationDisabled","inputs":[]},{"type":"error","name":"RefCodeAlreadyTaken","inputs":[]},{"type":"error","name":"UUPSUnauthorizedCallContext","inputs":[]},{"type":"error","name":"UUPSUnsupportedProxiableUUID","inputs":[{"name":"slot","type":"bytes32","internalType":"bytes32"}]},{"type":"error","name":"Unauthorized","inputs":[]}],"bytecode":{"object":"0x60a06040523461003e576100116100b0565b610019610043565b612d4c6102ff82396080518181816126310152818161269601526128570152612d4c90f35b610049565b60405190565b5f80fd5b5f1b90565b9061005e5f199161004d565b9181191691161790565b90565b90565b90565b61008561008061008a92610068565b61006e565b61006b565b90565b90565b906100a56100a06100ac92610071565b61008d565b8254610052565b9055565b6100b86100cd565b6100c360015f610090565b6100cb610222565b565b6100d56100d7565b565b6100df6100e1565b565b6100e961012a565b565b60018060a01b031690565b61010a61010561010f926100eb565b61006e565b6100eb565b90565b61011b906100f6565b90565b61012790610112565b90565b6101333061011e565b608052565b60401c90565b60ff1690565b61015061015591610138565b61013e565b90565b6101629054610144565b90565b5f0190565b5f1c90565b60018060401b031690565b61018661018b9161016a565b61016f565b90565b610198905461017a565b90565b60018060401b031690565b906101b760018060401b039161004d565b9181191691161790565b6101d56101d06101da9261019b565b61006e565b61019b565b90565b90565b906101f56101f06101fc926101c1565b6101dd565b82546101a6565b9055565b6102099061019b565b9052565b9190610220905f60208501940190610200565b565b61022a6102da565b6102355f8201610158565b6102be576102445f820161018e565b61025c61025660018060401b0361019b565b9161019b565b03610265575b50565b610278905f60018060401b0391016101e0565b60018060401b036102b57fc7f505b2f371ae2175ee4913f4499e1f2633a7b5936321eed1cdaeb6115181d2916102ac610043565b9182918261020d565b0390a15f610262565b5f63f92ee8a960e01b8152806102d660048201610165565b0390fd5b7ff0c57e16840df040f15088dc2f81fe391c3923bec73e23a9662efc9c229c6a009056fe60806040526004361015610013575b61108c565b61001d5f3561019c565b80633a06252a14610197578063485cc955146101925780634f1ef2861461018d57806352d1902d146101885780635b7633d0146101835780635e5b29821461017e5780635e8d756014610179578063715018a61461017457806375e9a2ad1461016f57806379ba50971461016a5780637a8e66c0146101655780638a422539146101605780638da5cb5b1461015b5780638fa2a9f01461015657806397898b7114610151578063a0f1f8041461014c578063a3c7a1cd14610147578063ad3cb1cc14610142578063b7a9b36d1461013d578063bc52a37a14610138578063e30c397814610133578063e61a5d4b1461012e578063f2fde38b146101295763fba8ddf70361000e57611058565b611025565b610ff1565b610f5f565b610f27565b610cd3565b610c9e565b610bef565b610b2a565b610af5565b610a43565b6109f0565b6109bb565b61092a565b61089e565b610867565b6106ce565b61069a565b610614565b61059a565b610521565b6104c3565b6103ce565b610343565b60e01c90565b60405190565b5f80fd5b5f80fd5b5f80fd5b5f80fd5b5f80fd5b601f801991011690565b634e487b7160e01b5f52604160045260245ffd5b906101e4906101bc565b810190811067ffffffffffffffff8211176101fe57604052565b6101c6565b9061021661020f6101a2565b92836101da565b565b67ffffffffffffffff8111610236576102326020916101bc565b0190565b6101c6565b90825f939282370152565b9092919261025b61025682610218565b610203565b93818552602085019082840111610277576102759261023b565b565b6101b8565b9080601f8301121561029a5781602061029793359101610246565b90565b6101b4565b90565b6102ab8161029f565b036102b257565b5f80fd5b905035906102c3826102a2565b565b9190604083820312610305575f8301359067ffffffffffffffff8211610300576102f4816102fd93860161027c565b936020016102b6565b90565b6101b0565b6101ac565b60018060a01b031690565b61031e9061030a565b90565b61032a90610315565b9052565b9190610341905f60208501940190610321565b565b346103745761037061035f6103593660046102c5565b906110f4565b6103676101a2565b9182918261032e565b0390f35b6101a8565b61038281610315565b0361038957565b5f80fd5b9050359061039a82610379565b565b91906040838203126103c457806103b86103c1925f860161038d565b9360200161038d565b90565b6101ac565b5f0190565b346103fd576103e76103e136600461039c565b906115ba565b6103ef6101a2565b806103f9816103c9565b0390f35b6101a8565b67ffffffffffffffff81116104205761041c6020916101bc565b0190565b6101c6565b9092919261043a61043582610402565b610203565b93818552602085019082840111610456576104549261023b565b565b6101b8565b9080601f830112156104795781602061047693359101610425565b90565b6101b4565b9190916040818403126104be57610497835f830161038d565b92602082013567ffffffffffffffff81116104b9576104b6920161045b565b90565b6101b0565b6101ac565b6104d76104d136600461047e565b906115ef565b6104df6101a2565b806104e9816103c9565b0390f35b5f9103126104f757565b6101ac565b90565b610508906104fc565b9052565b919061051f905f602085019401906104ff565b565b34610551576105313660046104ed565b61054d61053c61166a565b6105446101a2565b9182918261050c565b0390f35b6101a8565b1c90565b60018060a01b031690565b61057590600861057a9302610556565b61055a565b90565b906105889154610565565b90565b61059760015f9061057d565b90565b346105ca576105aa3660046104ed565b6105c66105b561058b565b6105bd6101a2565b9182918261032e565b0390f35b6101a8565b919060408382031261060f575f8301359067ffffffffffffffff821161060a576105fe8161060793860161027c565b9360200161038d565b90565b6101b0565b6101ac565b346106435761062d6106273660046105cf565b90611749565b6106356101a2565b8061063f816103c9565b0390f35b6101a8565b9091606082840312610695575f82013567ffffffffffffffff8111610690576106768461068d92850161027c565b9361068481602086016102b6565b9360400161038d565b90565b6101b0565b6101ac565b346106c9576106b36106ad366004610648565b91611841565b6106bb6101a2565b806106c5816103c9565b0390f35b6101a8565b346106e3576106de3660046104ed565b61184e565b6101a8565b67ffffffffffffffff81116107005760208091020190565b6101c6565b5f80fd5b5f80fd5b919060408382031261074757610740906107276040610203565b93610734825f83016102b6565b5f86015260200161038d565b6020830152565b610709565b9092919261076161075c826106e8565b610203565b9381855260406020860192028301928184116107a057915b8383106107865750505050565b6020604091610795848661070d565b815201920191610779565b610705565b9080601f830112156107c3578160206107c09335910161074c565b90565b6101b4565b91909160a081840312610862575f81013567ffffffffffffffff811161085d57836107f491830161027c565b92610802816020840161038d565b92604083013567ffffffffffffffff8111610858578261082391850161027c565b92610831836060830161038d565b92608082013567ffffffffffffffff81116108535761085092016107a5565b90565b6101b0565b6101b0565b6101b0565b6101ac565b346108995761088361087a3660046107c8565b93929092611cf4565b61088b6101a2565b80610895816103c9565b0390f35b6101a8565b346108cc576108ae3660046104ed565b6108b6611d03565b6108be6101a2565b806108c8816103c9565b0390f35b6101a8565b90565b6108e49060086108e99302610556565b6108d1565b90565b906108f791546108d4565b90565b6109055f5f906108ec565b90565b6109119061029f565b9052565b9190610928905f60208501940190610908565b565b3461095a5761093a3660046104ed565b6109566109456108fa565b61094d6101a2565b91829182610915565b0390f35b6101a8565b9060208282031261098f575f82013567ffffffffffffffff811161098a57610987920161027c565b90565b6101b0565b6101ac565b151590565b6109a290610994565b9052565b91906109b9905f60208501940190610999565b565b346109eb576109e76109d66109d136600461095f565b611d58565b6109de6101a2565b918291826109a6565b0390f35b6101a8565b34610a2057610a003660046104ed565b610a1c610a0b611d95565b610a136101a2565b9182918261032e565b0390f35b6101a8565b90602082820312610a3e57610a3b915f0161038d565b90565b6101ac565b34610a7157610a5b610a56366004610a25565b611e13565b610a636101a2565b80610a6d816103c9565b0390f35b6101a8565b90602082820312610a8f57610a8c915f016102b6565b90565b6101ac565b5190565b60209181520190565b90825f9392825e0152565b610acb610ad4602093610ad993610ac281610a94565b93848093610a98565b95869101610aa1565b6101bc565b0190565b610af29160208201915f818403910152610aac565b90565b34610b2557610b21610b10610b0b366004610a76565b611ff6565b610b186101a2565b91829182610add565b0390f35b6101a8565b34610b5b57610b57610b46610b403660046102c5565b906120f3565b610b4e6101a2565b9182918261032e565b0390f35b6101a8565b91606083830312610bc4575f83013567ffffffffffffffff8111610bbf5782610b8a91850161027c565b92610b98836020830161038d565b92604082013567ffffffffffffffff8111610bba57610bb792016107a5565b90565b6101b0565b6101b0565b6101ac565b92916020610be5610bed9360408701908782035f890152610aac565b940190610908565b565b34610c2157610c08610c02366004610b60565b9161213f565b90610c1d610c146101a2565b92839283610bc9565b0390f35b6101a8565b90610c38610c3383610218565b610203565b918252565b5f7f352e302e30000000000000000000000000000000000000000000000000000000910152565b610c6e6005610c26565b90610c7b60208301610c3d565b565b610c85610c64565b90565b610c90610c7d565b90565b610c9b610c88565b90565b34610cce57610cae3660046104ed565b610cca610cb9610c93565b610cc16101a2565b91829182610add565b0390f35b6101a8565b34610d0357610cff610cee610ce936600461095f565b6122f5565b610cf66101a2565b9182918261032e565b0390f35b6101a8565b905090565b610d32610d2992602092610d2081610a94565b94858093610d08565b93849101610aa1565b0190565b90565b610d45610d4a9161029f565b610d36565b9052565b610d5e610d659160209493610d0d565b8092610d39565b0190565b610d7d610d746101a2565b92839283610d4e565b03902090565b610d8c91610d69565b90565b5f1c90565b610da0610da591610d8f565b61055a565b90565b610db29054610d94565b90565b634e487b7160e01b5f52602260045260245ffd5b9060016002830492168015610de9575b6020831014610de457565b610db5565b91607f1691610dd9565b60209181520190565b5f5260205f2090565b905f9291805490610e1f610e1883610dc9565b8094610df3565b916001811690815f14610e765750600114610e3a575b505050565b610e479192939450610dfc565b915f925b818410610e5e57505001905f8080610e35565b60018160209295939554848601520191019290610e4b565b92949550505060ff19168252151560200201905f8080610e35565b90610e9b91610e05565b90565b90610ebe610eb792610eae6101a2565b93848092610e91565b03836101da565b565b610ecb906002610d83565b610ed65f8201610da8565b91610eef6002610ee860018501610e9e565b9301610da8565b90565b939290610f1d604091610f2594610f1060608901925f8a0190610321565b8782036020890152610aac565b940190610321565b565b34610f5a57610f56610f42610f3d36600461095f565b610ec0565b610f4d9391936101a2565b93849384610ef2565b0390f35b6101a8565b34610f8f57610f6f3660046104ed565b610f8b610f7a612316565b610f826101a2565b9182918261032e565b0390f35b6101a8565b919091604081840312610fec575f81013567ffffffffffffffff8111610fe75783610fc091830161027c565b92602082013567ffffffffffffffff8111610fe257610fdf920161027c565b90565b6101b0565b6101b0565b6101ac565b346110205761100a611004366004610f94565b90612406565b6110126101a2565b8061101c816103c9565b0390f35b6101a8565b346110535761103d611038366004610a25565b61248d565b6110456101a2565b8061104f816103c9565b0390f35b6101a8565b346110875761107161106b3660046105cf565b9061253e565b6110796101a2565b80611083816103c9565b0390f35b6101a8565b5f80fd5b5f90565b90565b6110ab6110a66110b09261029f565b611094565b61029f565b90565b906110bd90611097565b5f5260205260405f2090565b90565b6110e06110db6110e5926110c9565b611094565b61030a565b90565b6110f1906110cc565b90565b906110fd611090565b5061111f61111a600361111260028690610d83565b0183906110b3565b610da8565b61113961113361112e5f6110e8565b610315565b91610315565b14155f146111645761115b906003611155611160946002610d83565b016110b3565b610da8565b5b90565b50600261117461117a9282610d83565b01610da8565b611161565b60401c90565b60ff1690565b61119761119c9161117f565b611185565b90565b6111a9905461118b565b90565b67ffffffffffffffff1690565b6111c56111ca91610d8f565b6111ac565b90565b6111d790546111b9565b90565b67ffffffffffffffff1690565b6111fb6111f6611200926110c9565b611094565b6111da565b90565b90565b61121a61121561121f92611203565b611094565b6111da565b90565b61123661123161123b9261030a565b611094565b61030a565b90565b61124790611222565b90565b6112539061123e565b90565b61126a61126561126f926110c9565b611094565b61029f565b90565b5f1b90565b9061128a67ffffffffffffffff91611272565b9181191691161790565b6112a86112a36112ad926111da565b611094565b6111da565b90565b90565b906112c86112c36112cf92611294565b6112b0565b8254611277565b9055565b60401b90565b906112ed68ff0000000000000000916112d3565b9181191691161790565b61130090610994565b90565b90565b9061131b611316611322926112f7565b611303565b82546112d9565b9055565b61132f90611206565b9052565b9190611346905f60208501940190611326565b565b9061135161254a565b916113666113605f850161119f565b15610994565b916113725f85016111cd565b8061138561137f5f6111e7565b916111da565b148061149f575b906113a061139a6001611206565b916111da565b1480611477575b6113b2909115610994565b9081611466575b5061144a576113e2916113d76113cf6001611206565b5f87016112b3565b83611438575b6114f0565b6113ea575b50565b6113f7905f809101611306565b600161142f7fc7f505b2f371ae2175ee4913f4499e1f2633a7b5936321eed1cdaeb6115181d2916114266101a2565b91829182611333565b0390a15f6113e7565b61144560015f8701611306565b6113dd565b5f63f92ee8a960e01b815280611462600482016103c9565b0390fd5b611471915015610994565b5f6113b9565b506113b26114843061124a565b3b6114976114915f611256565b9161029f565b1490506113a7565b508361138c565b906114b760018060a01b0391611272565b9181191691161790565b6114ca9061123e565b90565b90565b906114e56114e06114ec926114c1565b6114cd565b82546114a6565b9055565b8061150b6115056115005f6110e8565b610315565b91610315565b1461159e576115219061151c612578565b6125e2565b61152961260a565b6115348160016114d0565b8061154f6115496115445f6110e8565b610315565b91610315565b03611558575b50565b6115827fb1eaa9e0c36ddeb88436603e9f708e2f3f0c9470d8ad2f49697d48133e753d1f916114c1565b9061158b6101a2565b80611595816103c9565b0390a25f611555565b5f63e6c4247b60e01b8152806115b6600482016103c9565b0390fd5b906115c491611348565b565b906115d8916115d3612620565b6115da565b565b906115ed916115e8816126d2565b612748565b565b906115f9916115c6565b565b5f90565b6116109061160b612846565b61165e565b90565b90565b61162a61162561162f92611613565b611272565b6104fc565b90565b61165b7f360894a13ba1a3210667c828492db98dca3e2076cc3735a920a3ca505d382bbc611616565b90565b50611667611632565b90565b61167a6116756115fb565b6115ff565b90565b906116935f61168d846002610d83565b01610da8565b6116a561169f33610315565b91610315565b036116b5576116b3916116f6565b565b5f6282b42960e81b8152806116cc600482016103c9565b0390fd5b929160206116ec6116f49360408701908782035f890152610aac565b940190610321565b565b61170d826002611707818590610d83565b016114d0565b907fc63fe0686b9ceddd5d4c6257e981d6cc5d0e41145b8b3374b0453b0d795712319161174461173b6101a2565b928392836116d0565b0390a1565b906117539161167d565b565b919061176c5f611766856002610d83565b01610da8565b61177e61177833610315565b91610315565b0361178e5761178c926117de565b565b5f6282b42960e81b8152806117a5600482016103c9565b0390fd5b6040906117d56117ca6117dc9597969460608401908482035f860152610aac565b966020830190610908565b0190610321565b565b919091611803826117fe60036117f660028690610d83565b0186906110b3565b6114d0565b91909161183c7ff08b655242290bffb21ff7f7a0c95a81d95ca47100952442e823fbc1ec6220c1936118336101a2565b938493846117a9565b0390a1565b9061184c9291611755565b565b5f6310e83c2760e21b815280611866600482016103c9565b0390fd5b939291903361188861188261187d611d95565b610315565b91610315565b146118b0336118a86118a261189d6001610da8565b610315565b91610315565b149115610994565b90816118e2575b506118c7576118c594611b75565b565b5f6282b42960e81b8152806118de600482016103c9565b0390fd5b6118ed915015610994565b5f6118b7565b601f602091010490565b1b90565b9190600861191c9102916119165f19846118fd565b926118fd565b9181191691161790565b90565b919061193f61193a61194793611097565b611926565b908354611901565b9055565b5f90565b6119619161195b61194b565b91611929565b565b5b81811061196f575050565b8061197c5f60019361194f565b01611964565b9190601f8111611992575b505050565b61199e6119c393610dfc565b9060206119aa846118f3565b830193106119cb575b6119bc906118f3565b0190611963565b5f808061198d565b91506119bc819290506119b3565b906119e9905f1990600802610556565b191690565b816119f8916119d9565b906002021790565b90611a0a81610a94565b9067ffffffffffffffff8211611aca57611a2e82611a288554610dc9565b85611982565b602090601f8311600114611a6257918091611a51935f92611a56575b50506119ee565b90555b565b90915001515f80611a4a565b601f19831691611a7185610dfc565b925f5b818110611ab257509160029391856001969410611a98575b50505002019055611a54565b611aa8910151601f8416906119d9565b90555f8080611a8c565b91936020600181928787015181550195019201611a74565b6101c6565b90611ad991611a00565b565b5190565b6001611aeb910161029f565b90565b634e487b7160e01b5f52603260045260245ffd5b90611b0c82611adb565b811015611b1d576020809102010190565b611aee565b611b2c9051610315565b90565b611b39905161029f565b90565b939290611b6b611b7393611b5d60409360608901908982035f8b0152610aac565b908782036020890152610aac565b940190610999565b565b929491909394611b915f611b8b60028790610d83565b01610da8565b611bab611ba5611ba05f6110e8565b610315565b91610315565b03611cd857611bc7855f611bc160028890610d83565b016114d0565b611bdf826001611bd960028890610d83565b01611acf565b611bf6816002611bf0818890610d83565b016114d0565b611bff86611adb565b94611c0861194b565b5b80611c1c611c168961029f565b9161029f565b1015611c7e57611c7990611c7487611c6f8b611c695f611c626003611c59611c516020611c4a888d90611b02565b5101611b22565b976002610d83565b01938890611b02565b5101611b2f565b906110b3565b6114d0565b611adf565b611c09565b50919450919450909192600193611cd3611cc1611cbb7f83e792c710cf273d3256902a6692549c5aed0f382d6bef29d64a98d1e0eb20f1956114c1565b956114c1565b95611cca6101a2565b93849384611b3c565b0390a3565b5f633c22694960e11b815280611cf0600482016103c9565b0390fd5b90611d019493929161186a565b565b611d0b6128a4565b611d13612316565b611d25611d1f83610315565b91610315565b03611d3557611d33906125e2565b565b611d50905f91829163118cdaa760e01b83526004830161032e565b0390fd5b5f90565b5f611d70611d7692611d68611d54565b506002610d83565b01610da8565b611d90611d8a611d855f6110e8565b610315565b91610315565b141590565b611d9d611090565b50611db05f611daa6128b1565b01610da8565b90565b611dc490611dbf6128d5565b611dc6565b565b611dd18160016114d0565b611dfb7fb1eaa9e0c36ddeb88436603e9f708e2f3f0c9470d8ad2f49697d48133e753d1f916114c1565b90611e046101a2565b80611e0e816103c9565b0390a2565b611e1c90611db3565b565b606090565b611e2f81602093610d39565b0190565b60200190565b5190565b60207f7778797a00000000000000000000000000000000000000000000000000000000917f303132333435363738396162636465666768696a6b6c6d6e6f707172737475765f8201520152565b611e946024610c26565b90611ea160208301611e3d565b565b611eab611e8a565b90565b90565b611ec5611ec0611eca92611eae565b611094565b61029f565b90565b611ed76008611eb1565b90565b90611eec611ee783610402565b610203565b918252565b369037565b90611f1b611f0383611eda565b92602080611f118693610402565b9201910390611ef1565b565b611f29611f2e91610d8f565b611097565b90565b90565b611f48611f43611f4d92611f31565b611094565b61029f565b90565b634e487b7160e01b5f52601260045260245ffd5b611f70611f769161029f565b9161029f565b908115611f81570690565b611f50565b90611f9082611e39565b811015611fa257600160209102010190565b611aee565b60ff60f81b1690565b611fba9051611fa7565b90565b634e487b7160e01b5f52601160045260245ffd5b611fdd611fe39161029f565b9161029f565b908115611fee570490565b611f50565b90565b61202961201a91612005611e1e565b5061200e6101a2565b92839160208301611e23565b602082018103825203826101da565b61203b61203582611e39565b91611e33565b2090612045611ea3565b9161205f612059612054611ecd565b611ef6565b91611f1d565b9261206861194b565b935b8461208461207e612079611ecd565b61029f565b9161029f565b10156120e3576120d76120dd916120b76120b2856120ac846120a66024611f34565b90611f64565b90611f86565b611fb0565b6120c6869189905f1a92611f86565b536120d16024611f34565b90611fd1565b94611adf565b9361206a565b50506120f0919250611ff3565b90565b61211b91600361211061211693612108611090565b506002610d83565b016110b3565b610da8565b90565b61212a61212f91610d8f565b6108d1565b90565b61213c905461211e565b90565b91909161214a611e1e565b5061215361194b565b5061215c612975565b90612174335f61216e60028690610d83565b016114d0565b61218c81600161218660028690610d83565b01611acf565b6121a384600261219d818690610d83565b016114d0565b6121ac83611adb565b936121b561194b565b5b806121c96121c38861029f565b9161029f565b10156122925761228d906122206121ed60206121e6898590611b02565b5101611b22565b61221b60036121fe60028a90610d83565b016122155f61220e8c8890611b02565b5101611b2f565b906110b3565b6114d0565b846122375f612230898590611b02565b5101611b2f565b61224e60206122478a8690611b02565b5101611b22565b916122857ff08b655242290bffb21ff7f7a0c95a81d95ca47100952442e823fbc1ec6220c19361227c6101a2565b938493846117a9565b0390a1611adf565b6121b6565b5091935091503383925f936122e56122d36122cd7f83e792c710cf273d3256902a6692549c5aed0f382d6bef29d64a98d1e0eb20f1956114c1565b956114c1565b956122dc6101a2565b93849384611b3c565b0390a3906122f25f612132565b90565b600261230d61231392612306611090565b5082610d83565b01610da8565b90565b61231e611090565b506123315f61232b6129fa565b01610da8565b90565b9061234a5f612344846002610d83565b01610da8565b61235c61235633610315565b91610315565b0361236c5761236a916123b2565b565b5f6282b42960e81b815280612383600482016103c9565b0390fd5b90916123a16123af9360408401908482035f860152610aac565b916020818403910152610aac565b90565b6123ca8260016123c460028590610d83565b01611acf565b907fdd81100d3e28c21b16cb3199e066af72a91321e878816b76e2ce39054c51edcb916124016123f86101a2565b92839283612387565b0390a1565b9061241091612334565b565b6124239061241e6128d5565b612425565b565b6124396124306129fa565b5f8391016114d0565b612441611d95565b9061247561246f7f38d16b8cac22d99fc7c124b9cd0de2d3fa1faef420bfe791d8c362d765e22700936114c1565b916114c1565b9161247e6101a2565b80612488816103c9565b0390a3565b61249690612412565b565b906124ae5f6124a8846002610d83565b01610da8565b6124c06124ba33610315565b91610315565b036124d0576124ce916124eb565b565b5f6282b42960e81b8152806124e7600482016103c9565b0390fd5b612502825f6124fc60028590610d83565b016114d0565b907ff90dbf0b67b9b14444123c6196121a1ab03da36673a3bf97afafb5c2a8e8fa6b916125396125306101a2565b928392836116d0565b0390a1565b9061254891612498565b565b7ff0c57e16840df040f15088dc2f81fe391c3923bec73e23a9662efc9c229c6a0090565b612576612a1e565b565b61258061256e565b565b919060086125a291029161259c60018060a01b03846118fd565b926118fd565b9181191691161790565b91906125c26125bd6125ca936114c1565b6114cd565b908354612582565b9055565b6125e0916125da611090565b916125ac565b565b6125fe906125f95f806125f36129fa565b016125ce565b612a51565b565b612608612a1e565b565b612612612600565b565b61261d9061123e565b90565b61262930612614565b61265b6126557f0000000000000000000000000000000000000000000000000000000000000000610315565b91610315565b148015612685575b61266957565b5f63703e46dd60e11b815280612681600482016103c9565b0390fd5b5061268e612abd565b6126c06126ba7f0000000000000000000000000000000000000000000000000000000000000000610315565b91610315565b1415612663565b506126d06128d5565b565b6126db906126c7565b565b6126e690611222565b90565b6126f2906126dd565b90565b6126fe9061123e565b90565b60e01b90565b612710816104fc565b0361271757565b5f80fd5b9050519061272882612707565b565b9060208282031261274357612740915f0161271b565b90565b6101ac565b9190612776602061276061275b866126e9565b6126f5565b6352d1902d9061276e6101a2565b938492612701565b82528180612786600482016103c9565b03915afa80915f92612816575b50155f146127c75750509060016127a857505b565b6127c3905f918291634c9c8ce360e01b83526004830161032e565b0390fd5b92836127e26127dc6127d7611632565b6104fc565b916104fc565b036127f7576127f2929350612ae3565b6127a6565b612812845f918291632a87526960e21b83526004830161050c565b0390fd5b61283891925060203d811161283f575b61283081836101da565b81019061272a565b905f612793565b503d612826565b61284f30612614565b61288161287b7f0000000000000000000000000000000000000000000000000000000000000000610315565b91610315565b0361288857565b5f63703e46dd60e11b8152806128a0600482016103c9565b0390fd5b6128ac611090565b503390565b7f9016d09d72d40fdae2fd8ceac6b6234c7706214fd39c1cd1e609a0528c19930090565b6128dd611d95565b6128f66128f06128eb6128a4565b610315565b91610315565b036128fd57565b61291f6129086128a4565b5f91829163118cdaa760e01b83526004830161032e565b0390fd5b61292c9061029f565b5f19811461293a5760010190565b611fbd565b9061294b5f1991611272565b9181191691161790565b9061296a61296561297192611097565b611926565b825461293f565b9055565b61297d611e1e565b50612986611e1e565b60015b156129c2575b505f6129ab6129a56129a05f612132565b612923565b5f612955565b6129bc6129b75f612132565b611ff6565b90612989565b6129d85f6129d260028490610d83565b01610da8565b6129f26129ec6129e75f6110e8565b610315565b91610315565b0361298f5790565b7f237e158222e3e6968b72b9db0d8043aacf074ad9f650f0d1606b4d82ee432c0090565b612a2f612a29612b6c565b15610994565b612a3557565b5f631afcd79f60e31b815280612a4d600482016103c9565b0390fd5b612a596128b1565b612a71612a675f8301610da8565b915f8491016114d0565b90612aa5612a9f7f8be0079c531659141344cd1fd0a4f28419497f9722a3daafe3b4186f6b6457e0936114c1565b916114c1565b91612aae6101a2565b80612ab8816103c9565b0390a3565b612ac5611090565b50612ae05f612ada612ad5611632565b612b8a565b01610da8565b90565b90612aed82612b8d565b81612b187fbc7cd75a20ee27fd9adebab32041f755214dbc6bffa90cc0225b39da2e5c2d3b916114c1565b90612b216101a2565b80612b2b816103c9565b0390a2612b3781611e39565b612b49612b435f611256565b9161029f565b115f14612b5d57612b5991612c46565b505b565b5050612b67612be2565b612b5b565b612b74611d54565b50612b875f612b8161254a565b0161119f565b90565b90565b803b612ba1612b9b5f611256565b9161029f565b14612bc357612bc1905f612bbb612bb6611632565b612b8a565b016114d0565b565b612bde905f918291634c9c8ce360e01b83526004830161032e565b0390fd5b34612bf5612bef5f611256565b9161029f565b11612bfc57565b5f63b398979f60e01b815280612c14600482016103c9565b0390fd5b606090565b3d5f14612c3857612c2d3d611eda565b903d5f602084013e5b565b612c40612c18565b90612c36565b5f80612c7293612c54612c18565b508390602081019051915af490612c69612c1d565b90919091612c75565b90565b90612c8990612c82612c18565b5015610994565b5f14612c955750612cf9565b612c9e82611e39565b612cb0612caa5f611256565b9161029f565b1480612cde575b612cbf575090565b612cda905f918291639996b31560e01b83526004830161032e565b0390fd5b50803b612cf3612ced5f611256565b9161029f565b14612cb7565b612d0281611e39565b612d14612d0e5f611256565b9161029f565b115f14612d2357805190602001fd5b5f63d6bda27560e01b815280612d3b600482016103c9565b0390fdfea164736f6c634300081d000a","linkReferences":{}},"methodIdentifiers":{"UPGRADE_INTERFACE_VERSION()":"ad3cb1cc","acceptOwnership()":"79ba5097","getPublisherDefaultPayoutAddress(string)":"b7a9b36d","getPublisherOverridePayout(string,uint256)":"a0f1f804","getPublisherPayoutAddress(string,uint256)":"3a06252a","getRefCode(uint256)":"97898b71","initialize(address,address)":"485cc955","nextPublisherNonce()":"7a8e66c0","owner()":"8da5cb5b","pendingOwner()":"e30c3978","proxiableUUID()":"52d1902d","publisherExists(string)":"8a422539","publishers(string)":"bc52a37a","registerPublisher(string,address,(uint256,address)[])":"a3c7a1cd","registerPublisherCustom(string,address,string,address,(uint256,address)[])":"75e9a2ad","renounceOwnership()":"715018a6","signerAddress()":"5b7633d0","transferOwnership(address)":"f2fde38b","updateMetadataUrl(string,string)":"e61a5d4b","updatePublisherDefaultPayout(string,address)":"5e5b2982","updatePublisherOverridePayout(string,uint256,address)":"5e8d7560","updatePublisherOwner(string,address)":"fba8ddf7","updateSignerAddress(address)":"8fa2a9f0","upgradeToAndCall(address,bytes)":"4f1ef286"},"id":24}