{"src/test/DummyERC20.sol":{"DummyERC20":{"abi":[{"type":"constructor","inputs":[{"name":"_initialHolders","type":"address[]","internalType":"address[]"}],"stateMutability":"nonpayable"},{"type":"function","name":"allowance","inputs":[{"name":"owner","type":"address","internalType":"address"},{"name":"spender","type":"address","internalType":"address"}],"outputs":[{"name":"","type":"uint256","internalType":"uint256"}],"stateMutability":"view"},{"type":"function","name":"approve","inputs":[{"name":"spender","type":"address","internalType":"address"},{"name":"value","type":"uint256","internalType":"uint256"}],"outputs":[{"name":"","type":"bool","internalType":"bool"}],"stateMutability":"nonpayable"},{"type":"function","name":"balanceOf","inputs":[{"name":"account","type":"address","internalType":"address"}],"outputs":[{"name":"","type":"uint256","internalType":"uint256"}],"stateMutability":"view"},{"type":"function","name":"decimals","inputs":[],"outputs":[{"name":"","type":"uint8","internalType":"uint8"}],"stateMutability":"view"},{"type":"function","name":"mint","inputs":[{"name":"to","type":"address","internalType":"address"},{"name":"amount","type":"uint256","internalType":"uint256"}],"outputs":[],"stateMutability":"nonpayable"},{"type":"function","name":"name","inputs":[],"outputs":[{"name":"","type":"string","internalType":"string"}],"stateMutability":"view"},{"type":"function","name":"symbol","inputs":[],"outputs":[{"name":"","type":"string","internalType":"string"}],"stateMutability":"view"},{"type":"function","name":"test","inputs":[],"outputs":[],"stateMutability":"nonpayable"},{"type":"function","name":"totalSupply","inputs":[],"outputs":[{"name":"","type":"uint256","internalType":"uint256"}],"stateMutability":"view"},{"type":"function","name":"transfer","inputs":[{"name":"to","type":"address","internalType":"address"},{"name":"value","type":"uint256","internalType":"uint256"}],"outputs":[{"name":"","type":"bool","internalType":"bool"}],"stateMutability":"nonpayable"},{"type":"function","name":"transferFrom","inputs":[{"name":"from","type":"address","internalType":"address"},{"name":"to","type":"address","internalType":"address"},{"name":"value","type":"uint256","internalType":"uint256"}],"outputs":[{"name":"","type":"bool","internalType":"bool"}],"stateMutability":"nonpayable"},{"type":"event","name":"Approval","inputs":[{"name":"owner","type":"address","indexed":true,"internalType":"address"},{"name":"spender","type":"address","indexed":true,"internalType":"address"},{"name":"value","type":"uint256","indexed":false,"internalType":"uint256"}],"anonymous":false},{"type":"event","name":"Transfer","inputs":[{"name":"from","type":"address","indexed":true,"internalType":"address"},{"name":"to","type":"address","indexed":true,"internalType":"address"},{"name":"value","type":"uint256","indexed":false,"internalType":"uint256"}],"anonymous":false},{"type":"error","name":"ERC20InsufficientAllowance","inputs":[{"name":"spender","type":"address","internalType":"address"},{"name":"allowance","type":"uint256","internalType":"uint256"},{"name":"needed","type":"uint256","internalType":"uint256"}]},{"type":"error","name":"ERC20InsufficientBalance","inputs":[{"name":"sender","type":"address","internalType":"address"},{"name":"balance","type":"uint256","internalType":"uint256"},{"name":"needed","type":"uint256","internalType":"uint256"}]},{"type":"error","name":"ERC20InvalidApprover","inputs":[{"name":"approver","type":"address","internalType":"address"}]},{"type":"error","name":"ERC20InvalidReceiver","inputs":[{"name":"receiver","type":"address","internalType":"address"}]},{"type":"error","name":"ERC20InvalidSender","inputs":[{"name":"sender","type":"address","internalType":"address"}]},{"type":"error","name":"ERC20InvalidSpender","inputs":[{"name":"spender","type":"address","internalType":"address"}]}],"userdoc":{},"devdoc":{},"evm":{"bytecode":{"object":"60806040523461002f576100196100146101aa565b610331565b610021610034565b610db46109908239610db490f35b61003a565b60405190565b5f80fd5b601f801991011690565b634e487b7160e01b5f52604160045260245ffd5b906100669061003e565b810190811060018060401b0382111761007e57604052565b610048565b9061009661008f610034565b928361005c565b565b5f80fd5b5f80fd5b5f80fd5b60018060401b0381116100ba5760208091020190565b610048565b5f80fd5b60018060a01b031690565b6100d7906100c3565b90565b6100e3816100ce565b036100ea57565b5f80fd5b905051906100fb826100da565b565b9092919261011261010d826100a4565b610083565b938185526020808601920283019281841161014f57915b8383106101365750505050565b6020809161014484866100ee565b815201920191610129565b6100bf565b9080601f830112156101725781602061016f935191016100fd565b90565b6100a0565b906020828203126101a5575f82015160018060401b0381116101a05761019d9201610154565b90565b61009c565b610098565b6101c8611744803803806101bd81610083565b928339810190610177565b90565b60018060401b0381116101e7576101e360209161003e565b0190565b610048565b906101fe6101f9836101cb565b610083565b918252565b5f7f44756d6d7920546f6b656e000000000000000000000000000000000000000000910152565b610234600b6101ec565b9061024160208301610203565b565b61024b61022a565b90565b5f7f544553545f555344530000000000000000000000000000000000000000000000910152565b61027f60096101ec565b9061028c6020830161024e565b565b610296610275565b90565b90565b90565b90565b6102b66102b16102bb92610299565b61029f565b61029c565b90565b60016102ca910161029c565b90565b5190565b634e487b7160e01b5f52603260045260245ffd5b906102ef826102cd565b811015610300576020809102010190565b6102d1565b61030f90516100ce565b90565b90565b61032961032461032e92610312565b61029f565b61029c565b90565b9061034b61033d610243565b61034561028e565b90610609565b6103545f6102a2565b5b8061037061036a610365866102cd565b61029c565b9161029c565b10156103b3576103ae906103a961039061038b8684906102e5565b610305565b6103a369d3c21bcecceda1000000610315565b9061066b565b6102be565b610355565b509050565b5190565b634e487b7160e01b5f52602260045260245ffd5b90600160028304921680156103f0575b60208310146103eb57565b6103bc565b91607f16916103e0565b5f5260205f2090565b601f602091010490565b1b90565b9190600861042c9102916104265f198461040d565b9261040d565b9181191691161790565b61044a61044561044f9261029c565b61029f565b61029c565b90565b90565b919061046b61046661047393610436565b610452565b908354610411565b9055565b5f90565b61048d91610487610477565b91610455565b565b5b81811061049b575050565b806104a85f60019361047b565b01610490565b9190601f81116104be575b505050565b6104ca6104ef936103fa565b9060206104d684610403565b830193106104f7575b6104e890610403565b019061048f565b5f80806104b9565b91506104e8819290506104df565b1c90565b90610519905f1990600802610505565b191690565b8161052891610509565b906002021790565b9061053a816103b8565b9060018060401b0382116105f85761055c8261055685546103d0565b856104ae565b602090601f83116001146105905791809161057f935f92610584575b505061051e565b90555b565b90915001515f80610578565b601f1983169161059f856103fa565b925f5b8181106105e0575091600293918560019694106105c6575b50505002019055610582565b6105d6910151601f841690610509565b90555f80806105ba565b919360206001819287870151815501950192016105a2565b610048565b9061060791610530565b565b9061061861061f9260036105fd565b60046105fd565b565b61063561063061063a92610299565b61029f565b6100c3565b90565b61064690610621565b90565b610652906100ce565b9052565b9190610669905f60208501940190610649565b565b8061068661068061067b5f61063d565b6100ce565b916100ce565b146106a2576106a0916106985f61063d565b919091610820565b565b6106c56106ae5f61063d565b5f91829163ec442f0560e01b835260048301610656565b0390fd5b6106dd6106d86106e2926100c3565b61029f565b6100c3565b90565b6106ee906106c9565b90565b6106fa906106e5565b90565b90610707906106f1565b5f5260205260405f2090565b5f1c90565b90565b61072761072c91610713565b610718565b90565b610739905461071b565b90565b6107459061029c565b9052565b604090610772610779949695939661076860608401985f850190610649565b602083019061073c565b019061073c565b565b90610786910361029c565b90565b5f1b90565b9061079a5f1991610789565b9181191691161790565b906107b96107b46107c092610436565b610452565b825461078e565b9055565b634e487b7160e01b5f52601160045260245ffd5b6107e76107ed9193929361029c565b9261029c565b82018092116107f857565b6107c4565b90610808910161029c565b90565b919061081e905f6020850194019061073c565b565b9190918061083e6108386108335f61063d565b6100ce565b916100ce565b145f1461091f5761086261085b83610856600261072f565b6107d8565b60026107a4565b5b8261087e6108786108735f61063d565b6100ce565b916100ce565b145f146108f3576108a261089b83610896600261072f565b61077b565b60026107a4565b5b9190916108ee6108dc6108d67fddf252ad1be2c89b69c2b068fc378daa952ba7f163c4a11628f55a4df523b3ef936106f1565b936106f1565b936108e5610034565b9182918261080b565b0390a3565b61091a826109146109055f87906106fd565b9161090f8361072f565b6107fd565b906107a4565b6108a3565b61093261092d5f83906106fd565b61072f565b8061094561093f8561029c565b9161029c565b1061096d5761095861096891849061077b565b6109635f84906106fd565b6107a4565b610863565b9061098b9091925f93849363391434e360e21b855260048501610749565b0390fdfe60806040526004361015610013575b610522565b61001d5f356100cc565b806306fdde03146100c7578063095ea7b3146100c257806318160ddd146100bd57806323b872dd146100b8578063313ce567146100b357806340c10f19146100ae57806370a08231146100a957806395d89b41146100a4578063a9059cbb1461009f578063dd62ed3e1461009a5763f8a8fd6d0361000e576104f7565b6104c1565b61045e565b610429565b6103f4565b6103a2565b610368565b61030a565b61029b565b610243565b61015a565b60e01c90565b60405190565b5f80fd5b5f80fd5b5f9103126100ea57565b6100dc565b5190565b60209181520190565b90825f9392825e0152565b601f801991011690565b61013061013960209361013e93610127816100ef565b938480936100f3565b958691016100fc565b610107565b0190565b6101579160208201915f818403910152610111565b90565b3461018a5761016a3660046100e0565b61018661017561067f565b61017d6100d2565b91829182610142565b0390f35b6100d8565b60018060a01b031690565b6101a39061018f565b90565b6101af8161019a565b036101b657565b5f80fd5b905035906101c7826101a6565b565b90565b6101d5816101c9565b036101dc57565b5f80fd5b905035906101ed826101cc565b565b9190604083820312610217578061020b610214925f86016101ba565b936020016101e0565b90565b6100dc565b151590565b61022a9061021c565b9052565b9190610241905f60208501940190610221565b565b346102745761027061025f6102593660046101ef565b90610699565b6102676100d2565b9182918261022e565b0390f35b6100d8565b610282906101c9565b9052565b9190610299905f60208501940190610279565b565b346102cb576102ab3660046100e0565b6102c76102b66106e8565b6102be6100d2565b91829182610286565b0390f35b6100d8565b9091606082840312610305576103026102eb845f85016101ba565b936102f981602086016101ba565b936040016101e0565b90565b6100dc565b3461033b576103376103266103203660046102d0565b916106fe565b61032e6100d2565b9182918261022e565b0390f35b6100d8565b60ff1690565b61034f90610340565b9052565b9190610366905f60208501940190610346565b565b34610398576103783660046100e0565b610394610383610753565b61038b6100d2565b91829182610353565b0390f35b6100d8565b5f0190565b346103d1576103bb6103b53660046101ef565b90610769565b6103c36100d2565b806103cd8161039d565b0390f35b6100d8565b906020828203126103ef576103ec915f016101ba565b90565b6100dc565b346104245761042061040f61040a3660046103d6565b6107bf565b6104176100d2565b91829182610286565b0390f35b6100d8565b34610459576104393660046100e0565b6104556104446107dd565b61044c6100d2565b91829182610142565b0390f35b6100d8565b3461048f5761048b61047a6104743660046101ef565b906107f3565b6104826100d2565b9182918261022e565b0390f35b6100d8565b91906040838203126104bc57806104b06104b9925f86016101ba565b936020016101ba565b90565b6100dc565b346104f2576104ee6104dd6104d7366004610494565b9061082b565b6104e56100d2565b91829182610286565b0390f35b6100d8565b3461051d576105073660046100e0565b61050f6100d2565b806105198161039d565b0390f35b6100d8565b5f80fd5b606090565b634e487b7160e01b5f52602260045260245ffd5b906001600283049216801561055f575b602083101461055a57565b61052b565b91607f169161054f565b60209181520190565b5f5260205f2090565b905f929180549061059561058e8361053f565b8094610569565b916001811690815f146105ec57506001146105b0575b505050565b6105bd9192939450610572565b915f925b8184106105d457505001905f80806105ab565b600181602092959395548486015201910192906105c1565b92949550505060ff19168252151560200201905f80806105ab565b906106119161057b565b90565b634e487b7160e01b5f52604160045260245ffd5b9061063290610107565b810190811067ffffffffffffffff82111761064c57604052565b610614565b9061067161066a926106616100d2565b93848092610607565b0383610628565b565b61067c90610651565b90565b610687610526565b506106926003610673565b90565b5f90565b6106b6916106a5610695565b506106ae610857565b919091610864565b600190565b5f90565b5f1c90565b90565b6106d36106d8916106bf565b6106c4565b90565b6106e590546106c7565b90565b6106f06106bb565b506106fb60026106db565b90565b916107289261070b610695565b50610720610717610857565b829084916108c1565b91909161098d565b600190565b5f90565b90565b90565b61074b61074661075092610731565b610734565b610340565b90565b61075b61072d565b506107666006610737565b90565b9061077391610a2a565b565b61078961078461078e9261018f565b610734565b61018f565b90565b61079a90610775565b90565b6107a690610791565b90565b906107b39061079d565b5f5260205260405f2090565b6107d56107da916107ce6106bb565b505f6107a9565b6106db565b90565b6107e5610526565b506107f06004610673565b90565b610810916107ff610695565b50610808610857565b91909161098d565b600190565b9061081f9061079d565b5f5260205260405f2090565b6108509161084661084b9261083e6106bb565b506001610815565b6107a9565b6106db565b90565b5f90565b61085f610853565b503390565b916108729291600192610ae2565b565b61087d9061019a565b9052565b6040906108aa6108b194969593966108a060608401985f850190610874565b6020830190610279565b0190610279565b565b906108be91036101c9565b90565b9291926108cf81839061082b565b90816108e46108de5f196101c9565b916101c9565b106108f1575b5050509050565b816109046108fe876101c9565b916101c9565b1061092a5761092193946109199193926108b3565b905f92610ae2565b805f80806108ea565b50610949849291925f938493637dc7a0d960e11b855260048501610881565b0390fd5b90565b61096461095f6109699261094d565b610734565b61018f565b90565b61097590610950565b90565b919061098b905f60208501940190610874565b565b91826109a96109a361099e5f61096c565b61019a565b9161019a565b14610a0357816109c96109c36109be5f61096c565b61019a565b9161019a565b146109dc576109da92919091610c38565b565b6109ff6109e85f61096c565b5f91829163ec442f0560e01b835260048301610978565b0390fd5b610a26610a0f5f61096c565b5f918291634b637e8f60e11b835260048301610978565b0390fd5b80610a45610a3f610a3a5f61096c565b61019a565b9161019a565b14610a6157610a5f91610a575f61096c565b919091610c38565b565b610a84610a6d5f61096c565b5f91829163ec442f0560e01b835260048301610978565b0390fd5b5f1b90565b90610a995f1991610a88565b9181191691161790565b610ab7610ab2610abc926101c9565b610734565b6101c9565b90565b90565b90610ad7610ad2610ade92610aa3565b610abf565b8254610a8d565b9055565b909281610aff610af9610af45f61096c565b61019a565b9161019a565b14610bca5783610b1f610b19610b145f61096c565b61019a565b9161019a565b14610ba357610b4383610b3e610b3760018690610815565b87906107a9565b610ac2565b610b4d575b505050565b919091610b98610b86610b807f8c5be1e5ebec7d5bd14f71427d1e84f3dd0314c0f7b2291e5b200ac8c7c3b9259361079d565b9361079d565b93610b8f6100d2565b91829182610286565b0390a35f8080610b48565b610bc6610baf5f61096c565b5f918291634a1406b160e11b835260048301610978565b0390fd5b610bed610bd65f61096c565b5f91829163e602df0560e01b835260048301610978565b0390fd5b634e487b7160e01b5f52601160045260245ffd5b610c14610c1a919392936101c9565b926101c9565b8201809211610c2557565b610bf1565b90610c3591016101c9565b90565b91909180610c56610c50610c4b5f61096c565b61019a565b9161019a565b145f14610d3757610c7a610c7383610c6e60026106db565b610c05565b6002610ac2565b5b82610c96610c90610c8b5f61096c565b61019a565b9161019a565b145f14610d0b57610cba610cb383610cae60026106db565b6108b3565b6002610ac2565b5b919091610d06610cf4610cee7fddf252ad1be2c89b69c2b068fc378daa952ba7f163c4a11628f55a4df523b3ef9361079d565b9361079d565b93610cfd6100d2565b91829182610286565b0390a3565b610d3282610d2c610d1d5f87906107a9565b91610d27836106db565b610c2a565b90610ac2565b610cbb565b610d4a610d455f83906107a9565b6106db565b80610d5d610d57856101c9565b916101c9565b10610d8557610d70610d809184906108b3565b610d7b5f84906107a9565b610ac2565b610c7b565b90610da39091925f93849363391434e360e21b855260048501610881565b0390fdfea164736f6c634300081d000a","linkReferences":{}},"methodIdentifiers":{"allowance(address,address)":"dd62ed3e","approve(address,uint256)":"095ea7b3","balanceOf(address)":"70a08231","decimals()":"313ce567","mint(address,uint256)":"40c10f19","name()":"06fdde03","symbol()":"95d89b41","test()":"f8a8fd6d","totalSupply()":"18160ddd","transfer(address,uint256)":"a9059cbb","transferFrom(address,address,uint256)":"23b872dd"}}}}}