{"src/test/DummyUpgrades.sol":{"FlywheelPublisherRegistryV2":{"abi":[{"type":"function","name":"UPGRADE_INTERFACE_VERSION","inputs":[],"outputs":[{"name":"","type":"string","internalType":"string"}],"stateMutability":"view"},{"type":"function","name":"acceptOwnership","inputs":[],"outputs":[],"stateMutability":"nonpayable"},{"type":"function","name":"getPublisherDefaultPayoutAddress","inputs":[{"name":"_refCode","type":"string","internalType":"string"}],"outputs":[{"name":"","type":"address","internalType":"address"}],"stateMutability":"view"},{"type":"function","name":"getPublisherOverridePayout","inputs":[{"name":"_refCode","type":"string","internalType":"string"},{"name":"_chainId","type":"uint256","internalType":"uint256"}],"outputs":[{"name":"","type":"address","internalType":"address"}],"stateMutability":"view"},{"type":"function","name":"getPublisherPayoutAddress","inputs":[{"name":"_refCode","type":"string","internalType":"string"},{"name":"_chainId","type":"uint256","internalType":"uint256"}],"outputs":[{"name":"","type":"address","internalType":"address"}],"stateMutability":"view"},{"type":"function","name":"getRefCode","inputs":[{"name":"_publisherNonce","type":"uint256","internalType":"uint256"}],"outputs":[{"name":"","type":"string","internalType":"string"}],"stateMutability":"pure"},{"type":"function","name":"incrementTotalPublishers","inputs":[],"outputs":[],"stateMutability":"nonpayable"},{"type":"function","name":"initialize","inputs":[{"name":"_owner","type":"address","internalType":"address"},{"name":"_signerAddress","type":"address","internalType":"address"}],"outputs":[],"stateMutability":"nonpayable"},{"type":"function","name":"nextPublisherNonce","inputs":[],"outputs":[{"name":"","type":"uint256","internalType":"uint256"}],"stateMutability":"view"},{"type":"function","name":"owner","inputs":[],"outputs":[{"name":"","type":"address","internalType":"address"}],"stateMutability":"view"},{"type":"function","name":"pendingOwner","inputs":[],"outputs":[{"name":"","type":"address","internalType":"address"}],"stateMutability":"view"},{"type":"function","name":"proxiableUUID","inputs":[],"outputs":[{"name":"","type":"bytes32","internalType":"bytes32"}],"stateMutability":"view"},{"type":"function","name":"publisherExists","inputs":[{"name":"_refCode","type":"string","internalType":"string"}],"outputs":[{"name":"","type":"bool","internalType":"bool"}],"stateMutability":"view"},{"type":"function","name":"publishers","inputs":[{"name":"refCode","type":"string","internalType":"string"}],"outputs":[{"name":"owner","type":"address","internalType":"address"},{"name":"metadataUrl","type":"string","internalType":"string"},{"name":"defaultPayout","type":"address","internalType":"address"}],"stateMutability":"view"},{"type":"function","name":"registerPublisher","inputs":[{"name":"_metadataUrl","type":"string","internalType":"string"},{"name":"_defaultPayout","type":"address","internalType":"address"},{"name":"_overridePayouts","type":"tuple[]","internalType":"struct FlywheelPublisherRegistry.OverridePublisherPayout[]","components":[{"name":"chainId","type":"uint256","internalType":"uint256"},{"name":"payoutAddress","type":"address","internalType":"address"}]}],"outputs":[{"name":"","type":"string","internalType":"string"},{"name":"","type":"uint256","internalType":"uint256"}],"stateMutability":"nonpayable"},{"type":"function","name":"registerPublisherCustom","inputs":[{"name":"_refCode","type":"string","internalType":"string"},{"name":"_publisherOwner","type":"address","internalType":"address"},{"name":"_metadataUrl","type":"string","internalType":"string"},{"name":"_defaultPayout","type":"address","internalType":"address"},{"name":"_overridePayouts","type":"tuple[]","internalType":"struct FlywheelPublisherRegistry.OverridePublisherPayout[]","components":[{"name":"chainId","type":"uint256","internalType":"uint256"},{"name":"payoutAddress","type":"address","internalType":"address"}]}],"outputs":[],"stateMutability":"nonpayable"},{"type":"function","name":"renounceOwnership","inputs":[],"outputs":[],"stateMutability":"pure"},{"type":"function","name":"signerAddress","inputs":[],"outputs":[{"name":"","type":"address","internalType":"address"}],"stateMutability":"view"},{"type":"function","name":"test","inputs":[],"outputs":[],"stateMutability":"nonpayable"},{"type":"function","name":"totalPublishersCreated","inputs":[],"outputs":[{"name":"","type":"uint256","internalType":"uint256"}],"stateMutability":"view"},{"type":"function","name":"transferOwnership","inputs":[{"name":"newOwner","type":"address","internalType":"address"}],"outputs":[],"stateMutability":"nonpayable"},{"type":"function","name":"updateMetadataUrl","inputs":[{"name":"_refCode","type":"string","internalType":"string"},{"name":"_metadataUrl","type":"string","internalType":"string"}],"outputs":[],"stateMutability":"nonpayable"},{"type":"function","name":"updatePublisherDefaultPayout","inputs":[{"name":"_refCode","type":"string","internalType":"string"},{"name":"_newDefaultPayoutAddress","type":"address","internalType":"address"}],"outputs":[],"stateMutability":"nonpayable"},{"type":"function","name":"updatePublisherOverridePayout","inputs":[{"name":"_refCode","type":"string","internalType":"string"},{"name":"_chainId","type":"uint256","internalType":"uint256"},{"name":"_newPayoutAddress","type":"address","internalType":"address"}],"outputs":[],"stateMutability":"nonpayable"},{"type":"function","name":"updatePublisherOwner","inputs":[{"name":"_refCode","type":"string","internalType":"string"},{"name":"_newOwner","type":"address","internalType":"address"}],"outputs":[],"stateMutability":"nonpayable"},{"type":"function","name":"updateSignerAddress","inputs":[{"name":"_newSignerAddress","type":"address","internalType":"address"}],"outputs":[],"stateMutability":"nonpayable"},{"type":"function","name":"upgradeToAndCall","inputs":[{"name":"newImplementation","type":"address","internalType":"address"},{"name":"data","type":"bytes","internalType":"bytes"}],"outputs":[],"stateMutability":"payable"},{"type":"function","name":"version","inputs":[],"outputs":[{"name":"","type":"string","internalType":"string"}],"stateMutability":"pure"},{"type":"event","name":"Initialized","inputs":[{"name":"version","type":"uint64","indexed":false,"internalType":"uint64"}],"anonymous":false},{"type":"event","name":"OwnershipTransferStarted","inputs":[{"name":"previousOwner","type":"address","indexed":true,"internalType":"address"},{"name":"newOwner","type":"address","indexed":true,"internalType":"address"}],"anonymous":false},{"type":"event","name":"OwnershipTransferred","inputs":[{"name":"previousOwner","type":"address","indexed":true,"internalType":"address"},{"name":"newOwner","type":"address","indexed":true,"internalType":"address"}],"anonymous":false},{"type":"event","name":"PublisherRegistered","inputs":[{"name":"owner","type":"address","indexed":true,"internalType":"address"},{"name":"defaultPayout","type":"address","indexed":true,"internalType":"address"},{"name":"refCode","type":"string","indexed":false,"internalType":"string"},{"name":"metadataUrl","type":"string","indexed":false,"internalType":"string"},{"name":"isCustom","type":"bool","indexed":false,"internalType":"bool"}],"anonymous":false},{"type":"event","name":"UpdateMetadataUrl","inputs":[{"name":"refCode","type":"string","indexed":false,"internalType":"string"},{"name":"metadataUrl","type":"string","indexed":false,"internalType":"string"}],"anonymous":false},{"type":"event","name":"UpdatePublisherChainPayoutAddress","inputs":[{"name":"refCode","type":"string","indexed":false,"internalType":"string"},{"name":"chainId","type":"uint256","indexed":false,"internalType":"uint256"},{"name":"payoutAddress","type":"address","indexed":false,"internalType":"address"}],"anonymous":false},{"type":"event","name":"UpdatePublisherDefaultPayoutAddress","inputs":[{"name":"refCode","type":"string","indexed":false,"internalType":"string"},{"name":"payoutAddress","type":"address","indexed":false,"internalType":"address"}],"anonymous":false},{"type":"event","name":"UpdateSignerAddress","inputs":[{"name":"signerAddress","type":"address","indexed":true,"internalType":"address"}],"anonymous":false},{"type":"event","name":"UpdatedPublisherOwner","inputs":[{"name":"refCode","type":"string","indexed":false,"internalType":"string"},{"name":"newOwner","type":"address","indexed":false,"internalType":"address"}],"anonymous":false},{"type":"event","name":"Upgraded","inputs":[{"name":"implementation","type":"address","indexed":true,"internalType":"address"}],"anonymous":false},{"type":"error","name":"AddressEmptyCode","inputs":[{"name":"target","type":"address","internalType":"address"}]},{"type":"error","name":"ERC1967InvalidImplementation","inputs":[{"name":"implementation","type":"address","internalType":"address"}]},{"type":"error","name":"ERC1967NonPayable","inputs":[]},{"type":"error","name":"FailedCall","inputs":[]},{"type":"error","name":"InvalidAddress","inputs":[]},{"type":"error","name":"InvalidInitialization","inputs":[]},{"type":"error","name":"NotInitializing","inputs":[]},{"type":"error","name":"OwnableInvalidOwner","inputs":[{"name":"owner","type":"address","internalType":"address"}]},{"type":"error","name":"OwnableUnauthorizedAccount","inputs":[{"name":"account","type":"address","internalType":"address"}]},{"type":"error","name":"OwnershipRenunciationDisabled","inputs":[]},{"type":"error","name":"RefCodeAlreadyTaken","inputs":[]},{"type":"error","name":"UUPSUnauthorizedCallContext","inputs":[]},{"type":"error","name":"UUPSUnsupportedProxiableUUID","inputs":[{"name":"slot","type":"bytes32","internalType":"bytes32"}]},{"type":"error","name":"Unauthorized","inputs":[]}],"userdoc":{},"devdoc":{},"evm":{"bytecode":{"object":"60a06040523461003e5761001161004d565b610019610043565b612efc6103098239608051818181612833015281816128980152612a590152612efc90f35b610049565b60405190565b5f80fd5b6100556100ba565b565b5f1b90565b906100685f1991610057565b9181191691161790565b90565b90565b90565b61008f61008a61009492610072565b610078565b610075565b90565b90565b906100af6100aa6100b69261007b565b610097565b825461005c565b9055565b6100c26100d7565b6100cd60015f61009a565b6100d561022c565b565b6100df6100e1565b565b6100e96100eb565b565b6100f3610134565b565b60018060a01b031690565b61011461010f610119926100f5565b610078565b6100f5565b90565b61012590610100565b90565b6101319061011c565b90565b61013d30610128565b608052565b60401c90565b60ff1690565b61015a61015f91610142565b610148565b90565b61016c905461014e565b90565b5f0190565b5f1c90565b60018060401b031690565b61019061019591610174565b610179565b90565b6101a29054610184565b90565b60018060401b031690565b906101c160018060401b0391610057565b9181191691161790565b6101df6101da6101e4926101a5565b610078565b6101a5565b90565b90565b906101ff6101fa610206926101cb565b6101e7565b82546101b0565b9055565b610213906101a5565b9052565b919061022a905f6020850194019061020a565b565b6102346102e4565b61023f5f8201610162565b6102c85761024e5f8201610198565b61026661026060018060401b036101a5565b916101a5565b0361026f575b50565b610282905f60018060401b0391016101ea565b60018060401b036102bf7fc7f505b2f371ae2175ee4913f4499e1f2633a7b5936321eed1cdaeb6115181d2916102b6610043565b91829182610217565b0390a15f61026c565b5f63f92ee8a960e01b8152806102e06004820161016f565b0390fd5b7ff0c57e16840df040f15088dc2f81fe391c3923bec73e23a9662efc9c229c6a009056fe60806040526004361015610013575b6111a3565b61001d5f356101dc565b80633a06252a146101d7578063485cc955146101d25780634f1ef286146101cd57806352127a88146101c857806352d1902d146101c357806354fd4d50146101be5780635b7633d0146101b95780635e5b2982146101b45780635e8d7560146101af578063715018a6146101aa57806375e9a2ad146101a557806379ba5097146101a05780637a8e66c01461019b5780638a422539146101965780638da5cb5b146101915780638fa2a9f01461018c57806397898b7114610187578063a0f1f80414610182578063a3c7a1cd1461017d578063ad3cb1cc14610178578063b7a9b36d14610173578063bc52a37a1461016e578063e30c397814610169578063e61a5d4b14610164578063e94353e61461015f578063f2fde38b1461015a578063f8a8fd6d146101555763fba8ddf70361000e5761116f565b611144565b611111565b6110de565b6110aa565b611018565b610fe0565b610d8c565b610d57565b610ca8565b610be3565b610bae565b610b5d565b610b0a565b610ad5565b610a44565b610a03565b6109cc565b610833565b6107ff565b610779565b6106ff565b61068a565b6105f4565b61059a565b610503565b61040e565b610383565b60e01c90565b60405190565b5f80fd5b5f80fd5b5f80fd5b5f80fd5b5f80fd5b601f801991011690565b634e487b7160e01b5f52604160045260245ffd5b90610224906101fc565b810190811067ffffffffffffffff82111761023e57604052565b610206565b9061025661024f6101e2565b928361021a565b565b67ffffffffffffffff8111610276576102726020916101fc565b0190565b610206565b90825f939282370152565b9092919261029b61029682610258565b610243565b938185526020850190828401116102b7576102b59261027b565b565b6101f8565b9080601f830112156102da578160206102d793359101610286565b90565b6101f4565b90565b6102eb816102df565b036102f257565b5f80fd5b90503590610303826102e2565b565b9190604083820312610345575f8301359067ffffffffffffffff8211610340576103348161033d9386016102bc565b936020016102f6565b90565b6101f0565b6101ec565b60018060a01b031690565b61035e9061034a565b90565b61036a90610355565b9052565b9190610381905f60208501940190610361565b565b346103b4576103b061039f610399366004610305565b9061120b565b6103a76101e2565b9182918261036e565b0390f35b6101e8565b6103c281610355565b036103c957565b5f80fd5b905035906103da826103b9565b565b919060408382031261040457806103f8610401925f86016103cd565b936020016103cd565b90565b6101ec565b5f0190565b3461043d576104276104213660046103dc565b906116d1565b61042f6101e2565b8061043981610409565b0390f35b6101e8565b67ffffffffffffffff81116104605761045c6020916101fc565b0190565b610206565b9092919261047a61047582610442565b610243565b93818552602085019082840111610496576104949261027b565b565b6101f8565b9080601f830112156104b9578160206104b693359101610465565b90565b6101f4565b9190916040818403126104fe576104d7835f83016103cd565b92602082013567ffffffffffffffff81116104f9576104f6920161049b565b90565b6101f0565b6101ec565b6105176105113660046104be565b90611706565b61051f6101e2565b8061052981610409565b0390f35b5f91031261053757565b6101ec565b1c90565b90565b610553906008610558930261053c565b610540565b90565b906105669154610543565b90565b61057560035f9061055b565b90565b610581906102df565b9052565b9190610598905f60208501940190610578565b565b346105ca576105aa36600461052d565b6105c66105b5610569565b6105bd6101e2565b91829182610585565b0390f35b6101e8565b90565b6105db906105cf565b9052565b91906105f2905f602085019401906105d2565b565b346106245761060436600461052d565b61062061060f611781565b6106176101e2565b918291826105df565b0390f35b6101e8565b5190565b60209181520190565b90825f9392825e0152565b61066061066960209361066e9361065781610629565b9384809361062d565b95869101610636565b6101fc565b0190565b6106879160208201915f818403910152610641565b90565b346106ba5761069a36600461052d565b6106b66106a56117e4565b6106ad6101e2565b91829182610672565b0390f35b6101e8565b60018060a01b031690565b6106da9060086106df930261053c565b6106bf565b90565b906106ed91546106ca565b90565b6106fc60015f906106e2565b90565b3461072f5761070f36600461052d565b61072b61071a6106f0565b6107226101e2565b9182918261036e565b0390f35b6101e8565b9190604083820312610774575f8301359067ffffffffffffffff821161076f576107638161076c9386016102bc565b936020016103cd565b90565b6101f0565b6101ec565b346107a85761079261078c366004610734565b906118c4565b61079a6101e2565b806107a481610409565b0390f35b6101e8565b90916060828403126107fa575f82013567ffffffffffffffff81116107f5576107db846107f29285016102bc565b936107e981602086016102f6565b936040016103cd565b90565b6101f0565b6101ec565b3461082e576108186108123660046107ad565b916119bc565b6108206101e2565b8061082a81610409565b0390f35b6101e8565b346108485761084336600461052d565b6119c9565b6101e8565b67ffffffffffffffff81116108655760208091020190565b610206565b5f80fd5b5f80fd5b91906040838203126108ac576108a59061088c6040610243565b93610899825f83016102f6565b5f8601526020016103cd565b6020830152565b61086e565b909291926108c66108c18261084d565b610243565b93818552604060208601920283019281841161090557915b8383106108eb5750505050565b60206040916108fa8486610872565b8152019201916108de565b61086a565b9080601f8301121561092857816020610925933591016108b1565b90565b6101f4565b91909160a0818403126109c7575f81013567ffffffffffffffff81116109c257836109599183016102bc565b9261096781602084016103cd565b92604083013567ffffffffffffffff81116109bd57826109889185016102bc565b9261099683606083016103cd565b92608082013567ffffffffffffffff81116109b8576109b5920161090a565b90565b6101f0565b6101f0565b6101f0565b6101ec565b346109fe576109e86109df36600461092d565b93929092611e6f565b6109f06101e2565b806109fa81610409565b0390f35b6101e8565b34610a3157610a1336600461052d565b610a1b611e7e565b610a236101e2565b80610a2d81610409565b0390f35b6101e8565b610a415f5f9061055b565b90565b34610a7457610a5436600461052d565b610a70610a5f610a36565b610a676101e2565b91829182610585565b0390f35b6101e8565b90602082820312610aa9575f82013567ffffffffffffffff8111610aa457610aa192016102bc565b90565b6101f0565b6101ec565b151590565b610abc90610aae565b9052565b9190610ad3905f60208501940190610ab3565b565b34610b0557610b01610af0610aeb366004610a79565b611ed3565b610af86101e2565b91829182610ac0565b0390f35b6101e8565b34610b3a57610b1a36600461052d565b610b36610b25611f10565b610b2d6101e2565b9182918261036e565b0390f35b6101e8565b90602082820312610b5857610b55915f016103cd565b90565b6101ec565b34610b8b57610b75610b70366004610b3f565b611f8e565b610b7d6101e2565b80610b8781610409565b0390f35b6101e8565b90602082820312610ba957610ba6915f016102f6565b90565b6101ec565b34610bde57610bda610bc9610bc4366004610b90565b61216c565b610bd16101e2565b91829182610672565b0390f35b6101e8565b34610c1457610c10610bff610bf9366004610305565b90612269565b610c076101e2565b9182918261036e565b0390f35b6101e8565b91606083830312610c7d575f83013567ffffffffffffffff8111610c785782610c439185016102bc565b92610c5183602083016103cd565b92604082013567ffffffffffffffff8111610c7357610c70920161090a565b90565b6101f0565b6101f0565b6101ec565b92916020610c9e610ca69360408701908782035f890152610641565b940190610578565b565b34610cda57610cc1610cbb366004610c19565b916122b5565b90610cd6610ccd6101e2565b92839283610c82565b0390f35b6101e8565b90610cf1610cec83610258565b610243565b918252565b5f7f352e302e30000000000000000000000000000000000000000000000000000000910152565b610d276005610cdf565b90610d3460208301610cf6565b565b610d3e610d1d565b90565b610d49610d36565b90565b610d54610d41565b90565b34610d8757610d6736600461052d565b610d83610d72610d4c565b610d7a6101e2565b91829182610672565b0390f35b6101e8565b34610dbc57610db8610da7610da2366004610a79565b61246b565b610daf6101e2565b9182918261036e565b0390f35b6101e8565b905090565b610deb610de292602092610dd981610629565b94858093610dc1565b93849101610636565b0190565b90565b610dfe610e03916102df565b610def565b9052565b610e17610e1e9160209493610dc6565b8092610df2565b0190565b610e36610e2d6101e2565b92839283610e07565b03902090565b610e4591610e22565b90565b5f1c90565b610e59610e5e91610e48565b6106bf565b90565b610e6b9054610e4d565b90565b634e487b7160e01b5f52602260045260245ffd5b9060016002830492168015610ea2575b6020831014610e9d57565b610e6e565b91607f1691610e92565b60209181520190565b5f5260205f2090565b905f9291805490610ed8610ed183610e82565b8094610eac565b916001811690815f14610f2f5750600114610ef3575b505050565b610f009192939450610eb5565b915f925b818410610f1757505001905f8080610eee565b60018160209295939554848601520191019290610f04565b92949550505060ff19168252151560200201905f8080610eee565b90610f5491610ebe565b90565b90610f77610f7092610f676101e2565b93848092610f4a565b038361021a565b565b610f84906002610e3c565b610f8f5f8201610e61565b91610fa86002610fa160018501610f57565b9301610e61565b90565b939290610fd6604091610fde94610fc960608901925f8a0190610361565b8782036020890152610641565b940190610361565b565b346110135761100f610ffb610ff6366004610a79565b610f79565b6110069391936101e2565b93849384610fab565b0390f35b6101e8565b346110485761102836600461052d565b61104461103361248c565b61103b6101e2565b9182918261036e565b0390f35b6101e8565b9190916040818403126110a5575f81013567ffffffffffffffff81116110a057836110799183016102bc565b92602082013567ffffffffffffffff811161109b5761109892016102bc565b90565b6101f0565b6101f0565b6101ec565b346110d9576110c36110bd36600461104d565b9061257c565b6110cb6101e2565b806110d581610409565b0390f35b6101e8565b3461110c576110ee36600461052d565b6110f661260a565b6110fe6101e2565b8061110881610409565b0390f35b6101e8565b3461113f57611129611124366004610b3f565b61268f565b6111316101e2565b8061113b81610409565b0390f35b6101e8565b3461116a5761115436600461052d565b61115c6101e2565b8061116681610409565b0390f35b6101e8565b3461119e57611188611182366004610734565b90612740565b6111906101e2565b8061119a81610409565b0390f35b6101e8565b5f80fd5b5f90565b90565b6111c26111bd6111c7926102df565b6111ab565b6102df565b90565b906111d4906111ae565b5f5260205260405f2090565b90565b6111f76111f26111fc926111e0565b6111ab565b61034a565b90565b611208906111e3565b90565b906112146111a7565b50611236611231600361122960028690610e3c565b0183906111ca565b610e61565b61125061124a6112455f6111ff565b610355565b91610355565b14155f1461127b5761127290600361126c611277946002610e3c565b016111ca565b610e61565b5b90565b50600261128b6112919282610e3c565b01610e61565b611278565b60401c90565b60ff1690565b6112ae6112b391611296565b61129c565b90565b6112c090546112a2565b90565b67ffffffffffffffff1690565b6112dc6112e191610e48565b6112c3565b90565b6112ee90546112d0565b90565b67ffffffffffffffff1690565b61131261130d611317926111e0565b6111ab565b6112f1565b90565b90565b61133161132c6113369261131a565b6111ab565b6112f1565b90565b61134d6113486113529261034a565b6111ab565b61034a565b90565b61135e90611339565b90565b61136a90611355565b90565b61138161137c611386926111e0565b6111ab565b6102df565b90565b5f1b90565b906113a167ffffffffffffffff91611389565b9181191691161790565b6113bf6113ba6113c4926112f1565b6111ab565b6112f1565b90565b90565b906113df6113da6113e6926113ab565b6113c7565b825461138e565b9055565b60401b90565b9061140468ff0000000000000000916113ea565b9181191691161790565b61141790610aae565b90565b90565b9061143261142d6114399261140e565b61141a565b82546113f0565b9055565b6114469061131d565b9052565b919061145d905f6020850194019061143d565b565b9061146861274c565b9161147d6114775f85016112b6565b15610aae565b916114895f85016112e4565b8061149c6114965f6112fe565b916112f1565b14806115b6575b906114b76114b1600161131d565b916112f1565b148061158e575b6114c9909115610aae565b908161157d575b50611561576114f9916114ee6114e6600161131d565b5f87016113ca565b8361154f575b611607565b611501575b50565b61150e905f80910161141d565b60016115467fc7f505b2f371ae2175ee4913f4499e1f2633a7b5936321eed1cdaeb6115181d29161153d6101e2565b9182918261144a565b0390a15f6114fe565b61155c60015f870161141d565b6114f4565b5f63f92ee8a960e01b81528061157960048201610409565b0390fd5b611588915015610aae565b5f6114d0565b506114c961159b30611361565b3b6115ae6115a85f61136d565b916102df565b1490506114be565b50836114a3565b906115ce60018060a01b0391611389565b9181191691161790565b6115e190611355565b90565b90565b906115fc6115f7611603926115d8565b6115e4565b82546115bd565b9055565b8061162261161c6116175f6111ff565b610355565b91610355565b146116b5576116389061163361277a565b6127e4565b61164061280c565b61164b8160016115e7565b8061166661166061165b5f6111ff565b610355565b91610355565b0361166f575b50565b6116997fb1eaa9e0c36ddeb88436603e9f708e2f3f0c9470d8ad2f49697d48133e753d1f916115d8565b906116a26101e2565b806116ac81610409565b0390a25f61166c565b5f63e6c4247b60e01b8152806116cd60048201610409565b0390fd5b906116db9161145f565b565b906116ef916116ea612822565b6116f1565b565b90611704916116ff816128d4565b61294a565b565b90611710916116dd565b565b5f90565b61172790611722612a48565b611775565b90565b90565b61174161173c6117469261172a565b611389565b6105cf565b90565b6117727f360894a13ba1a3210667c828492db98dca3e2076cc3735a920a3ca505d382bbc61172d565b90565b5061177e611749565b90565b61179161178c611712565b611716565b90565b606090565b5f7f5632000000000000000000000000000000000000000000000000000000000000910152565b6117ca6002610cdf565b906117d760208301611799565b565b6117e16117c0565b90565b6117ec611794565b506117f56117d9565b90565b9061180e5f611808846002610e3c565b01610e61565b61182061181a33610355565b91610355565b036118305761182e91611871565b565b5f6282b42960e81b81528061184760048201610409565b0390fd5b9291602061186761186f9360408701908782035f890152610641565b940190610361565b565b611888826002611882818590610e3c565b016115e7565b907fc63fe0686b9ceddd5d4c6257e981d6cc5d0e41145b8b3374b0453b0d79571231916118bf6118b66101e2565b9283928361184b565b0390a1565b906118ce916117f8565b565b91906118e75f6118e1856002610e3c565b01610e61565b6118f96118f333610355565b91610355565b036119095761190792611959565b565b5f6282b42960e81b81528061192060048201610409565b0390fd5b6040906119506119456119579597969460608401908482035f860152610641565b966020830190610578565b0190610361565b565b91909161197e82611979600361197160028690610e3c565b0186906111ca565b6115e7565b9190916119b77ff08b655242290bffb21ff7f7a0c95a81d95ca47100952442e823fbc1ec6220c1936119ae6101e2565b93849384611924565b0390a1565b906119c792916118d0565b565b5f6310e83c2760e21b8152806119e160048201610409565b0390fd5b9392919033611a036119fd6119f8611f10565b610355565b91610355565b14611a2b33611a23611a1d611a186001610e61565b610355565b91610355565b149115610aae565b9081611a5d575b50611a4257611a4094611cf0565b565b5f6282b42960e81b815280611a5960048201610409565b0390fd5b611a68915015610aae565b5f611a32565b601f602091010490565b1b90565b91906008611a97910291611a915f1984611a78565b92611a78565b9181191691161790565b90565b9190611aba611ab5611ac2936111ae565b611aa1565b908354611a7c565b9055565b5f90565b611adc91611ad6611ac6565b91611aa4565b565b5b818110611aea575050565b80611af75f600193611aca565b01611adf565b9190601f8111611b0d575b505050565b611b19611b3e93610eb5565b906020611b2584611a6e565b83019310611b46575b611b3790611a6e565b0190611ade565b5f8080611b08565b9150611b3781929050611b2e565b90611b64905f199060080261053c565b191690565b81611b7391611b54565b906002021790565b90611b8581610629565b9067ffffffffffffffff8211611c4557611ba982611ba38554610e82565b85611afd565b602090601f8311600114611bdd57918091611bcc935f92611bd1575b5050611b69565b90555b565b90915001515f80611bc5565b601f19831691611bec85610eb5565b925f5b818110611c2d57509160029391856001969410611c13575b50505002019055611bcf565b611c23910151601f841690611b54565b90555f8080611c07565b91936020600181928787015181550195019201611bef565b610206565b90611c5491611b7b565b565b5190565b6001611c6691016102df565b90565b634e487b7160e01b5f52603260045260245ffd5b90611c8782611c56565b811015611c98576020809102010190565b611c69565b611ca79051610355565b90565b611cb490516102df565b90565b939290611ce6611cee93611cd860409360608901908982035f8b0152610641565b908782036020890152610641565b940190610ab3565b565b929491909394611d0c5f611d0660028790610e3c565b01610e61565b611d26611d20611d1b5f6111ff565b610355565b91610355565b03611e5357611d42855f611d3c60028890610e3c565b016115e7565b611d5a826001611d5460028890610e3c565b01611c4a565b611d71816002611d6b818890610e3c565b016115e7565b611d7a86611c56565b94611d83611ac6565b5b80611d97611d91896102df565b916102df565b1015611df957611df490611def87611dea8b611de45f611ddd6003611dd4611dcc6020611dc5888d90611c7d565b5101611c9d565b976002610e3c565b01938890611c7d565b5101611caa565b906111ca565b6115e7565b611c5a565b611d84565b50919450919450909192600193611e4e611e3c611e367f83e792c710cf273d3256902a6692549c5aed0f382d6bef29d64a98d1e0eb20f1956115d8565b956115d8565b95611e456101e2565b93849384611cb7565b0390a3565b5f633c22694960e11b815280611e6b60048201610409565b0390fd5b90611e7c949392916119e5565b565b611e86612aa6565b611e8e61248c565b611ea0611e9a83610355565b91610355565b03611eb057611eae906127e4565b565b611ecb905f91829163118cdaa760e01b83526004830161036e565b0390fd5b5f90565b5f611eeb611ef192611ee3611ecf565b506002610e3c565b01610e61565b611f0b611f05611f005f6111ff565b610355565b91610355565b141590565b611f186111a7565b50611f2b5f611f25612ab3565b01610e61565b90565b611f3f90611f3a612ad7565b611f41565b565b611f4c8160016115e7565b611f767fb1eaa9e0c36ddeb88436603e9f708e2f3f0c9470d8ad2f49697d48133e753d1f916115d8565b90611f7f6101e2565b80611f8981610409565b0390a2565b611f9790611f2e565b565b611fa581602093610df2565b0190565b60200190565b5190565b60207f7778797a00000000000000000000000000000000000000000000000000000000917f303132333435363738396162636465666768696a6b6c6d6e6f707172737475765f8201520152565b61200a6024610cdf565b9061201760208301611fb3565b565b612021612000565b90565b90565b61203b61203661204092612024565b6111ab565b6102df565b90565b61204d6008612027565b90565b9061206261205d83610442565b610243565b918252565b369037565b9061209161207983612050565b926020806120878693610442565b9201910390612067565b565b61209f6120a491610e48565b6111ae565b90565b90565b6120be6120b96120c3926120a7565b6111ab565b6102df565b90565b634e487b7160e01b5f52601260045260245ffd5b6120e66120ec916102df565b916102df565b9081156120f7570690565b6120c6565b9061210682611faf565b81101561211857600160209102010190565b611c69565b60ff60f81b1690565b612130905161211d565b90565b634e487b7160e01b5f52601160045260245ffd5b612153612159916102df565b916102df565b908115612164570490565b6120c6565b90565b61219f6121909161217b611794565b506121846101e2565b92839160208301611f99565b6020820181038252038261021a565b6121b16121ab82611faf565b91611fa9565b20906121bb612019565b916121d56121cf6121ca612043565b61206c565b91612093565b926121de611ac6565b935b846121fa6121f46121ef612043565b6102df565b916102df565b10156122595761224d6122539161222d612228856122228461221c60246120aa565b906120da565b906120fc565b612126565b61223c869189905f1a926120fc565b5361224760246120aa565b90612147565b94611c5a565b936121e0565b5050612266919250612169565b90565b61229191600361228661228c9361227e6111a7565b506002610e3c565b016111ca565b610e61565b90565b6122a06122a591610e48565b610540565b90565b6122b29054612294565b90565b9190916122c0611794565b506122c9611ac6565b506122d2612b25565b906122ea335f6122e460028690610e3c565b016115e7565b6123028160016122fc60028690610e3c565b01611c4a565b612319846002612313818690610e3c565b016115e7565b61232283611c56565b9361232b611ac6565b5b8061233f612339886102df565b916102df565b10156124085761240390612396612363602061235c898590611c7d565b5101611c9d565b612391600361237460028a90610e3c565b0161238b5f6123848c8890611c7d565b5101611caa565b906111ca565b6115e7565b846123ad5f6123a6898590611c7d565b5101611caa565b6123c460206123bd8a8690611c7d565b5101611c9d565b916123fb7ff08b655242290bffb21ff7f7a0c95a81d95ca47100952442e823fbc1ec6220c1936123f26101e2565b93849384611924565b0390a1611c5a565b61232c565b5091935091503383925f9361245b6124496124437f83e792c710cf273d3256902a6692549c5aed0f382d6bef29d64a98d1e0eb20f1956115d8565b956115d8565b956124526101e2565b93849384611cb7565b0390a3906124685f6122a8565b90565b60026124836124899261247c6111a7565b5082610e3c565b01610e61565b90565b6124946111a7565b506124a75f6124a1612baa565b01610e61565b90565b906124c05f6124ba846002610e3c565b01610e61565b6124d26124cc33610355565b91610355565b036124e2576124e091612528565b565b5f6282b42960e81b8152806124f960048201610409565b0390fd5b90916125176125259360408401908482035f860152610641565b916020818403910152610641565b90565b61254082600161253a60028590610e3c565b01611c4a565b907fdd81100d3e28c21b16cb3199e066af72a91321e878816b76e2ce39054c51edcb9161257761256e6101e2565b928392836124fd565b0390a1565b90612586916124aa565b565b612590612ad7565b6125986125ec565b565b6125a3906102df565b5f1981146125b15760010190565b612133565b906125c25f1991611389565b9181191691161790565b906125e16125dc6125e8926111ae565b611aa1565b82546125b6565b9055565b6126086126016125fc60036122a8565b61259a565b60036125cc565b565b612612612588565b565b61262590612620612ad7565b612627565b565b61263b612632612baa565b5f8391016115e7565b612643611f10565b906126776126717f38d16b8cac22d99fc7c124b9cd0de2d3fa1faef420bfe791d8c362d765e22700936115d8565b916115d8565b916126806101e2565b8061268a81610409565b0390a3565b61269890612614565b565b906126b05f6126aa846002610e3c565b01610e61565b6126c26126bc33610355565b91610355565b036126d2576126d0916126ed565b565b5f6282b42960e81b8152806126e960048201610409565b0390fd5b612704825f6126fe60028590610e3c565b016115e7565b907ff90dbf0b67b9b14444123c6196121a1ab03da36673a3bf97afafb5c2a8e8fa6b9161273b6127326101e2565b9283928361184b565b0390a1565b9061274a9161269a565b565b7ff0c57e16840df040f15088dc2f81fe391c3923bec73e23a9662efc9c229c6a0090565b612778612bce565b565b612782612770565b565b919060086127a491029161279e60018060a01b0384611a78565b92611a78565b9181191691161790565b91906127c46127bf6127cc936115d8565b6115e4565b908354612784565b9055565b6127e2916127dc6111a7565b916127ae565b565b612800906127fb5f806127f5612baa565b016127d0565b612c01565b565b61280a612bce565b565b612814612802565b565b61281f90611355565b90565b61282b30612816565b61285d6128577f0000000000000000000000000000000000000000000000000000000000000000610355565b91610355565b148015612887575b61286b57565b5f63703e46dd60e11b81528061288360048201610409565b0390fd5b50612890612c6d565b6128c26128bc7f0000000000000000000000000000000000000000000000000000000000000000610355565b91610355565b1415612865565b506128d2612ad7565b565b6128dd906128c9565b565b6128e890611339565b90565b6128f4906128df565b90565b61290090611355565b90565b60e01b90565b612912816105cf565b0361291957565b5f80fd5b9050519061292a82612909565b565b9060208282031261294557612942915f0161291d565b90565b6101ec565b9190612978602061296261295d866128eb565b6128f7565b6352d1902d906129706101e2565b938492612903565b8252818061298860048201610409565b03915afa80915f92612a18575b50155f146129c95750509060016129aa57505b565b6129c5905f918291634c9c8ce360e01b83526004830161036e565b0390fd5b92836129e46129de6129d9611749565b6105cf565b916105cf565b036129f9576129f4929350612c93565b6129a8565b612a14845f918291632a87526960e21b8352600483016105df565b0390fd5b612a3a91925060203d8111612a41575b612a32818361021a565b81019061292c565b905f612995565b503d612a28565b612a5130612816565b612a83612a7d7f0000000000000000000000000000000000000000000000000000000000000000610355565b91610355565b03612a8a57565b5f63703e46dd60e11b815280612aa260048201610409565b0390fd5b612aae6111a7565b503390565b7f9016d09d72d40fdae2fd8ceac6b6234c7706214fd39c1cd1e609a0528c19930090565b612adf611f10565b612af8612af2612aed612aa6565b610355565b91610355565b03612aff57565b612b21612b0a612aa6565b5f91829163118cdaa760e01b83526004830161036e565b0390fd5b612b2d611794565b50612b36611794565b60015b15612b72575b505f612b5b612b55612b505f6122a8565b61259a565b5f6125cc565b612b6c612b675f6122a8565b61216c565b90612b39565b612b885f612b8260028490610e3c565b01610e61565b612ba2612b9c612b975f6111ff565b610355565b91610355565b03612b3f5790565b7f237e158222e3e6968b72b9db0d8043aacf074ad9f650f0d1606b4d82ee432c0090565b612bdf612bd9612d1c565b15610aae565b612be557565b5f631afcd79f60e31b815280612bfd60048201610409565b0390fd5b612c09612ab3565b612c21612c175f8301610e61565b915f8491016115e7565b90612c55612c4f7f8be0079c531659141344cd1fd0a4f28419497f9722a3daafe3b4186f6b6457e0936115d8565b916115d8565b91612c5e6101e2565b80612c6881610409565b0390a3565b612c756111a7565b50612c905f612c8a612c85611749565b612d3a565b01610e61565b90565b90612c9d82612d3d565b81612cc87fbc7cd75a20ee27fd9adebab32041f755214dbc6bffa90cc0225b39da2e5c2d3b916115d8565b90612cd16101e2565b80612cdb81610409565b0390a2612ce781611faf565b612cf9612cf35f61136d565b916102df565b115f14612d0d57612d0991612df6565b505b565b5050612d17612d92565b612d0b565b612d24611ecf565b50612d375f612d3161274c565b016112b6565b90565b90565b803b612d51612d4b5f61136d565b916102df565b14612d7357612d71905f612d6b612d66611749565b612d3a565b016115e7565b565b612d8e905f918291634c9c8ce360e01b83526004830161036e565b0390fd5b34612da5612d9f5f61136d565b916102df565b11612dac57565b5f63b398979f60e01b815280612dc460048201610409565b0390fd5b606090565b3d5f14612de857612ddd3d612050565b903d5f602084013e5b565b612df0612dc8565b90612de6565b5f80612e2293612e04612dc8565b508390602081019051915af490612e19612dcd565b90919091612e25565b90565b90612e3990612e32612dc8565b5015610aae565b5f14612e455750612ea9565b612e4e82611faf565b612e60612e5a5f61136d565b916102df565b1480612e8e575b612e6f575090565b612e8a905f918291639996b31560e01b83526004830161036e565b0390fd5b50803b612ea3612e9d5f61136d565b916102df565b14612e67565b612eb281611faf565b612ec4612ebe5f61136d565b916102df565b115f14612ed357805190602001fd5b5f63d6bda27560e01b815280612eeb60048201610409565b0390fdfea164736f6c634300081d000a","linkReferences":{}},"methodIdentifiers":{"UPGRADE_INTERFACE_VERSION()":"ad3cb1cc","acceptOwnership()":"79ba5097","getPublisherDefaultPayoutAddress(string)":"b7a9b36d","getPublisherOverridePayout(string,uint256)":"a0f1f804","getPublisherPayoutAddress(string,uint256)":"3a06252a","getRefCode(uint256)":"97898b71","incrementTotalPublishers()":"e94353e6","initialize(address,address)":"485cc955","nextPublisherNonce()":"7a8e66c0","owner()":"8da5cb5b","pendingOwner()":"e30c3978","proxiableUUID()":"52d1902d","publisherExists(string)":"8a422539","publishers(string)":"bc52a37a","registerPublisher(string,address,(uint256,address)[])":"a3c7a1cd","registerPublisherCustom(string,address,string,address,(uint256,address)[])":"75e9a2ad","renounceOwnership()":"715018a6","signerAddress()":"5b7633d0","test()":"f8a8fd6d","totalPublishersCreated()":"52127a88","transferOwnership(address)":"f2fde38b","updateMetadataUrl(string,string)":"e61a5d4b","updatePublisherDefaultPayout(string,address)":"5e5b2982","updatePublisherOverridePayout(string,uint256,address)":"5e8d7560","updatePublisherOwner(string,address)":"fba8ddf7","updateSignerAddress(address)":"8fa2a9f0","upgradeToAndCall(address,bytes)":"4f1ef286","version()":"54fd4d50"}}}}}