{"src/test/DummyUpgrades.sol":{"FlywheelCampaignsV2":{"abi":[{"type":"function","name":"MAX_PROTOCOL_FEE","inputs":[],"outputs":[{"name":"","type":"uint16","internalType":"uint16"}],"stateMutability":"view"},{"type":"function","name":"PROTOCOL_FEE_PRECISION","inputs":[],"outputs":[{"name":"","type":"uint16","internalType":"uint16"}],"stateMutability":"view"},{"type":"function","name":"UPGRADE_INTERFACE_VERSION","inputs":[],"outputs":[{"name":"","type":"string","internalType":"string"}],"stateMutability":"view"},{"type":"function","name":"acceptOwnership","inputs":[],"outputs":[],"stateMutability":"nonpayable"},{"type":"function","name":"addAllowedPublisherRefCode","inputs":[{"name":"_campaignId","type":"uint256","internalType":"uint256"},{"name":"_publisherRefCode","type":"string","internalType":"string"}],"outputs":[],"stateMutability":"nonpayable"},{"type":"function","name":"addConversionConfig","inputs":[{"name":"_campaignId","type":"uint256","internalType":"uint256"},{"name":"_conversionConfig","type":"tuple","internalType":"struct IFlywheelCampaigns.ConversionConfigInput","components":[{"name":"eventType","type":"uint8","internalType":"enum IFlywheelCampaigns.EventType"},{"name":"eventName","type":"string","internalType":"string"},{"name":"conversionMetadataUrl","type":"string","internalType":"string"},{"name":"publisherBidValue","type":"uint256","internalType":"uint256"},{"name":"userBidValue","type":"uint256","internalType":"uint256"},{"name":"rewardType","type":"uint8","internalType":"enum IFlywheelCampaigns.RewardType"},{"name":"cadenceType","type":"uint8","internalType":"enum IFlywheelCampaigns.CadenceEventType"}]}],"outputs":[],"stateMutability":"nonpayable"},{"type":"function","name":"allowedTokenAddresses","inputs":[{"name":"tokenAddress","type":"address","internalType":"address"}],"outputs":[{"name":"allowed","type":"bool","internalType":"bool"}],"stateMutability":"view"},{"type":"function","name":"attributeOffchainEvents","inputs":[{"name":"_campaignId","type":"uint256","internalType":"uint256"},{"name":"_events","type":"tuple[]","internalType":"struct IFlywheelCampaigns.OffchainEvent[]","components":[{"name":"conversionConfigId","type":"uint8","internalType":"uint8"},{"name":"eventId","type":"bytes16","internalType":"bytes16"},{"name":"payoutAddress","type":"address","internalType":"address"},{"name":"payoutAmount","type":"uint256","internalType":"uint256"},{"name":"recipientType","type":"uint8","internalType":"uint8"},{"name":"publisherRefCode","type":"string","internalType":"string"},{"name":"clickId","type":"string","internalType":"string"},{"name":"timestamp","type":"uint32","internalType":"uint32"}]}],"outputs":[],"stateMutability":"nonpayable"},{"type":"function","name":"attributeOnchainEvents","inputs":[{"name":"_campaignId","type":"uint256","internalType":"uint256"},{"name":"_events","type":"tuple[]","internalType":"struct IFlywheelCampaigns.OnchainEvent[]","components":[{"name":"conversionConfigId","type":"uint8","internalType":"uint8"},{"name":"eventId","type":"bytes16","internalType":"bytes16"},{"name":"payoutAddress","type":"address","internalType":"address"},{"name":"payoutAmount","type":"uint256","internalType":"uint256"},{"name":"recipientType","type":"uint8","internalType":"uint8"},{"name":"publisherRefCode","type":"string","internalType":"string"},{"name":"clickId","type":"string","internalType":"string"},{"name":"userAddress","type":"address","internalType":"address"},{"name":"timestamp","type":"uint32","internalType":"uint32"},{"name":"txHash","type":"bytes32","internalType":"bytes32"},{"name":"txChainId","type":"uint256","internalType":"uint256"},{"name":"txEventLogIndex","type":"uint256","internalType":"uint256"}]}],"outputs":[],"stateMutability":"nonpayable"},{"type":"function","name":"attributionProviders","inputs":[{"name":"id","type":"uint256","internalType":"uint256"}],"outputs":[{"name":"ownerAddress","type":"address","internalType":"address"},{"name":"signerAddress","type":"address","internalType":"address"}],"stateMutability":"view"},{"type":"function","name":"calculateProtocolFeeAmount","inputs":[{"name":"_amount","type":"uint256","internalType":"uint256"}],"outputs":[{"name":"","type":"uint256","internalType":"uint256"}],"stateMutability":"view"},{"type":"function","name":"campaigns","inputs":[{"name":"campaignId","type":"uint256","internalType":"uint256"}],"outputs":[{"name":"status","type":"uint8","internalType":"enum IFlywheelCampaigns.CampaignStatus"},{"name":"campaignBalanceAddress","type":"address","internalType":"address"},{"name":"tokenAddress","type":"address","internalType":"address"},{"name":"attributionProviderId","type":"uint256","internalType":"uint256"},{"name":"advertiserAddress","type":"address","internalType":"address"},{"name":"conversionConfigCount","type":"uint8","internalType":"uint8"},{"name":"campaignMetadataUrl","type":"string","internalType":"string"},{"name":"totalAmountClaimed","type":"uint256","internalType":"uint256"},{"name":"totalAmountAllocated","type":"uint256","internalType":"uint256"},{"name":"protocolFeesBalance","type":"uint256","internalType":"uint256"},{"name":"isAllowlistSet","type":"bool","internalType":"bool"}],"stateMutability":"view"},{"type":"function","name":"claimProtocolFees","inputs":[{"name":"_campaignIds","type":"uint256[]","internalType":"uint256[]"}],"outputs":[],"stateMutability":"nonpayable"},{"type":"function","name":"claimRewards","inputs":[{"name":"_campaignIds","type":"uint256[]","internalType":"uint256[]"},{"name":"_to","type":"address","internalType":"address"}],"outputs":[],"stateMutability":"nonpayable"},{"type":"function","name":"createCampaign","inputs":[{"name":"_tokenAddress","type":"address","internalType":"address"},{"name":"_attributionProviderId","type":"uint256","internalType":"uint256"},{"name":"_setToCampaignReady","type":"bool","internalType":"bool"},{"name":"_campaignMetadataUrl","type":"string","internalType":"string"},{"name":"_conversionConfigs","type":"tuple[]","internalType":"struct IFlywheelCampaigns.ConversionConfigInput[]","components":[{"name":"eventType","type":"uint8","internalType":"enum IFlywheelCampaigns.EventType"},{"name":"eventName","type":"string","internalType":"string"},{"name":"conversionMetadataUrl","type":"string","internalType":"string"},{"name":"publisherBidValue","type":"uint256","internalType":"uint256"},{"name":"userBidValue","type":"uint256","internalType":"uint256"},{"name":"rewardType","type":"uint8","internalType":"enum IFlywheelCampaigns.RewardType"},{"name":"cadenceType","type":"uint8","internalType":"enum IFlywheelCampaigns.CadenceEventType"}]},{"name":"_allowedPublisherRefCodes","type":"string[]","internalType":"string[]"}],"outputs":[{"name":"","type":"uint256","internalType":"uint256"},{"name":"","type":"address","internalType":"address"},{"name":"","type":"uint8[]","internalType":"uint8[]"}],"stateMutability":"nonpayable"},{"type":"function","name":"deactivateConversionConfig","inputs":[{"name":"_campaignId","type":"uint256","internalType":"uint256"},{"name":"_conversionConfigId","type":"uint8","internalType":"uint8"}],"outputs":[],"stateMutability":"nonpayable"},{"type":"function","name":"getAvailableProtocolFees","inputs":[{"name":"_campaignId","type":"uint256","internalType":"uint256"}],"outputs":[{"name":"","type":"uint256","internalType":"uint256"}],"stateMutability":"view"},{"type":"function","name":"getCampaignTotalBalance","inputs":[{"name":"_campaignId","type":"uint256","internalType":"uint256"}],"outputs":[{"name":"","type":"uint256","internalType":"uint256"}],"stateMutability":"view"},{"type":"function","name":"getCampaignTotalFunded","inputs":[{"name":"_campaignId","type":"uint256","internalType":"uint256"}],"outputs":[{"name":"","type":"uint256","internalType":"uint256"}],"stateMutability":"view"},{"type":"function","name":"getConversionConfig","inputs":[{"name":"_campaignId","type":"uint256","internalType":"uint256"},{"name":"_conversionConfigId","type":"uint8","internalType":"uint8"}],"outputs":[{"name":"","type":"tuple","internalType":"struct IFlywheelCampaigns.ConversionConfig","components":[{"name":"status","type":"uint8","internalType":"enum IFlywheelCampaigns.ConversionConfigStatus"},{"name":"eventType","type":"uint8","internalType":"enum IFlywheelCampaigns.EventType"},{"name":"eventName","type":"string","internalType":"string"},{"name":"conversionMetadataUrl","type":"string","internalType":"string"},{"name":"publisherBidValue","type":"uint256","internalType":"uint256"},{"name":"userBidValue","type":"uint256","internalType":"uint256"},{"name":"rewardType","type":"uint8","internalType":"enum IFlywheelCampaigns.RewardType"},{"name":"cadenceType","type":"uint8","internalType":"enum IFlywheelCampaigns.CadenceEventType"}]}],"stateMutability":"view"},{"type":"function","name":"getPublisherPayoutAddress","inputs":[{"name":"_refCode","type":"string","internalType":"string"}],"outputs":[{"name":"","type":"address","internalType":"address"}],"stateMutability":"view"},{"type":"function","name":"getRecipientBalance","inputs":[{"name":"campaignId","type":"uint256","internalType":"uint256"},{"name":"payoutAddress","type":"address","internalType":"address"}],"outputs":[{"name":"","type":"uint256","internalType":"uint256"}],"stateMutability":"view"},{"type":"function","name":"getRecipientClaimed","inputs":[{"name":"campaignId","type":"uint256","internalType":"uint256"},{"name":"recipient","type":"address","internalType":"address"}],"outputs":[{"name":"","type":"uint256","internalType":"uint256"}],"stateMutability":"view"},{"type":"function","name":"incrementTotalCampaigns","inputs":[],"outputs":[],"stateMutability":"nonpayable"},{"type":"function","name":"initialize","inputs":[{"name":"_owner","type":"address","internalType":"address"},{"name":"_treasuryAddress","type":"address","internalType":"address"},{"name":"_allowedTokenAddresses","type":"address[]","internalType":"address[]"},{"name":"_attributionProviders","type":"tuple[]","internalType":"struct IFlywheelCampaigns.AttributionProvider[]","components":[{"name":"ownerAddress","type":"address","internalType":"address"},{"name":"signerAddress","type":"address","internalType":"address"}]},{"name":"_publisherRegistryAddress","type":"address","internalType":"address"}],"outputs":[],"stateMutability":"nonpayable"},{"type":"function","name":"isPublisherRefCodeAllowed","inputs":[{"name":"_campaignId","type":"uint256","internalType":"uint256"},{"name":"_publisherRefCode","type":"string","internalType":"string"}],"outputs":[{"name":"","type":"bool","internalType":"bool"}],"stateMutability":"view"},{"type":"function","name":"nextAttributionProviderId","inputs":[],"outputs":[{"name":"","type":"uint256","internalType":"uint256"}],"stateMutability":"view"},{"type":"function","name":"nextCampaignId","inputs":[],"outputs":[{"name":"","type":"uint256","internalType":"uint256"}],"stateMutability":"view"},{"type":"function","name":"owner","inputs":[],"outputs":[{"name":"","type":"address","internalType":"address"}],"stateMutability":"view"},{"type":"function","name":"pendingOwner","inputs":[],"outputs":[{"name":"","type":"address","internalType":"address"}],"stateMutability":"view"},{"type":"function","name":"protocolFee","inputs":[],"outputs":[{"name":"","type":"uint16","internalType":"uint16"}],"stateMutability":"view"},{"type":"function","name":"proxiableUUID","inputs":[],"outputs":[{"name":"","type":"bytes32","internalType":"bytes32"}],"stateMutability":"view"},{"type":"function","name":"publisherRegistryAddress","inputs":[],"outputs":[{"name":"","type":"address","internalType":"address"}],"stateMutability":"view"},{"type":"function","name":"pushRewards","inputs":[{"name":"_campaignId","type":"uint256","internalType":"uint256"},{"name":"_recipientAddresses","type":"address[]","internalType":"address[]"}],"outputs":[],"stateMutability":"nonpayable"},{"type":"function","name":"registerAttributionProvider","inputs":[{"name":"_signerAddress","type":"address","internalType":"address"}],"outputs":[{"name":"","type":"uint256","internalType":"uint256"}],"stateMutability":"nonpayable"},{"type":"function","name":"renounceOwnership","inputs":[],"outputs":[],"stateMutability":"pure"},{"type":"function","name":"test","inputs":[],"outputs":[],"stateMutability":"nonpayable"},{"type":"function","name":"totalCampaignsCreated","inputs":[],"outputs":[{"name":"","type":"uint256","internalType":"uint256"}],"stateMutability":"view"},{"type":"function","name":"transferOwnership","inputs":[{"name":"newOwner","type":"address","internalType":"address"}],"outputs":[],"stateMutability":"nonpayable"},{"type":"function","name":"treasuryAddress","inputs":[],"outputs":[{"name":"","type":"address","internalType":"address"}],"stateMutability":"view"},{"type":"function","name":"updateAllowedTokenAddress","inputs":[{"name":"_tokenAddress","type":"address","internalType":"address"},{"name":"_allowed","type":"bool","internalType":"bool"}],"outputs":[],"stateMutability":"nonpayable"},{"type":"function","name":"updateAttributionProviderSigner","inputs":[{"name":"_id","type":"uint256","internalType":"uint256"},{"name":"_signerAddress","type":"address","internalType":"address"}],"outputs":[],"stateMutability":"nonpayable"},{"type":"function","name":"updateCampaignStatus","inputs":[{"name":"_campaignId","type":"uint256","internalType":"uint256"},{"name":"_newStatus","type":"uint8","internalType":"enum IFlywheelCampaigns.CampaignStatus"}],"outputs":[],"stateMutability":"nonpayable"},{"type":"function","name":"updateProtocolFee","inputs":[{"name":"_newProtocolFee","type":"uint16","internalType":"uint16"}],"outputs":[],"stateMutability":"nonpayable"},{"type":"function","name":"updatePublisherRegistryAddress","inputs":[{"name":"_publisherRegistryAddress","type":"address","internalType":"address"}],"outputs":[],"stateMutability":"nonpayable"},{"type":"function","name":"updateTreasuryAddress","inputs":[{"name":"newTreasuryAddress","type":"address","internalType":"address"}],"outputs":[],"stateMutability":"nonpayable"},{"type":"function","name":"upgradeToAndCall","inputs":[{"name":"newImplementation","type":"address","internalType":"address"},{"name":"data","type":"bytes","internalType":"bytes"}],"outputs":[],"stateMutability":"payable"},{"type":"function","name":"withdrawRemainingBalance","inputs":[{"name":"_campaignId","type":"uint256","internalType":"uint256"},{"name":"_to","type":"address","internalType":"address"}],"outputs":[],"stateMutability":"nonpayable"},{"type":"event","name":"AllowedPublisherRefCodeAdded","inputs":[{"name":"campaignId","type":"uint256","indexed":true,"internalType":"uint256"},{"name":"publisherRefCode","type":"string","indexed":false,"internalType":"string"}],"anonymous":false},{"type":"event","name":"CampaignCreated","inputs":[{"name":"campaignId","type":"uint256","indexed":true,"internalType":"uint256"},{"name":"advertiserAddress","type":"address","indexed":true,"internalType":"address"},{"name":"campaignBalanceAddress","type":"address","indexed":false,"internalType":"address"},{"name":"tokenAddress","type":"address","indexed":false,"internalType":"address"},{"name":"attributionProviderId","type":"uint256","indexed":false,"internalType":"uint256"},{"name":"campaignMetadataUrl","type":"string","indexed":false,"internalType":"string"}],"anonymous":false},{"type":"event","name":"ClaimedReward","inputs":[{"name":"campaignId","type":"uint256","indexed":true,"internalType":"uint256"},{"name":"payoutAddress","type":"address","indexed":true,"internalType":"address"},{"name":"payoutAmount","type":"uint256","indexed":false,"internalType":"uint256"},{"name":"to","type":"address","indexed":false,"internalType":"address"}],"anonymous":false},{"type":"event","name":"CreatedConversionConfig","inputs":[{"name":"conversionConfigId","type":"uint8","indexed":true,"internalType":"uint8"},{"name":"campaignId","type":"uint256","indexed":true,"internalType":"uint256"},{"name":"eventType","type":"uint8","indexed":false,"internalType":"uint8"},{"name":"eventName","type":"string","indexed":false,"internalType":"string"},{"name":"conversionMetadataUrl","type":"string","indexed":false,"internalType":"string"},{"name":"publisherBidValue","type":"uint256","indexed":false,"internalType":"uint256"},{"name":"userBidValue","type":"uint256","indexed":false,"internalType":"uint256"},{"name":"rewardType","type":"uint8","indexed":false,"internalType":"uint8"},{"name":"cadenceType","type":"uint8","indexed":false,"internalType":"uint8"}],"anonymous":false},{"type":"event","name":"DeactivatedConversionConfig","inputs":[{"name":"campaignId","type":"uint256","indexed":true,"internalType":"uint256"},{"name":"conversionConfigId","type":"uint8","indexed":false,"internalType":"uint8"}],"anonymous":false},{"type":"event","name":"Initialized","inputs":[{"name":"version","type":"uint64","indexed":false,"internalType":"uint64"}],"anonymous":false},{"type":"event","name":"OffchainConversion","inputs":[{"name":"campaignId","type":"uint256","indexed":true,"internalType":"uint256"},{"name":"publisherRefCode","type":"string","indexed":false,"internalType":"string"},{"name":"conversionConfigId","type":"uint8","indexed":false,"internalType":"uint8"},{"name":"eventId","type":"bytes16","indexed":false,"internalType":"bytes16"},{"name":"payoutAddress","type":"address","indexed":false,"internalType":"address"},{"name":"payoutAmount","type":"uint256","indexed":false,"internalType":"uint256"},{"name":"protocolFeeAmount","type":"uint256","indexed":false,"internalType":"uint256"},{"name":"recipientType","type":"uint8","indexed":false,"internalType":"uint8"},{"name":"clickId","type":"string","indexed":false,"internalType":"string"},{"name":"timestamp","type":"uint32","indexed":false,"internalType":"uint32"}],"anonymous":false},{"type":"event","name":"OnchainConversion","inputs":[{"name":"campaignId","type":"uint256","indexed":true,"internalType":"uint256"},{"name":"publisherRefCode","type":"string","indexed":false,"internalType":"string"},{"name":"conversionConfigId","type":"uint8","indexed":false,"internalType":"uint8"},{"name":"eventId","type":"bytes16","indexed":false,"internalType":"bytes16"},{"name":"payoutAddress","type":"address","indexed":false,"internalType":"address"},{"name":"payoutAmount","type":"uint256","indexed":false,"internalType":"uint256"},{"name":"protocolFeeAmount","type":"uint256","indexed":false,"internalType":"uint256"},{"name":"recipientType","type":"uint8","indexed":false,"internalType":"uint8"},{"name":"clickId","type":"string","indexed":false,"internalType":"string"},{"name":"userAddress","type":"address","indexed":false,"internalType":"address"},{"name":"timestamp","type":"uint32","indexed":false,"internalType":"uint32"},{"name":"txHash","type":"bytes32","indexed":false,"internalType":"bytes32"},{"name":"txChainId","type":"uint256","indexed":false,"internalType":"uint256"},{"name":"txEventLogIndex","type":"uint256","indexed":false,"internalType":"uint256"}],"anonymous":false},{"type":"event","name":"OwnershipTransferStarted","inputs":[{"name":"previousOwner","type":"address","indexed":true,"internalType":"address"},{"name":"newOwner","type":"address","indexed":true,"internalType":"address"}],"anonymous":false},{"type":"event","name":"OwnershipTransferred","inputs":[{"name":"previousOwner","type":"address","indexed":true,"internalType":"address"},{"name":"newOwner","type":"address","indexed":true,"internalType":"address"}],"anonymous":false},{"type":"event","name":"ProtocolFeesWithdrawn","inputs":[{"name":"campaignId","type":"uint256","indexed":true,"internalType":"uint256"},{"name":"amount","type":"uint256","indexed":false,"internalType":"uint256"},{"name":"treasury","type":"address","indexed":false,"internalType":"address"}],"anonymous":false},{"type":"event","name":"PushedReward","inputs":[{"name":"campaignId","type":"uint256","indexed":true,"internalType":"uint256"},{"name":"payoutAddress","type":"address","indexed":true,"internalType":"address"},{"name":"payoutAmount","type":"uint256","indexed":false,"internalType":"uint256"},{"name":"to","type":"address","indexed":false,"internalType":"address"}],"anonymous":false},{"type":"event","name":"RegisterAttributionProvider","inputs":[{"name":"id","type":"uint256","indexed":true,"internalType":"uint256"},{"name":"ownerAddress","type":"address","indexed":true,"internalType":"address"},{"name":"signerAddress","type":"address","indexed":false,"internalType":"address"}],"anonymous":false},{"type":"event","name":"RemainingBalanceWithdrawn","inputs":[{"name":"campaignId","type":"uint256","indexed":true,"internalType":"uint256"},{"name":"advertiserAddress","type":"address","indexed":true,"internalType":"address"},{"name":"to","type":"address","indexed":false,"internalType":"address"},{"name":"amount","type":"uint256","indexed":false,"internalType":"uint256"}],"anonymous":false},{"type":"event","name":"UpdateAllowedTokenAddress","inputs":[{"name":"tokenAddress","type":"address","indexed":true,"internalType":"address"},{"name":"allowed","type":"bool","indexed":true,"internalType":"bool"}],"anonymous":false},{"type":"event","name":"UpdateAttributionProviderSigner","inputs":[{"name":"id","type":"uint256","indexed":true,"internalType":"uint256"},{"name":"signerAddress","type":"address","indexed":true,"internalType":"address"}],"anonymous":false},{"type":"event","name":"UpdateCampaignStatus","inputs":[{"name":"campaignId","type":"uint256","indexed":true,"internalType":"uint256"},{"name":"newStatus","type":"uint8","indexed":false,"internalType":"uint8"}],"anonymous":false},{"type":"event","name":"UpdateProtocolFee","inputs":[{"name":"protocolFee","type":"uint16","indexed":true,"internalType":"uint16"}],"anonymous":false},{"type":"event","name":"UpdatePublisherRegistryAddress","inputs":[{"name":"publisherRegistryAddress","type":"address","indexed":true,"internalType":"address"}],"anonymous":false},{"type":"event","name":"UpdateTreasuryAddress","inputs":[{"name":"treasuryAddress","type":"address","indexed":true,"internalType":"address"}],"anonymous":false},{"type":"event","name":"Upgraded","inputs":[{"name":"implementation","type":"address","indexed":true,"internalType":"address"}],"anonymous":false},{"type":"error","name":"AddressEmptyCode","inputs":[{"name":"target","type":"address","internalType":"address"}]},{"type":"error","name":"AttributionProviderDoesNotExist","inputs":[]},{"type":"error","name":"CallerIsNotAttributionProvider","inputs":[]},{"type":"error","name":"CampaignDoesNotExist","inputs":[]},{"type":"error","name":"CannotOverAttribute","inputs":[]},{"type":"error","name":"ConversionConfigDoesNotExist","inputs":[]},{"type":"error","name":"ConversionConfigNotActive","inputs":[]},{"type":"error","name":"ERC1967InvalidImplementation","inputs":[{"name":"implementation","type":"address","internalType":"address"}]},{"type":"error","name":"ERC1967NonPayable","inputs":[]},{"type":"error","name":"FailedCall","inputs":[]},{"type":"error","name":"InvalidAddress","inputs":[]},{"type":"error","name":"InvalidCampaignStatus","inputs":[]},{"type":"error","name":"InvalidConversionConfig","inputs":[]},{"type":"error","name":"InvalidEventType","inputs":[]},{"type":"error","name":"InvalidInitialization","inputs":[]},{"type":"error","name":"InvalidProtocolFee","inputs":[]},{"type":"error","name":"InvalidPublisherRefCode","inputs":[]},{"type":"error","name":"InvalidStatusTransition","inputs":[]},{"type":"error","name":"MaxConversionConfigsReached","inputs":[]},{"type":"error","name":"NotInitializing","inputs":[]},{"type":"error","name":"OwnableInvalidOwner","inputs":[{"name":"owner","type":"address","internalType":"address"}]},{"type":"error","name":"OwnableUnauthorizedAccount","inputs":[{"name":"account","type":"address","internalType":"address"}]},{"type":"error","name":"OwnershipRenunciationDisabled","inputs":[]},{"type":"error","name":"PublisherAllowlistNotSet","inputs":[]},{"type":"error","name":"PublisherRefCodeNotAllowed","inputs":[]},{"type":"error","name":"TokenAddressNotSupported","inputs":[]},{"type":"error","name":"UUPSUnauthorizedCallContext","inputs":[]},{"type":"error","name":"UUPSUnsupportedProxiableUUID","inputs":[{"name":"slot","type":"bytes32","internalType":"bytes32"}]},{"type":"error","name":"Unauthorized","inputs":[]}],"userdoc":{},"devdoc":{},"evm":{"bytecode":{"object":"60a06040523461003e5761001161004d565b610019610043565b61815f61028f8239608051818181616840015281816168a50152616a4c015261815f90f35b610049565b60405190565b5f80fd5b610055610057565b565b61005f610069565b6100676101b2565b565b6100716100b5565b565b60018060a01b031690565b90565b61009561009061009a92610073565b61007e565b610073565b90565b6100a690610081565b90565b6100b29061009d565b90565b6100be306100a9565b608052565b60401c90565b60ff1690565b6100db6100e0916100c3565b6100c9565b90565b6100ed90546100cf565b90565b5f0190565b5f1c90565b60018060401b031690565b610111610116916100f5565b6100fa565b90565b6101239054610105565b90565b60018060401b031690565b5f1b90565b9061014760018060401b0391610131565b9181191691161790565b61016561016061016a92610126565b61007e565b610126565b90565b90565b9061018561018061018c92610151565b61016d565b8254610136565b9055565b61019990610126565b9052565b91906101b0905f60208501940190610190565b565b6101ba61026a565b6101c55f82016100e3565b61024e576101d45f8201610119565b6101ec6101e660018060401b03610126565b91610126565b036101f5575b50565b610208905f60018060401b039101610170565b60018060401b036102457fc7f505b2f371ae2175ee4913f4499e1f2633a7b5936321eed1cdaeb6115181d29161023c610043565b9182918261019d565b0390a15f6101f2565b5f63f92ee8a960e01b815280610266600482016100f0565b0390fd5b7ff0c57e16840df040f15088dc2f81fe391c3923bec73e23a9662efc9c229c6a009056fe60806040526004361015610013575b6122f6565b61001d5f3561031c565b8063020624d21461031757806302db9ca41461031257806303f49f521461030d5780630520537f146103085780630570490d14610303578063061b3354146102fe57806308426083146102f957806310eb6d50146102f45780631268cf84146102ef578063141961bc146102ea5780631d1be404146102e55780631f640291146102e05780632872b4f1146102db5780632925edc0146102d657806331f86f1b146102d157806332e8faa1146102cc57806337067568146102c757806339fd02cb146102c25780633c8edeb6146102bd5780633f9d90e1146102b8578063455894da146102b357806346730410146102ae5780634b79ed64146102a95780634f1ef286146102a457806352d1902d1461029f578063562569dd1461029a5780635e6cdfab14610295578063631651c414610290578063715018a61461028b5780637373c241146102865780637903a7561461028157806379ba50971461027c5780637b67faba14610277578063841e4561146102725780638da5cb5b1461026d5780638fcf78d914610268578063ad3cb1cc14610263578063b0e21e8a1461025e578063b8ca3b8314610259578063c43682ab14610254578063c5f956af1461024f578063d5bf7f9a1461024a578063db73656c14610245578063e30c397814610240578063ea7a25171461023b578063f0bf26b614610236578063f2fde38b146102315763f8a8fd6d0361000e576122cb565b612298565b612262565b61222d565b61216f565b61213c565b612107565b61209a565b612057565b612022565b611fb5565b611f21565b611e5e565b611e29565b611df6565b611dc1565b611d7f565b611d4a565b611d07565b611cb8565b611c81565b611a4c565b611750565b6116bc565b61166d565b611578565b6114bf565b611489565b6113f9565b611202565b61105f565b610fe2565b610fad565b610f5a565b610e3b565b610e06565b610dd1565b610d9d565b610cd6565b610811565b610787565b610709565b6106d3565b610650565b6105e6565b61052e565b61046b565b610381565b60e01c90565b60405190565b5f80fd5b5f80fd5b5f80fd5b61ffff1690565b61034481610334565b0361034b57565b5f80fd5b9050359061035c8261033b565b565b9060208282031261037757610374915f0161034f565b90565b61032c565b5f0190565b346103af5761039961039436600461035e565b6123f4565b6103a1610322565b806103ab8161037c565b0390f35b610328565b90565b6103c0816103b4565b036103c757565b5f80fd5b905035906103d8826103b7565b565b5f80fd5b5f80fd5b5f80fd5b909182601f830112156104205781359167ffffffffffffffff831161041b57602001926020830284011161041657565b6103e2565b6103de565b6103da565b9190916040818403126104665761043e835f83016103cb565b92602082013567ffffffffffffffff81116104615761045d92016103e6565b9091565b610330565b61032c565b3461049a5761048461047e366004610425565b9161246f565b61048c610322565b806104968161037c565b0390f35b610328565b60018060a01b031690565b6104b39061049f565b90565b6104bf816104aa565b036104c657565b5f80fd5b905035906104d7826104b6565b565b151590565b6104e7816104d9565b036104ee57565b5f80fd5b905035906104ff826104de565b565b9190604083820312610529578061051d610526925f86016104ca565b936020016104f2565b90565b61032c565b3461055d57610547610541366004610501565b906126b1565b61054f610322565b806105598161037c565b0390f35b610328565b909182601f8301121561059c5781359167ffffffffffffffff831161059757602001926020830284011161059257565b6103e2565b6103de565b6103da565b916040838303126105e1575f83013567ffffffffffffffff81116105dc576105ce836105d9928601610562565b9390946020016104ca565b90565b610330565b61032c565b34610615576105ff6105f93660046105a1565b91612702565b610607610322565b806106118161037c565b0390f35b610328565b9060208282031261064b575f82013567ffffffffffffffff8111610646576106429201610562565b9091565b610330565b61032c565b3461067f5761066961066336600461061a565b906128c2565b610671610322565b8061067b8161037c565b0390f35b610328565b91906040838203126106ac57806106a06106a9925f86016103cb565b936020016104ca565b90565b61032c565b6106ba906103b4565b9052565b91906106d1905f602085019401906106b1565b565b34610704576107006106ef6106e9366004610684565b90612b02565b6106f7610322565b918291826106be565b0390f35b610328565b346107385761072261071c366004610684565b90612b93565b61072a610322565b806107348161037c565b0390f35b610328565b6007111561074757565b5f80fd5b905035906107588261073d565b565b9190604083820312610782578061077661077f925f86016103cb565b9360200161074b565b90565b61032c565b346107b6576107a061079a36600461075a565b90612cbf565b6107a8610322565b806107b28161037c565b0390f35b610328565b60ff1690565b6107ca816107bb565b036107d157565b5f80fd5b905035906107e2826107c1565b565b919060408382031261080c5780610800610809925f86016103cb565b936020016107d5565b90565b61032c565b346108405761082a6108243660046107e4565b9061335a565b610832610322565b8061083c8161037c565b0390f35b610328565b9060208282031261085e5761085b915f016103cb565b90565b61032c565b90565b61087a61087561087f926103b4565b610863565b6103b4565b90565b9061088c90610866565b5f5260205260405f2090565b5f1c90565b60ff1690565b6108af6108b491610898565b61089d565b90565b6108c190546108a3565b90565b60081c90565b60018060a01b031690565b6108e16108e6916108c4565b6108ca565b90565b6108f390546108d5565b90565b61090261090791610898565b6108ca565b90565b61091490546108f6565b90565b90565b61092661092b91610898565b610917565b90565b610938905461091a565b90565b60ff1690565b61094d61095291610898565b61093b565b90565b61095f9054610941565b90565b634e487b7160e01b5f52602260045260245ffd5b9060016002830492168015610996575b602083101461099157565b610962565b91607f1691610986565b60209181520190565b5f5260205f2090565b905f92918054906109cc6109c583610976565b80946109a0565b916001811690815f14610a2357506001146109e7575b505050565b6109f491929394506109a9565b915f925b818410610a0b57505001905f80806109e2565b600181602092959395548486015201910192906109f8565b92949550505060ff19168252151560200201905f80806109e2565b90610a48916109b2565b90565b601f801991011690565b634e487b7160e01b5f52604160045260245ffd5b90610a7390610a4b565b810190811067ffffffffffffffff821117610a8d57604052565b610a55565b90610ab2610aab92610aa2610322565b93848092610a3e565b0383610a69565b565b60ff1690565b610ac6610acb91610898565b610ab4565b90565b610ad89054610aba565b90565b610ae6906006610882565b610af15f82016108b7565b91610afd5f83016108e9565b91610b0a6001820161090a565b91610b176002830161092e565b91610b246003820161090a565b91610b3160058301610955565b91610b3e60068201610a92565b91610b4b6007830161092e565b91610b586008820161092e565b91610b71600d610b6a6009850161092e565b9301610ace565b90565b634e487b7160e01b5f52602160045260245ffd5b60071115610b9257565b610b74565b90610ba182610b88565b565b610bac90610b97565b90565b610bb890610ba3565b9052565b610bc5906104aa565b9052565b610bd2906107bb565b9052565b5190565b60209181520190565b90825f9392825e0152565b610c0d610c16602093610c1b93610c0481610bd6565b93848093610bda565b95869101610be3565b610a4b565b0190565b610c28906104d9565b9052565b9690610cac91610c9f610ccd986101409b9f9e9c96610cd49e99610c8b610cc29a60608f610c84610c9596610c7a610cb79e610c7061016086019e5f870190610baf565b6020850190610bbc565b6040830190610bbc565b01906106b1565b60808d0190610bbc565b60a08b0190610bc9565b88820360c08a0152610bee565b9a60e08701906106b1565b6101008501906106b1565b6101208301906106b1565b0190610c1f565b565b34610d1357610d0f610cf1610cec366004610845565b610adb565b97610d069b999b979197969296959395610322565b9b8c9b8c610c2c565b0390f35b610328565b909182601f83011215610d525781359167ffffffffffffffff8311610d4d576020019260208302840111610d4857565b6103e2565b6103de565b6103da565b919091604081840312610d9857610d70835f83016103cb565b92602082013567ffffffffffffffff8111610d9357610d8f9201610d18565b9091565b610330565b61032c565b34610dcc57610db6610db0366004610d57565b91613cae565b610dbe610322565b80610dc88161037c565b0390f35b610328565b34610e0157610dfd610dec610de7366004610845565b613ce8565b610df4610322565b918291826106be565b0390f35b610328565b34610e3657610e32610e21610e1c366004610845565b613e40565b610e29610322565b918291826106be565b0390f35b610328565b34610e6b57610e67610e56610e51366004610845565b613e81565b610e5e610322565b918291826106be565b0390f35b610328565b5f80fd5b90610e87610e80610322565b9283610a69565b565b67ffffffffffffffff8111610ea757610ea3602091610a4b565b0190565b610a55565b90825f939282370152565b90929192610ecc610ec782610e89565b610e74565b93818552602085019082840111610ee857610ee692610eac565b565b610e70565b9080601f83011215610f0b57816020610f0893359101610eb7565b90565b6103da565b90602082820312610f40575f82013567ffffffffffffffff8111610f3b57610f389201610eed565b90565b610330565b61032c565b9190610f58905f60208501940190610bbc565b565b34610f8a57610f86610f75610f70366004610f10565b613edc565b610f7d610322565b91829182610f45565b0390f35b610328565b90602082820312610fa857610fa5915f016104ca565b90565b61032c565b34610fdd57610fd9610fc8610fc3366004610f8f565b613f78565b610fd0610322565b918291826106be565b0390f35b610328565b346110125761100e610ffd610ff8366004610845565b613f8e565b611005610322565b918291826106be565b0390f35b610328565b5f91031261102157565b61032c565b1c90565b61103a90600861103f9302611026565b610917565b90565b9061104d915461102a565b90565b61105c60015f90611042565b90565b3461108f5761106f366004611017565b61108b61107a611050565b611082610322565b918291826106be565b0390f35b610328565b5f80fd5b5f80fd5b600311156110a657565b5f80fd5b905035906110b78261109c565b565b600311156110c357565b5f80fd5b905035906110d4826110b9565b565b600311156110e057565b5f80fd5b905035906110f1826110d6565b565b91909160e0818403126111b85761110a60e0610e74565b92611117815f84016110aa565b5f850152602082013567ffffffffffffffff81116111b3578161113b918401610eed565b602085015260408201359167ffffffffffffffff83116111ae57611164826111a7948301610eed565b604086015261117682606083016103cb565b606086015261118882608083016103cb565b608086015261119a8260a083016110c7565b60a086015260c0016110e4565b60c0830152565b611098565b611098565b611094565b9190916040818403126111fd576111d6835f83016103cb565b92602082013567ffffffffffffffff81116111f8576111f592016110f3565b90565b610330565b61032c565b346112315761121b6112153660046111bd565b90614125565b611223610322565b8061122d8161037c565b0390f35b610328565b6003111561124057565b610b74565b9061124f82611236565b565b61125a90611245565b90565b61126690611251565b9052565b6003111561127457565b610b74565b906112838261126a565b565b61128e90611279565b90565b61129a90611285565b9052565b6112bd6112c66020936112cb936112b481610bd6565b938480936109a0565b95869101610be3565b610a4b565b0190565b6112d8906103b4565b9052565b600311156112e657565b610b74565b906112f5826112dc565b565b611300906112eb565b90565b61130c906112f7565b9052565b6003111561131a57565b610b74565b9061132982611310565b565b6113349061131f565b90565b6113409061132b565b9052565b906113de9060e08061139d61138b61010085016113675f8901515f88019061125d565b61137960208901516020880190611291565b6040880151868203604088015261129e565b6060870151858203606087015261129e565b946113b0608082015160808601906112cf565b6113c260a082015160a08601906112cf565b6113d460c082015160c0860190611303565b0151910190611337565b90565b6113f69160208201915f818403910152611344565b90565b3461142a5761142661141561140f3660046107e4565b90614362565b61141d610322565b918291826113e1565b0390f35b610328565b91909160408184031261146f57611448835f83016103cb565b92602082013567ffffffffffffffff811161146a576114679201610eed565b90565b610330565b61032c565b9190611487905f60208501940190610c1f565b565b346114ba576114b66114a561149f36600461142f565b90614418565b6114ad610322565b91829182611474565b0390f35b610328565b346114ee576114d86114d2366004610684565b906146b7565b6114e0610322565b806114ea8161037c565b0390f35b610328565b909182601f8301121561152d5781359167ffffffffffffffff831161152857602001926020830284011161152357565b6103e2565b6103de565b6103da565b9190916040818403126115735761154b835f83016103cb565b92602082013567ffffffffffffffff811161156e5761156a92016114f3565b9091565b610330565b61032c565b346115a75761159161158b366004611532565b91614da8565b611599610322565b806115a38161037c565b0390f35b610328565b67ffffffffffffffff81116115ca576115c6602091610a4b565b0190565b610a55565b909291926115e46115df826115ac565b610e74565b93818552602085019082840111611600576115fe92610eac565b565b610e70565b9080601f8301121561162357816020611620933591016115cf565b90565b6103da565b91909160408184031261166857611641835f83016104ca565b92602082013567ffffffffffffffff8111611663576116609201611605565b90565b610330565b61032c565b61168161167b366004611628565b90614dde565b611689610322565b806116938161037c565b0390f35b90565b6116a390611697565b9052565b91906116ba905f6020850194019061169a565b565b346116ec576116cc366004611017565b6116e86116d7614e59565b6116df610322565b918291826116a7565b0390f35b610328565b906116fb90610866565b5f5260205260405f2090565b6117129060046116f1565b9061172a60016117235f850161090a565b930161090a565b90565b91602061174e92949361174760408201965f830190610bbc565b0190610bbc565b565b3461178157611768611763366004610845565b611707565b9061177d611774610322565b9283928361172d565b0390f35b610328565b67ffffffffffffffff811161179e5760208091020190565b610a55565b9291906117b76117b282611786565b610e74565b938185526020808601920281019183831161180e5781905b8382106117dd575050505050565b813567ffffffffffffffff8111611809576020916117fe87849387016110f3565b8152019101906117cf565b6103da565b6103e2565b9080601f830112156118315781602061182e933591016117a3565b90565b6103da565b67ffffffffffffffff811161184e5760208091020190565b610a55565b92919061186761186282611836565b610e74565b93818552602080860192028101918383116118be5781905b83821061188d575050505050565b813567ffffffffffffffff81116118b9576020916118ae8784938701610eed565b81520191019061187f565b6103da565b6103e2565b9080601f830112156118e1578160206118de93359101611853565b90565b6103da565b9160c08383031261198c576118fd825f85016104ca565b9261190b83602083016103cb565b9261191981604084016104f2565b92606083013567ffffffffffffffff8111611987578261193a918501610eed565b92608081013567ffffffffffffffff8111611982578361195b918301611813565b9260a082013567ffffffffffffffff811161197d5761197a92016118c3565b90565b610330565b610330565b610330565b61032c565b5190565b60209181520190565b60200190565b6119ad906107bb565b9052565b906119be816020936119a4565b0190565b60200190565b906119e56119df6119d884611991565b8093611995565b9261199e565b905f5b8181106119f55750505090565b909192611a0e611a0860019286516119b1565b946119c2565b91019190916119e8565b611a3c611a49949293611a3260608401955f8501906106b1565b6020830190610bbc565b60408184039101526119c8565b90565b34611a8657611a82611a6e611a623660046118e6565b94939093929192614f26565b611a79939193610322565b93849384611a18565b0390f35b610328565b67ffffffffffffffff8111611aa35760208091020190565b610a55565b90929192611abd611ab882611a8b565b610e74565b9381855260208086019202830192818411611afa57915b838310611ae15750505050565b60208091611aef84866104ca565b815201920191611ad4565b6103e2565b9080601f83011215611b1d57816020611b1a93359101611aa8565b90565b6103da565b67ffffffffffffffff8111611b3a5760208091020190565b610a55565b9190604083820312611b7957611b7290611b596040610e74565b93611b66825f83016104ca565b5f8601526020016104ca565b6020830152565b611094565b90929192611b93611b8e82611b22565b610e74565b938185526040602086019202830192818411611bd257915b838310611bb85750505050565b6020604091611bc78486611b3f565b815201920191611bab565b6103e2565b9080601f83011215611bf557816020611bf293359101611b7e565b90565b6103da565b919060a083820312611c7c57611c12815f85016104ca565b92611c2082602083016104ca565b92604082013567ffffffffffffffff8111611c775783611c41918401611aff565b9260608301359067ffffffffffffffff8211611c7257611c6681611c6f938601611bd7565b936080016104ca565b90565b610330565b610330565b61032c565b34611cb357611c9d611c94366004611bfa565b9392909261566c565b611ca5610322565b80611caf8161037c565b0390f35b610328565b34611ccd57611cc8366004611017565b61567b565b610328565b611ce2906008611ce79302611026565b6108ca565b90565b90611cf59154611cd2565b90565b611d0460035f90611cea565b90565b34611d3757611d17366004611017565b611d33611d22611cf8565b611d2a610322565b91829182610f45565b0390f35b610328565b611d475f5f90611042565b90565b34611d7a57611d5a366004611017565b611d76611d65611d3c565b611d6d610322565b918291826106be565b0390f35b610328565b34611dad57611d8f366004611017565b611d97615697565b611d9f610322565b80611da98161037c565b0390f35b610328565b611dbe60075f90611042565b90565b34611df157611dd1366004611017565b611ded611ddc611db2565b611de4610322565b918291826106be565b0390f35b610328565b34611e2457611e0e611e09366004610f8f565b615784565b611e16610322565b80611e208161037c565b0390f35b610328565b34611e5957611e39366004611017565b611e55611e4461578f565b611e4c610322565b91829182610f45565b0390f35b610328565b34611e8c57611e6e366004611017565b611e7661584b565b611e7e610322565b80611e888161037c565b0390f35b610328565b90611ea3611e9e83610e89565b610e74565b918252565b5f7f352e302e30000000000000000000000000000000000000000000000000000000910152565b611ed96005611e91565b90611ee660208301611ea8565b565b611ef0611ecf565b90565b611efb611ee8565b90565b611f06611ef3565b90565b611f1e9160208201915f818403910152610bee565b90565b34611f5157611f31366004611017565b611f4d611f3c611efe565b611f44610322565b91829182611f09565b0390f35b610328565b61ffff1690565b611f6d906008611f729302611026565b611f56565b90565b90611f809154611f5d565b90565b611f906002601490611f75565b90565b611f9c90610334565b9052565b9190611fb3905f60208501940190611f93565b565b34611fe557611fc5366004611017565b611fe1611fd0611f83565b611fd8610322565b91829182611fa0565b0390f35b610328565b90565b612001611ffc61200692611fea565b610863565b610334565b90565b6120146103e8611fed565b90565b61201f612009565b90565b3461205257612032366004611017565b61204e61203d612017565b612045610322565b91829182611fa0565b0390f35b610328565b346120865761207061206a36600461142f565b90615ab8565b612078610322565b806120828161037c565b0390f35b610328565b61209760025f90611cea565b90565b346120ca576120aa366004611017565b6120c66120b561208b565b6120bd610322565b91829182610f45565b0390f35b610328565b90565b6120e66120e16120eb926120cf565b610863565b610334565b90565b6120f96127106120d2565b90565b6121046120ee565b90565b3461213757612117366004611017565b6121336121226120fc565b61212a610322565b91829182611fa0565b0390f35b610328565b3461216a5761215461214f366004610f8f565b615b60565b61215c610322565b806121668161037c565b0390f35b610328565b3461219f5761217f366004611017565b61219b61218a615b6b565b612192610322565b91829182610f45565b0390f35b610328565b6121b86121b36121bd9261049f565b610863565b61049f565b90565b6121c9906121a4565b90565b6121d5906121c0565b90565b906121e2906121cc565b5f5260205260405f2090565b6121fe9060086122039302611026565b610ab4565b90565b9061221191546121ee565b90565b61222a906122256005915f926121d8565b612206565b90565b3461225d57612259612248612243366004610f8f565b612214565b612250610322565b91829182611474565b0390f35b610328565b346122935761228f61227e612278366004610684565b90615b89565b612286610322565b918291826106be565b0390f35b610328565b346122c6576122b06122ab366004610f8f565b615c2f565b6122b8610322565b806122c28161037c565b0390f35b610328565b346122f1576122db366004611017565b6122e3610322565b806122ed8161037c565b0390f35b610328565b5f80fd5b61230b90612306615c3a565b61236c565b565b60a01b90565b9061232361ffff60a01b9161230d565b9181191691161790565b61234161233c61234692610334565b610863565b610334565b90565b90565b9061236161235c6123689261232d565b612349565b8254612313565b9055565b8061238661238061237b612009565b610334565b91610334565b116123d85761239681600261234c565b6123c07f990c608f52a5f1807834028bfc1c7af2110edc57963882072a5d87750f0a0a029161232d565b906123c9610322565b806123d38161037c565b0390a2565b5f631752ff0760e31b8152806123f06004820161037c565b0390fd5b6123fd906122fa565b565b5090565b5f90565b600161241391016103b4565b90565b634e487b7160e01b5f52603260045260245ffd5b919081101561243a576020020190565b612416565b35612449816104b6565b90565b91602061246d92949361246660408201965f8301906106b1565b0190610bbc565b565b3361249861249261248d600361248760068790610882565b0161090a565b6104aa565b916104aa565b1415806125ab575b612590576124af8284906123ff565b926124b8612403565b5b806124cc6124c6876103b4565b916103b4565b10156125895761258490612508846124ee6124e98887869161242a565b61243f565b6125026124fd8988879161242a565b61243f565b91615c88565b849061251e6125198887869161242a565b61243f565b909161253461252f8988879161242a565b61243f565b6125676125617f10fef4a7f0059a42b87896789713337efd8cd9ad4a2fb935752a380535e9ffe793610866565b936121cc565b9361257c612573610322565b9283928361244c565b0390a3612407565b6124b9565b5050505050565b5f6282b42960e81b8152806125a76004820161037c565b0390fd5b50336125eb6125e56125e060016125da60046125d460026125ce60068b90610882565b0161092e565b906116f1565b0161090a565b6104aa565b916104aa565b14156124a0565b90612604916125ff615c3a565b612650565b565b5f1b90565b9061261760ff91612606565b9181191691161790565b61262a906104d9565b90565b90565b9061264561264061264c92612621565b61262d565b825461260b565b9055565b61266582612660600584906121d8565b612630565b906126996126937f75bb45827ceadca9a5968a7e282f8a9ef20f54d233bdb6194ad79e725da45128936121cc565b91612621565b916126a2610322565b806126ac8161037c565b0390a3565b906126bb916125f2565b565b5090565b91908110156126d1576020020190565b612416565b356126e0816103b7565b90565b90565b6126fa6126f56126ff926126e3565b610863565b6103b4565b90565b9190916127108184906126bd565b92612719612403565b5b8061272d612727876103b4565b916103b4565b10156127e4576127759061275661274e612749868685916126c1565b6126d6565b338791615c88565b806127696127635f6126e6565b916103b4565b0361277a575b50612407565b61271a565b61278e612789868685916126c1565b6126d6565b90339091876127c66127c07fccb9e2ea02788925db02dbaf6fe1ce4a97d090e082fb8b3a8b2ec06c965985b893610866565b936121cc565b936127db6127d2610322565b9283928361244c565b0390a35f61276f565b5050505050565b906127f75f1991612606565b9181191691161790565b90565b9061281961281461282092610866565b612801565b82546127eb565b9055565b634e487b7160e01b5f52601160045260245ffd5b61284761284d919392936103b4565b926103b4565b820180921161285857565b612824565b612866906121a4565b90565b6128729061285d565b90565b61287e906121a4565b90565b61288a90612875565b90565b612896906121c0565b90565b5f80fd5b60e01b90565b5f9103126128ad57565b61032c565b6128ba610322565b3d5f823e3d90fd5b336128de6128d86128d3600261090a565b6104aa565b916104aa565b03612ad1576128ee8183906126bd565b926128f7612403565b5b8061290b612905876103b4565b916103b4565b1015612aca57612925612920848684916126c1565b6126d6565b9061293d600961293760068590610882565b0161092e565b8061295061294a5f6126e6565b916103b4565b03612966575b506129619150612407565b6128f8565b6129866129725f6126e6565b600961298060068790610882565b01612804565b6129be6129aa6129a3600761299d60068890610882565b0161092e565b8390612838565b60076129b860068790610882565b01612804565b6129ec6129e76129e26129dd5f6129d760068990610882565b016108e9565b612869565b612881565b61288d565b9263c58a6ce8826129fd600261090a565b95803b15612ac557612a225f8094612a2d612a16610322565b9a8b968795869461289d565b84526004840161244c565b03925af1938415612ac05761296194612a94575b50612a4c600261090a565b612a767f4b37444511309f220f2dc177f699fc678b5fc6590490b414eb57a3c02d8fa8d492610866565b92612a8b612a82610322565b9283928361244c565b0390a25f612956565b612ab3905f3d8111612ab9575b612aab8183610a69565b8101906128a3565b5f612a41565b503d612aa1565b6128b2565b612899565b5092505050565b5f6282b42960e81b815280612ae86004820161037c565b0390fd5b90612af6906121cc565b5f5260205260405f2090565b612b2a91600a612b1f612b2593612b17612403565b506006610882565b01612aec565b61092e565b90565b612b41612b3c612b46926126e3565b610863565b61049f565b90565b612b5290612b2d565b90565b90612b6660018060a01b0391612606565b9181191691161790565b90565b90612b88612b83612b8f926121cc565b612b70565b8254612b55565b9055565b81612bae612ba8612ba35f612b49565b6104aa565b916104aa565b14612c5f57612bc95f612bc3600484906116f1565b0161090a565b612bdb612bd5336104aa565b916104aa565b03612c4457612bf8826001612bf2600485906116f1565b01612b73565b90612c2c612c267ffdb34c480c74a3672ebe5e6c696ce54d2b76cb3683ac7d9afd838370b506f5bc93610866565b916121cc565b91612c35610322565b80612c3f8161037c565b0390a3565b5f6282b42960e81b815280612c5b6004820161037c565b0390fd5b5f63e6c4247b60e01b815280612c776004820161037c565b0390fd5b612c8490610b97565b90565b90565b90612c9f612c9a612ca692612c7b565b612c87565b825461260b565b9055565b9190612cbd905f60208501940190610bc9565b565b612cd66003612cd060068490610882565b0161090a565b612ce8612ce2336104aa565b916104aa565b14612d166001612d106004612d0a6002612d0460068990610882565b0161092e565b906116f1565b0161090a565b612d28612d22336104aa565b916104aa565b14612d3382156104d9565b806131ae575b61319357612d535f612d4d60068690610882565b016108b7565b9184612d67612d615f610b97565b91610b97565b148015613179575b801561315f575b8015613144575b8015613129575b61310d5784612d9c612d966002610b97565b91610b97565b145f14612e5b57612dae9150156104d9565b908115612e3e575b50612e2257612ddd905b612dd7835f612dd160068590610882565b01612c8a565b91610ba3565b90612e1d612e0b7fd9cdddff721ea39e169b574af11d0e81c588bbb9c3a73da68ce35fbe8b738bfa92610866565b92612e14610322565b91829182612caa565b0390a2565b5f63088bd32360e11b815280612e3a6004820161037c565b0390fd5b9050612e53612e4d6001610b97565b91610b97565b14155f612db6565b84612e6f612e696003610b97565b91610b97565b145f14612f08575081612e8b612e856002610b97565b91610b97565b145f14612ec857612e9d9150156104d9565b612eac57612ddd905b5b612dc0565b5f63088bd32360e11b815280612ec46004820161037c565b0390fd5b50612edc612ed66004610b97565b91610b97565b145f14612eec57612ddd90612ea6565b5f63088bd32360e11b815280612f046004820161037c565b0390fd5b9084612f1d612f176004610b97565b91610b97565b145f14612f64575050612f39612f336003610b97565b91610b97565b03612f4857612ddd905b612ea7565b5f63088bd32360e11b815280612f606004820161037c565b0390fd5b84612f78612f726005610b97565b91610b97565b145f146130005750612f8a90156104d9565b908115612fbd575b50612fa157612ddd905b612f43565b5f63088bd32360e11b815280612fb96004820161037c565b0390fd5b809150612fd3612fcd6003610b97565b91610b97565b14159081612fe3575b505f612f92565b9050612ff8612ff26004610b97565b91610b97565b14155f612fdc565b9091846130166130106006610b97565b91610b97565b14613028575b505050612ddd90612f9c565b8061303c6130366005610b97565b91610b97565b145f1461307c575061304f9150156104d9565b61306057612ddd905b905f8061301c565b5f63088bd32360e11b8152806130786004820161037c565b0390fd5b80915061309261308c6001610b97565b91610b97565b149081156130f1575b505f146130d5576130ac90156104d9565b6130b957612ddd90613058565b5f63088bd32360e11b8152806130d16004820161037c565b0390fd5b5f63088bd32360e11b8152806130ed6004820161037c565b0390fd5b90506131066131006002610b97565b91610b97565b145f61309b565b5f63088bd32360e11b8152806131256004820161037c565b0390fd5b508261313e6131386006610b97565b91610b97565b14612d84565b50846131596131536001610b97565b91610b97565b14612d7d565b508461317361316d85610b97565b91610b97565b14612d76565b508261318d6131875f610b97565b91610b97565b14612d6f565b5f6282b42960e81b8152806131aa6004820161037c565b0390fd5b506131b981156104d9565b612d39565b906131d560036131cf846006610882565b0161090a565b6131e76131e1336104aa565b916104aa565b036131f7576131f59161329a565b565b5f6282b42960e81b81528061320e6004820161037c565b0390fd5b61322661322161322b926107bb565b610863565b6107bb565b90565b9061323890613212565b5f5260205260405f2090565b60ff1690565b61325661325b91610898565b613244565b90565b613268905461324a565b90565b61327490611245565b90565b90565b9061328f61328a6132969261326b565b613277565b825461260b565b9055565b6132bd5f6132b760046132af60068690610882565b01859061322e565b0161325e565b6132d06132ca6001611245565b91611245565b0361333e576132fa60025f6132f460046132ec60068790610882565b01869061322e565b0161327a565b6133396133277f6cecb74258bd2532f1a621b4906ef4e43b5ba33567eac3f22276bdcee0a882a892610866565b92613330610322565b91829182612caa565b0390a2565b5f63f95b6c4560e01b8152806133566004820161037c565b0390fd5b90613364916131be565b565b91908261337f5f61337960068490610882565b016108b7565b61339161338b5f610b97565b91610b97565b14613492576133ad60026133a760068490610882565b0161092e565b6133d56133cf6133ca60016133c4339560046116f1565b0161090a565b6104aa565b916104aa565b03613476575f6133e96133ef926006610882565b016108b7565b806134036133fd6001610b97565b91610b97565b14801561345b575b90811561343f575b5061342357613421926137a3565b565b5f6342c5f9f560e01b81528061343b6004820161037c565b0390fd5b905061345461344e6006610b97565b91610b97565b145f613413565b508061347061346a6002610b97565b91610b97565b1461340b565b5f632d6700a760e01b81528061348e6004820161037c565b0390fd5b5f639b35ed3b60e01b8152806134aa6004820161037c565b0390fd5b5090565b5f80fd5b5f80fd5b5f80fd5b903590600161018003813603038212156134d6570190565b6134b2565b908210156134f55760206134f292028101906134be565b90565b612416565b35613504816107c1565b90565b903590600160200381360303821215613549570180359067ffffffffffffffff82116135445760200191600182023603831361353f57565b6134ba565b6134b6565b6134b2565b613559913691610eb7565b90565b5f90565b613569906121a4565b90565b61357590613560565b90565b90565b61358f61358a61359492613578565b610863565b6107bb565b90565b6135a0906121c0565b90565b905051906135b0826104b6565b565b906020828203126135cb576135c8915f016135a3565b90565b61032c565b91906135ea816135e3816135ef95610bda565b8095610eac565b610a4b565b0190565b909161360a9260208301925f8185039101526135d0565b90565b61361c613622919392936103b4565b926103b4565b820391821161362d57565b612824565b6fffffffffffffffffffffffffffffffff191690565b61365181613632565b0361365857565b5f80fd5b3561366681613648565b90565b63ffffffff1690565b61367b81613669565b0361368257565b5f80fd5b3561369081613672565b90565b61369c81611697565b036136a357565b5f80fd5b356136b181613693565b90565b6136bd90613632565b9052565b6136ca90613669565b9052565b9a9f9e9c96986137606137a19f9a9960c06101809f988f9061379a9f969d61374f61378f9f9d6137456137849f9461373b6137799f61376d9f9e61372661375999613731926101a08d01918d5f8185039101526135d0565b9f60208b0190610bc9565b60408901906136b4565b6060870190610bbc565b60808501906106b1565b60a08301906106b1565b0190610bc9565b8b830360e08d01526135d0565b9c610100890190610bbc565b6101208701906136c1565b61014085019061169a565b6101608301906106b1565b01906106b1565b565b916137ac612403565b6137b4612403565b916137c08482906134ae565b956137c9612403565b5b806137dd6137d78a6103b4565b916103b4565b1015613bdb57613803876137fd5f6137f78a8887916134db565b016134fa565b90615e3b565b61382f876138296138236138198a8887916134db565b60a0810190613507565b9061354e565b90615e91565b613851876138495f6138438a8887916134db565b016134fa565b600291615ef0565b61387b613876613870613866898786916134db565b60a0810190613507565b9061354e565b615f46565b613bbf576138966080613890888685916134db565b016134fa565b61389e61355c565b506138b16138ac600361090a565b61356c565b906138c56138bf600161357b565b916107bb565b1480613bb1575b5f14613b945760206138e061391992613597565b63b7a9b36d906138ff6138f58b8988916134db565b60a0810190613507565b94909261392461390d610322565b9687958694859461289d565b8452600484016135f3565b03915afa908115613b8f575f91613b61575b505b86848390613945926134db565b606001613951906126d6565b61395a90613e40565b9587858490613968926134db565b606001613974906126d6565b8761397e9161360d565b9060068a61398b91610882565b600a018361399891612aec565b6139a19061092e565b826139ab91612838565b60068b6139b791610882565b600a01846139c491612aec565b906139ce91612804565b876139d891612838565b95888685906139e6926134db565b6060016139f2906126d6565b6139fb91612838565b96899189878690613a0b926134db565b60a08101613a1891613507565b918b878a82818390613a29926134db565b5f01613a34906134fa565b9683828490613a42926134db565b602001613a4e9061365c565b99949084838590613a5e926134db565b608001613a6a906134fa565b9085848690613a78926134db565b60c08101613a8591613507565b92909187868890613a95926134db565b60e001613aa19061243f565b9488878990613aaf926134db565b61010001613abc90613686565b9689818a90613aca926134db565b61012001613ad7906136a7565b988a828290613ae5926134db565b61014001613af2906126d6565b9a91613afd926134db565b61016001613b0a906126d6565b997ff53c9be4e377f5eaa9bf3ee8c8df85cf507556faf630d0d4caa0f6a60113cbec9e613b3690610866565b9f613b3f610322565b9e8f9e8f9e613b4d9f6136ce565b0390a2613b5990612407565b9392936137ca565b613b82915060203d8111613b88575b613b7a8183610a69565b8101906135b2565b5f613936565b503d613b70565b6128b2565b50613bac6040613ba6888685916134db565b0161243f565b613938565b50613bba61600c565b6138cc565b5f638a425e3160e01b815280613bd76004820161037c565b0390fd5b5095505090929150613bfa6008613bf460068590610882565b0161092e565b613c1f613c19613c13613c0c86613e81565b9385612838565b926103b4565b916103b4565b11613c9257613c8a613c82613c9094613c67613c53600995613c4e6008613c4860068b90610882565b0161092e565b612838565b6008613c6160068990610882565b01612804565b613c7d84613c7760068890610882565b0161092e565b612838565b926006610882565b01612804565b565b5f6326b2f7bf60e01b815280613caa6004820161037c565b0390fd5b90613cb99291613366565b565b90505190613cc8826103b7565b565b90602082820312613ce357613ce0915f01613cbb565b90565b61032c565b6020613d23613d1e613d19613d145f613d0e613d3997613d06612403565b506006610882565b016108e9565b612869565b612881565b61288d565b6312065fe090613d31610322565b93849261289d565b82528180613d496004820161037c565b03915afa908115613d8d575f91613d5f575b5090565b613d80915060203d8111613d86575b613d788183610a69565b810190613cca565b5f613d5b565b503d613d6e565b6128b2565b60a01c90565b613da4613da991613d92565b611f56565b90565b613db69054613d98565b90565b613dcd613dc8613dd292610334565b610863565b6103b4565b90565b613de4613dea919392936103b4565b926103b4565b91613df68382026103b4565b928184041490151715613e0557565b612824565b634e487b7160e01b5f52601260045260245ffd5b613e2a613e30916103b4565b916103b4565b908115613e3b570490565b613e0a565b613e68613e7e91613e4f612403565b50613e62613e5d6002613dac565b613db9565b90613dd5565b613e78613e736120ee565b613db9565b90613e1e565b90565b613eb390613e8d612403565b50613ead6007613ea7613e9f84613ce8565b936006610882565b0161092e565b90612838565b90565b92916020613ed2613eda9360408701908782035f890152610bee565b9401906106b1565b565b613ee461355c565b506020613f01613efc613ef7600361090a565b61356c565b613597565b633a06252a9290613f244694613f2f613f18610322565b9687958694859461289d565b845260048401613eb6565b03915afa908115613f73575f91613f45575b5090565b613f66915060203d8111613f6c575b613f5e8183610a69565b8101906135b2565b5f613f41565b503d613f54565b6128b2565b613f8b90613f84612403565b5033616098565b90565b6009613fa7613fad92613f9f612403565b506006610882565b0161092e565b90565b90613fc76003613fc1846006610882565b0161090a565b613fd9613fd3336104aa565b916104aa565b03613fe957613fe791614066565b565b5f6282b42960e81b8152806140006004820161037c565b0390fd5b614010614016916107bb565b916107bb565b019060ff821161402257565b612824565b614030906107bb565b60ff811461403e5760010190565b612824565b90565b9061405b61405661406292613212565b614043565b825461260b565b9055565b614090614080600561407a60068590610882565b01610955565b61408a600161357b565b90614004565b6140a361409d60ff6107bb565b916107bb565b11614109576140ef6005916140e8614107946140de6140ce866140c860068790610882565b01610955565b6140d8600161357b565b90614004565b90839190916165e9565b6006610882565b016141016140fc82610955565b614027565b90614046565b565b5f63a3328e6360e01b8152806141216004820161037c565b0390fd5b9061412f91613fb0565b565b61413c610100610e74565b90565b5f90565b5f90565b606090565b5f90565b5f90565b5f90565b614160614131565b906020808080808080808961417361413f565b81520161417e614143565b815201614189614147565b815201614194614147565b81520161419f61414c565b8152016141aa61414c565b8152016141b5614150565b8152016141c0614154565b81525050565b6141ce614158565b90565b906141db90611245565b9052565b60ff1690565b6141f16141f6916108c4565b6141df565b90565b61420390546141e5565b90565b9061421090611279565b9052565b52565b90614221906103b4565b9052565b60ff1690565b61423761423c91610898565b614225565b90565b614249905461422b565b90565b90614256906112eb565b9052565b60ff1690565b61426c614271916108c4565b61425a565b90565b61427e9054614260565b90565b9061428b9061131f565b9052565b9061435461434b60056142a0614131565b946142b76142af5f830161325e565b5f88016141d1565b6142ce6142c55f83016141f9565b60208801614206565b6142e66142dd60018301610a92565b60408801614214565b6142fe6142f560028301610a92565b60608801614214565b61431661430d6003830161092e565b60808801614217565b61432e6143256004830161092e565b60a08801614217565b61434561433c83830161423f565b60c0880161424c565b01614274565b60e08401614281565b565b61435f9061428f565b90565b61438a91600461437f614385936143776141c6565b506006610882565b0161322e565b614356565b90565b5f90565b905090565b6143bb6143b2926020926143a981610bd6565b94858093614391565b93849101610be3565b0190565b90565b6143ce6143d3916103b4565b6143bf565b9052565b6143e76143ee9160209493614396565b80926143c2565b0190565b6144066143fd610322565b928392836143d7565b03902090565b614415916143f2565b90565b61444091600c61443561443b9361442d61438d565b506006610882565b0161440c565b610ace565b90565b9061445a6003614454846006610882565b0161090a565b61446c614466336104aa565b916104aa565b0361447c5761447a916144ba565b565b5f6282b42960e81b8152806144936004820161037c565b0390fd5b9160206144b89294936144b160408201965f830190610bbc565b01906106b1565b565b906144d15f6144cb60068590610882565b016108b7565b6144e46144de6006610b97565b91610b97565b0361469b576145126144f583613e81565b61450c600861450660068790610882565b0161092e565b9061360d565b91826145266145205f6126e6565b916103b4565b146146965761456361454f614548600861454260068690610882565b0161092e565b8590612838565b600861455d60068590610882565b01612804565b61459b614587614580600761457a60068690610882565b0161092e565b8590612838565b600761459560068590610882565b01612804565b6145c96145c46145bf6145ba5f6145b460068790610882565b016108e9565b612869565b612881565b61288d565b63c58a6ce8848492803b15614691576145f55f80946146006145e9610322565b9788968795869461289d565b84526004840161244c565b03925af1801561468c57614660575b503391926146466146407f123b746c2ef9af1069d18c5b16b2ab8a19c8811695dc6ba2c95c7eeaa2138bbf93610866565b936121cc565b9361465b614652610322565b92839283614497565b0390a3565b61467f905f3d8111614685575b6146778183610a69565b8101906128a3565b5f61460f565b503d61466d565b6128b2565b612899565b505050565b5f6342c5f9f560e01b8152806146b36004820161037c565b0390fd5b906146c191614443565b565b9190826146dc5f6146d660068490610882565b016108b7565b6146ee6146e85f610b97565b91610b97565b146147ef5761470a600261470460068490610882565b0161092e565b61473261472c6147276001614721339560046116f1565b0161090a565b6104aa565b916104aa565b036147d3575f61474661474c926006610882565b016108b7565b8061476061475a6001610b97565b91610b97565b1480156147b8575b90811561479c575b506147805761477e92614906565b565b5f6342c5f9f560e01b8152806147986004820161037c565b0390fd5b90506147b16147ab6006610b97565b91610b97565b145f614770565b50806147cd6147c76002610b97565b91610b97565b14614768565b5f632d6700a760e01b8152806147eb6004820161037c565b0390fd5b5f639b35ed3b60e01b8152806148076004820161037c565b0390fd5b5090565b90359060016101000381360303821215614827570190565b6134b2565b90821015614846576020614843920281019061480f565b90565b612416565b9392906148696020916148719460408801918883035f8a01526135d0565b9401906106b1565b565b9b9a9893966148db6148ef949760808f6148d46149049f9a6148ca6101009f999e6148fc9f6148b56148e59b6148c0926101208901918983035f8b01526135d0565b9f6020870190610bc9565b60408501906136b4565b6060830190610bbc565b01906106b1565b60a08d01906106b1565b60c08b0190610bc9565b88830360e08a01526135d0565b9401906136c1565b565b929190614911612403565b9161491a612403565b9261492683839061480b565b9461492f612403565b5b8061494361493d896103b4565b916103b4565b1015614cd557614969886149635f61495d8989879161482c565b016134fa565b90615e3b565b6149958861498f61498961497f8989879161482c565b60a0810190613507565b9061354e565b90615e91565b6149b7886149af5f6149a98989879161482c565b016134fa565b600191615ef0565b6149e16149dc6149d66149cc8888869161482c565b60a0810190613507565b9061354e565b615f46565b614cb9576149f76149f2600361090a565b61356c565b6149ff61355c565b50614a176080614a118888869161482c565b016134fa565b614a2a614a24600161357b565b916107bb565b1480614cab575b5f14614c8e576020614a45614a7f92613597565b633a06252a90614a64614a5a8a8a889161482c565b60a0810190613507565b949092614a8a46614a73610322565b9788968795869561289d565b85526004850161484b565b03915afa908115614c89575f91614c5b575b505b85858390614aab9261482c565b606001614ab7906126d6565b614ac090613e40565b9686868490614ace9261482c565b606001614ada906126d6565b88614ae49161360d565b9060068b614af191610882565b600a0183614afe91612aec565b614b079061092e565b82614b1191612838565b60068c614b1d91610882565b600a0184614b2a91612aec565b90614b3491612804565b88614b3e91612838565b9487878590614b4c9261482c565b606001614b58906126d6565b614b6191612838565b978a9188888690614b719261482c565b60a08101614b7e91613507565b91898b80828a90614b8e9261482c565b5f01614b99906134fa565b9581838b90614ba79261482c565b602001614bb39061365c565b98939082848c90614bc39261482c565b608001614bcf906134fa565b9183858d90614bdd9261482c565b60c08101614bea91613507565b959094908d90614bf99261482c565b60e001614c0590613686565b957f8355af646d8d5372baf9ea81999539155b6384d4f14df107c5138b06760488ec9a614c3190610866565b9b614c3a610322565b9a8b9a614c479a8c614873565b0390a2614c5390612407565b949194614930565b614c7c915060203d8111614c82575b614c748183610a69565b8101906135b2565b5f614a9c565b503d614c6a565b6128b2565b50614ca66040614ca08787859161482c565b0161243f565b614a9e565b50614cb461600c565b614a31565b5f638a425e3160e01b815280614cd16004820161037c565b0390fd5b5095939450915050614cf46008614cee60068590610882565b0161092e565b614d19614d13614d0d614d0686613e81565b9385612838565b926103b4565b916103b4565b11614d8c57614d84614d7c614d8a94614d61614d4d600995614d486008614d4260068b90610882565b0161092e565b612838565b6008614d5b60068990610882565b01612804565b614d7784614d7160068890610882565b0161092e565b612838565b926006610882565b01612804565b565b5f6326b2f7bf60e01b815280614da46004820161037c565b0390fd5b90614db392916146c3565b565b90614dc791614dc261682f565b614dc9565b565b90614ddc91614dd7816168e1565b61693d565b565b90614de891614db5565b565b5f90565b614dff90614dfa616a3b565b614e4d565b90565b90565b614e19614e14614e1e92614e02565b612606565b611697565b90565b614e4a7f360894a13ba1a3210667c828492db98dca3e2076cc3735a920a3ca505d382bbc614e05565b90565b50614e56614e21565b90565b614e69614e64614dea565b614dee565b90565b606090565b5190565b90614e7f82614e71565b811015614e90576020809102010190565b612416565b614e9e906103b4565b5f198114614eac5760010190565b612824565b604090614eda614ee19496959396614ed060608401985f8501906106b1565b6020830190610bbc565b0190610bbc565b565b9092614f1690614f0c614f239694614f0260808601975f870190610bbc565b6020850190610bbc565b60408301906106b1565b6060818403910152610bee565b90565b959391929095614f34612403565b50614f3d61355c565b50614f46614e6c565b50614f64614f5e614f59600584906121d8565b610ace565b156104d9565b61514257614f7e5f614f7860048a906116f1565b0161090a565b614f98614f92614f8d5f612b49565b6104aa565b916104aa565b1461512657614fa686614e71565b96614faf612403565b5b80614fc3614fbd8b6103b4565b916103b4565b101561500b57614fdd614fd7898390614e75565b51615f46565b614fef57614fea90612407565b614fb0565b5f638a425e3160e01b8152806150076004820161037c565b0390fd5b509091929394965061502d6150276150225f61092e565b614e95565b5f612804565b6150365f61092e565b82903391615042610322565b92610e6c84019184831067ffffffffffffffff84111761512157849361506f93610e6c6172e78739614eb1565b03905ff0801561511c5761510a956150896150a19261288d565b976150935f61092e565b918986908692899495616af5565b6150aa5f61092e565b9033926150f9889192956150e76150e17f0bcd8961fbc54d5c134fd32d92c2928de8e033d8f31edd8fcaeb1a030ebef9be96610866565b966121cc565b966150f0610322565b94859485614ee3565b0390a36151055f61092e565b616d81565b916151145f61092e565b919291929190565b6128b2565b610a55565b5f63dcc0fcb160e01b81528061513e6004820161037c565b0390fd5b5f630c69b51560e11b81528061515a6004820161037c565b0390fd5b60401c90565b6151706151759161515e565b610ab4565b90565b6151829054615164565b90565b67ffffffffffffffff1690565b61519e6151a391610898565b615185565b90565b6151b09054615192565b90565b67ffffffffffffffff1690565b6151d46151cf6151d9926126e3565b610863565b6151b3565b90565b6151f06151eb6151f592613578565b610863565b6151b3565b90565b615201906121c0565b90565b9061521767ffffffffffffffff91612606565b9181191691161790565b61523561523061523a926151b3565b610863565b6151b3565b90565b90565b9061525561525061525c92615221565b61523d565b8254615204565b9055565b60401b90565b9061527a68ff000000000000000091615260565b9181191691161790565b906152996152946152a092612621565b61262d565b8254615266565b9055565b6152ad906151dc565b9052565b91906152c4905f602085019401906152a4565b565b919390926152d2616e8b565b946152e76152e15f8801615178565b156104d9565b946152f35f88016151a6565b806153066153005f6151c0565b916151b3565b1480615420575b9061532161531b60016151dc565b916151b3565b14806153f8575b6153339091156104d9565b90816153e7575b506153cb576153639461535861535060016151dc565b5f8a01615240565b866153b9575b61547c565b61536b575b50565b615378905f809101615284565b60016153b07fc7f505b2f371ae2175ee4913f4499e1f2633a7b5936321eed1cdaeb6115181d2916153a7610322565b918291826152b1565b0390a15f615368565b6153c660015f8a01615284565b61535e565b5f63f92ee8a960e01b8152806153e36004820161037c565b0390fd5b6153f29150156104d9565b5f61533a565b50615333615405306151f8565b3b6154186154125f6126e6565b916103b4565b149050615328565b508661530d565b5190565b9061543582615427565b811015615446576020809102010190565b612416565b61545590516104aa565b90565b5190565b9061546682615458565b811015615477576020809102010190565b612416565b9194938161549a61549461548f5f612b49565b6104aa565b916104aa565b14801561564a575b61562e576154d4926154b86154cd926003612b73565b6154c0616eb9565b6154c8616ecd565b616f37565b6002612b73565b6154f260016154ed60056154e75f612b49565b906121d8565b612630565b6154fb83615427565b91615504612403565b5b80615518615512866103b4565b916103b4565b10156155b2576155ad9061554a6001615545600561553f61553a8b879061542b565b61544b565b906121d8565b612630565b61555d61555887839061542b565b61544b565b600161559261558c7f75bb45827ceadca9a5968a7e282f8a9ef20f54d233bdb6194ad79e725da45128936121cc565b91612621565b9161559b610322565b806155a58161037c565b0390a3612407565b615505565b50915091506155c082615458565b906155c9612403565b5b806155dd6155d7856103b4565b916103b4565b1015615628576156239061561d6156005f6155f988859061545c565b510161544b565b615617602061561089869061545c565b510161544b565b90616098565b50612407565b6155ca565b50915050565b5f63e6c4247b60e01b8152806156466004820161037c565b0390fd5b508261566661566061565b5f612b49565b6104aa565b916104aa565b146154a2565b90615679949392916152c6565b565b5f6310e83c2760e21b8152806156936004820161037c565b0390fd5b61569f616f55565b6156a7615b6b565b6156b96156b3836104aa565b916104aa565b036156c9576156c790616f37565b565b6156e4905f91829163118cdaa760e01b835260048301610f45565b0390fd5b6156f9906156f4615c3a565b6156fb565b565b8061571661571061570b5f612b49565b6104aa565b916104aa565b1461576857615726816002612b73565b6157507f30d36c1dd67e2019526263df539f65050c3b537a6acf65766b5da7de7128cf36916121cc565b90615759610322565b806157638161037c565b0390a2565b5f63e6c4247b60e01b8152806157806004820161037c565b0390fd5b61578d906156e8565b565b61579761355c565b506157aa5f6157a4616f62565b0161090a565b90565b5f7f4f6e6c79206f776e65722063616e20696e6372656d656e740000000000000000910152565b6157e16018602092610bda565b6157ea816157ad565b0190565b6158039060208101905f8183039101526157d4565b90565b1561580d57565b615815610322565b62461bcd60e51b81528061582b600482016157ee565b0390fd5b61584361583e61584892613578565b610863565b6103b4565b90565b61586e3361586861586261585d61578f565b6104aa565b916104aa565b14615806565b61589461588d61587e600161582f565b615888600761092e565b612838565b6007612804565b565b906158ad60036158a7846006610882565b0161090a565b6158bf6158b9336104aa565b916104aa565b036158cf576158cd91615917565b565b5f6282b42960e81b8152806158e66004820161037c565b0390fd5b905051906158f7826104de565b565b906020828203126159125761590f915f016158ea565b90565b61032c565b615937615931600d61592b60068590610882565b01610ace565b156104d9565b615a9c5761594d615948600361090a565b61356c565b61595561600c565b9081615a0d575b506159f15761598261597d600c61597560068590610882565b01849061440c565b610ace565b6159ed576159a960016159a4600c61599c60068690610882565b01859061440c565b612630565b6159e86159d67f75ca7feb69615dcb453a6d1e3c842826e2dd2f0bc6503d89a10c295fd3e5d8c792610866565b926159df610322565b91829182611f09565b0390a2565b5050565b5f638a425e3160e01b815280615a096004820161037c565b0390fd5b615a479150615a1d602091613597565b638a42253990615a3c8692615a30610322565b9586948593849361289d565b835260048301611f09565b03915afa8015615a9757615a63915f91615a69575b50156104d9565b5f61595c565b615a8a915060203d8111615a90575b615a828183610a69565b8101906158f9565b5f615a5c565b503d615a78565b6128b2565b5f6304cd1eef60e11b815280615ab46004820161037c565b0390fd5b90615ac291615896565b565b615ad590615ad0615c3a565b615ad7565b565b80615af2615aec615ae75f612b49565b6104aa565b916104aa565b14615b4457615b02816003612b73565b615b2c7f1442237e28ccb0fdb083c40be28e1af6ebdcdda36b6fe2b266ec01c0d391e2a1916121cc565b90615b35610322565b80615b3f8161037c565b0390a2565b5f63e6c4247b60e01b815280615b5c6004820161037c565b0390fd5b615b6990615ac4565b565b615b7361355c565b50615b865f615b80616f86565b0161090a565b90565b615bb191600b615ba6615bac93615b9e612403565b506006610882565b01612aec565b61092e565b90565b615bc590615bc0615c3a565b615bc7565b565b615bdb615bd2616f86565b5f839101612b73565b615be361578f565b90615c17615c117f38d16b8cac22d99fc7c124b9cd0de2d3fa1faef420bfe791d8c362d765e22700936121cc565b916121cc565b91615c20610322565b80615c2a8161037c565b0390a3565b615c3890615bb4565b565b615c4261578f565b615c5b615c55615c50616f55565b6104aa565b916104aa565b03615c6257565b615c84615c6d616f55565b5f91829163118cdaa760e01b835260048301610f45565b0390fd5b919091615c93612403565b50615cb5615cb0600a615ca860068590610882565b018590612aec565b61092e565b9283615cc9615cc35f6126e6565b916103b4565b14615e2b57615d9f615d9a5f615d94615da995615d55615da496615d2f615d11615d0a615d05600b615cfd60068990610882565b018590612aec565b61092e565b8d90612838565b615d2a600b615d2260068890610882565b018490612aec565b612804565b615d50615d3b866126e6565b91600a615d4a60068790610882565b01612aec565b612804565b615d8d615d79615d726007615d6c60068690610882565b0161092e565b8b90612838565b6007615d8760068590610882565b01612804565b6006610882565b016108e9565b612869565b612881565b61288d565b9063c58a6ce890839092803b15615e2657615dd75f8094615de2615dcb610322565b9788968795869461289d565b84526004840161244c565b03925af18015615e2157615df5575b5090565b615e14905f3d8111615e1a575b615e0c8183610a69565b8101906128a3565b5f615df1565b503d615e02565b6128b2565b612899565b50505050615e385f6126e6565b90565b615e56615e5c926004615e505f946006610882565b0161322e565b0161325e565b615e6e615e685f611245565b91611245565b14615e7557565b5f63528a7d7f60e11b815280615e8d6004820161037c565b0390fd5b90615ea9600d615ea360068590610882565b01610ace565b9182615ed4575b5050615eb857565b5f634da20c4960e11b815280615ed06004820161037c565b0390fd5b615ee9925090615ee391614418565b156104d9565b5f80615eb0565b615f175f615f11615f23946004615f0b615f1d966006610882565b0161322e565b016141f9565b92611279565b91611279565b03615f2a57565b5f631746482760e11b815280615f426004820161037c565b0390fd5b615f4e61438d565b50615f60615f5a61600c565b156104d9565b616007576020615fab91615f84615f7f615f7a600361090a565b61356c565b613597565b615fa0638a422539615f94610322565b9586948593849361289d565b835260048301611f09565b03915afa801561600257615fc7915f91615fd4575b50156104d9565b615fcf575f90565b600190565b615ff5915060203d8111615ffb575b615fed8183610a69565b8101906158f9565b5f615fc0565b503d615fe3565b6128b2565b505f90565b61601461438d565b5061601f600361090a565b61603961603361602e5f612b49565b6104aa565b916104aa565b141590565b6160486040610e74565b90565b90616055906104aa565b9052565b906160846020600161608a9461607c5f82016160765f880161544b565b90612b73565b01920161544b565b90612b73565b565b9061609691616059565b565b906160a1612403565b50816160bd6160b76160b25f612b49565b6104aa565b916104aa565b1480156161a5575b616189576160e56160de6160d9600161092e565b614e95565b6001612804565b6161248261610a836161016160f861603e565b935f850161604b565b6020830161604b565b61611f6004616119600161092e565b906116f1565b61608c565b61612e600161092e565b9190916161796161676161617fb166a7afad190ab7379ee7d8fde41c4308205b7e30a51105411af9e86ebc54ba93610866565b936121cc565b93616170610322565b91829182610f45565b0390a3616186600161092e565b90565b5f63e6c4247b60e01b8152806161a16004820161037c565b0390fd5b50806161c16161bb6161b65f612b49565b6104aa565b916104aa565b146160c5565b6161d190516112eb565b90565b6161de905161131f565b90565b6161eb9051611279565b90565b6161f890516103b4565b90565b616206610100610e74565b90565b6162139051611245565b90565b60081b90565b9061622961ff0091616216565b9181191691161790565b61623c90611279565b90565b90565b9061625761625261625e92616233565b61623f565b825461621c565b9055565b5190565b601f602091010490565b1b90565b9190600861628f9102916162895f1984616270565b92616270565b9181191691161790565b91906162af6162aa6162b793610866565b612801565b908354616274565b9055565b6162cd916162c7612403565b91616299565b565b5b8181106162db575050565b806162e85f6001936162bb565b016162d0565b9190601f81116162fe575b505050565b61630a61632f936109a9565b90602061631684616266565b83019310616337575b61632890616266565b01906162cf565b5f80806162f9565b91506163288192905061631f565b90616355905f1990600802611026565b191690565b8161636491616345565b906002021790565b9061637681610bd6565b9067ffffffffffffffff82116164365761639a826163948554610976565b856162ee565b602090601f83116001146163ce579180916163bd935f926163c2575b505061635a565b90555b565b90915001515f806163b6565b601f198316916163dd856109a9565b925f5b81811061641e57509160029391856001969410616404575b505050020190556163c0565b616414910151601f841690616345565b90555f80806163f8565b919360206001819287870151815501950192016163e0565b610a55565b906164459161636c565b565b616450906112eb565b90565b90565b9061646b61646661647292616447565b616453565b825461260b565b9055565b61647f9061131f565b90565b90565b9061649a6164956164a192616476565b616482565b825461621c565b9055565b9061656460e0600561656a946164c85f82016164c25f8801616209565b9061327a565b6164e05f82016164da602088016161e1565b90616242565b6164f9600182016164f360408801616262565b9061643b565b6165126002820161650c60608801616262565b9061643b565b61652b60038201616525608088016161ee565b90612804565b6165446004820161653e60a088016161ee565b90612804565b61655c82820161655660c088016161c7565b90616456565b0192016161d4565b90616485565b565b90616576916164a5565b565b9260c0949897956165cc6165c16165d6936165b36165e79b966165e0986165a660e08c01925f8d0190610bc9565b8a820360208c0152610bee565b9088820360408a0152610bee565b9a60608701906106b1565b60808501906106b1565b60a0830190610bc9565b0190610bc9565b565b906165f660a084016161c7565b6166086166025f6112eb565b916112eb565b1480156167fe575b80156167da575b6167be576001835f01616629906161e1565b8460200151856040015186606001616640906161ee565b8760800161664d906161ee565b918860a00161665b906161c7565b938960c001616669906161d4565b956166726161fb565b975f890190616680916141d1565b602088019061668e91614206565b604087019061669c91614214565b60608601906166aa91614214565b60808501906166b891614217565b60a08401906166c691614217565b60c08301906166d49161424c565b60e08201906166e291614281565b6006836166ee91610882565b600401826166fb9161322e565b906167059161656c565b825f01616711906161e1565b61671a90611285565b836020015184604001519185606001616732906161ee565b9580608001616740906161ee565b908060a00161674e906161c7565b616757906112f7565b9060c001616764906161d4565b61676d9061132b565b917f4e825c347ac8f4fb7e20f5ceb169bb090a037ee937a0b7ed72138166719059119661679990613212565b976167a390610866565b986167ac610322565b9687966167b99688616578565b0390a3565b5f63dbdddc1360e01b8152806167d66004820161037c565b0390fd5b506167e65f84016161e1565b6167f86167f25f611279565b91611279565b14616617565b5061680b60c084016161d4565b61681d6168175f61131f565b9161131f565b14616610565b61682c906121c0565b90565b61683830616823565b61686a6168647f00000000000000000000000000000000000000000000000000000000000000006104aa565b916104aa565b148015616894575b61687857565b5f63703e46dd60e11b8152806168906004820161037c565b0390fd5b5061689d616faa565b6168cf6168c97f00000000000000000000000000000000000000000000000000000000000000006104aa565b916104aa565b1415616872565b506168df615c3a565b565b6168ea906168d6565b565b6168f5906121a4565b90565b616901906168ec565b90565b61690d906121c0565b90565b9050519061691d82613693565b565b9060208282031261693857616935915f01616910565b90565b61032c565b919061696b6020616955616950866168f8565b616904565b6352d1902d90616963610322565b93849261289d565b8252818061697b6004820161037c565b03915afa80915f92616a0b575b50155f146169bc57505090600161699d57505b565b6169b8905f918291634c9c8ce360e01b835260048301610f45565b0390fd5b92836169d76169d16169cc614e21565b611697565b91611697565b036169ec576169e7929350616fd4565b61699b565b616a07845f918291632a87526960e21b8352600483016116a7565b0390fd5b616a2d91925060203d8111616a34575b616a258183610a69565b81019061691f565b905f616988565b503d616a1b565b616a4430616823565b616a76616a707f00000000000000000000000000000000000000000000000000000000000000006104aa565b916104aa565b03616a7d57565b5f63703e46dd60e11b815280616a956004820161037c565b0390fd5b90565b90616aaf610100600160a81b0391616216565b9181191691161790565b90616ace616ac9616ad5926121cc565b612b70565b8254616a9c565b9055565b616aed616ae8616af2926126e3565b610863565b6107bb565b90565b9695949193616b42616b7694616b39616b4b9497616b1c616b178d6006610882565b616a99565b985f14616ca957616b3160025b5f8b01612c8a565b5f8901616ab9565b60018701612b73565b60028501612804565b616b583360038501612b73565b616b6d616b645f616ad9565b60058501614046565b6006830161643b565b616b8b616b825f6126e6565b60078301612804565b616ba0616b975f6126e6565b60088301612804565b616bb5616bac5f6126e6565b60098301612804565b616bbe82614e71565b616bd0616bca5f6126e6565b916103b4565b03616c8b575b616bdf82614e71565b92616be8612403565b5b80616bfc616bf6876103b4565b916103b4565b1015616c8357616c7e90616c296001616c24600c8701616c1d898690614e75565b519061440c565b612630565b86616c35868390614e75565b5190616c76616c647f75ca7feb69615dcb453a6d1e3c842826e2dd2f0bc6503d89a10c295fd3e5d8c792610866565b92616c6d610322565b91829182611f09565b0390a2612407565b616be9565b509350505050565b616ca46001600d616c9e60068890610882565b01612630565b616bd6565b616b316001616b29565b5190565b616ccb616cc6616cd0926107bb565b610863565b6103b4565b90565b67ffffffffffffffff8111616ceb5760208091020190565b610a55565b90616d02616cfd83616cd3565b610e74565b918252565b369037565b90616d31616d1983616cf0565b92602080616d278693616cd3565b9201910390616d07565b565b90616d3d82616cb3565b811015616d4e576020809102010190565b612416565b90616d5d82611991565b811015616d6e576020809102010190565b612416565b90616d7d906107bb565b9052565b9190616d8b614e6c565b50616d9581616cb3565b616da8616da260ff616cb7565b916103b4565b11616e6f57616db7600161357b565b92616dc9616dc483616cb3565b616d0c565b91616dd381616cb3565b93616ddc612403565b955b86616df1616deb886103b4565b916103b4565b1015616e6557616e59616e5f91616e158682616e0e888d90616d33565b51916165e9565b616e3e6005616e2660068990610882565b01616e38616e3382610955565b614027565b90614046565b616e5481616e4f89918c9092616d53565b616d73565b614027565b96612407565b95616dde565b5094505050905090565b5f63a3328e6360e01b815280616e876004820161037c565b0390fd5b7ff0c57e16840df040f15088dc2f81fe391c3923bec73e23a9662efc9c229c6a0090565b616eb761705d565b565b616ec1616eaf565b565b616ecb61705d565b565b616ed5616ec3565b565b91906008616ef7910291616ef160018060a01b0384616270565b92616270565b9181191691161790565b9190616f17616f12616f1f936121cc565b612b70565b908354616ed7565b9055565b616f3591616f2f61355c565b91616f01565b565b616f5390616f4e5f80616f48616f86565b01616f23565b617090565b565b616f5d61355c565b503390565b7f9016d09d72d40fdae2fd8ceac6b6234c7706214fd39c1cd1e609a0528c19930090565b7f237e158222e3e6968b72b9db0d8043aacf074ad9f650f0d1606b4d82ee432c0090565b616fb261355c565b50616fcd5f616fc7616fc2614e21565b6170fc565b0161090a565b90565b5190565b90616fde826170ff565b816170097fbc7cd75a20ee27fd9adebab32041f755214dbc6bffa90cc0225b39da2e5c2d3b916121cc565b90617012610322565b8061701c8161037c565b0390a261702881616fd0565b61703a6170345f6126e6565b916103b4565b115f1461704e5761704a916171cf565b505b565b5050617058617154565b61704c565b61706e6170686171fe565b156104d9565b61707457565b5f631afcd79f60e31b81528061708c6004820161037c565b0390fd5b617098616f62565b6170b06170a65f830161090a565b915f849101612b73565b906170e46170de7f8be0079c531659141344cd1fd0a4f28419497f9722a3daafe3b4186f6b6457e0936121cc565b916121cc565b916170ed610322565b806170f78161037c565b0390a3565b90565b803b61711361710d5f6126e6565b916103b4565b1461713557617133905f61712d617128614e21565b6170fc565b01612b73565b565b617150905f918291634c9c8ce360e01b835260048301610f45565b0390fd5b346171676171615f6126e6565b916103b4565b1161716e57565b5f63b398979f60e01b8152806171866004820161037c565b0390fd5b606090565b906171a161719c836115ac565b610e74565b918252565b3d5f146171c1576171b63d61718f565b903d5f602084013e5b565b6171c961718a565b906171bf565b5f806171fb936171dd61718a565b508390602081019051915af4906171f26171a6565b9091909161721c565b90565b61720661438d565b506172195f617213616e8b565b01615178565b90565b906172309061722961718a565b50156104d9565b5f1461723c57506172a0565b61724582616fd0565b6172576172515f6126e6565b916103b4565b1480617285575b617266575090565b617281905f918291639996b31560e01b835260048301610f45565b0390fd5b50803b61729a6172945f6126e6565b916103b4565b1461725e565b6172a981616fd0565b6172bb6172b55f6126e6565b916103b4565b115f146172ca57805190602001fd5b5f63d6bda27560e01b8152806172e26004820161037c565b0390fdfe610100604052346100855761001b61001561018c565b916101af565b61002361008a565b610cad6101bf823960805181818160c501526105ec015260a051816101b1015260c051818181610263015281816104e601528181610531015281816106e7015281816107810152610875015260e05181818161020a01526107c80152610cad90f35b610090565b60405190565b5f80fd5b601f801991011690565b634e487b7160e01b5f52604160045260245ffd5b906100bc90610094565b810190811060018060401b038211176100d457604052565b61009e565b906100ec6100e561008a565b92836100b2565b565b5f80fd5b90565b6100fe816100f2565b0361010557565b5f80fd5b90505190610116826100f5565b565b60018060a01b031690565b61012c90610118565b90565b61013881610123565b0361013f57565b5f80fd5b905051906101508261012f565b565b90916060828403126101875761018461016d845f8501610109565b9361017b8160208601610143565b93604001610143565b90565b6100ee565b6101aa610e6c8038038061019f816100d9565b928339810190610152565b909192565b60a05260c0523360805260e05256fe60806040526004361015610028575b361561001e5761001c610b11565b005b610026610ad4565b005b6100325f356100a0565b8062821de31461009b57806312065fe0146100965780638ed5b0fc146100915780638fcfd6001461008c5780639d76ea5814610087578063c58a6ce8146100825763ef36442a0361000e57610393565b610332565b610285565b61022c565b6101d3565b61017a565b610120565b60e01c90565b60405190565b5f80fd5b5f80fd5b5f9103126100be57565b6100b0565b7f000000000000000000000000000000000000000000000000000000000000000090565b60018060a01b031690565b6100fb906100e7565b90565b610107906100f2565b9052565b919061011e905f602085019401906100fe565b565b34610150576101303660046100b4565b61014c61013b6100c3565b6101436100a6565b9182918261010b565b0390f35b6100ac565b90565b61016190610155565b9052565b9190610178905f60208501940190610158565b565b346101aa5761018a3660046100b4565b6101a66101956104db565b61019d6100a6565b91829182610165565b0390f35b6100ac565b7f000000000000000000000000000000000000000000000000000000000000000090565b34610203576101e33660046100b4565b6101ff6101ee6101af565b6101f66100a6565b91829182610165565b0390f35b6100ac565b7f000000000000000000000000000000000000000000000000000000000000000090565b3461025c5761023c3660046100b4565b610258610247610208565b61024f6100a6565b9182918261010b565b0390f35b6100ac565b7f000000000000000000000000000000000000000000000000000000000000000090565b346102b5576102953660046100b4565b6102b16102a0610261565b6102a86100a6565b9182918261010b565b0390f35b6100ac565b6102c381610155565b036102ca57565b5f80fd5b905035906102db826102ba565b565b6102e6816100f2565b036102ed57565b5f80fd5b905035906102fe826102dd565b565b9190604083820312610328578061031c610325925f86016102ce565b936020016102f1565b90565b6100b0565b5f0190565b346103615761034b610345366004610300565b906107b2565b6103536100a6565b8061035d8161032d565b0390f35b6100ac565b919060408382031261038e578061038261038b925f86016102f1565b936020016102f1565b90565b6100b0565b346103c2576103ac6103a6366004610366565b90610aa5565b6103b46100a6565b806103be8161032d565b0390f35b6100ac565b5f90565b90565b90565b6103e56103e06103ea926103cb565b6103ce565b6100e7565b90565b6103f6906103d1565b90565b61040d610408610412926100e7565b6103ce565b6100e7565b90565b61041e906103f9565b90565b61042a90610415565b90565b610436906103f9565b90565b6104429061042d565b90565b61044e90610415565b90565b601f801991011690565b634e487b7160e01b5f52604160045260245ffd5b9061047990610451565b810190811067ffffffffffffffff82111761049357604052565b61045b565b60e01b90565b905051906104ab826102ba565b565b906020828203126104c6576104c3915f0161049e565b90565b6100b0565b6104d36100a6565b3d5f823e3d90fd5b6104e36103c7565b507f000000000000000000000000000000000000000000000000000000000000000061051f6105196105145f6103ed565b6100f2565b916100f2565b146105d55761058c602061055a6105557f0000000000000000000000000000000000000000000000000000000000000000610439565b610445565b6370a082319061058161056c30610421565b926105756100a6565b95869485938493610498565b83526004830161010b565b03915afa9081156105d0575f916105a2575b5090565b6105c3915060203d81116105c9575b6105bb818361046f565b8101906104ad565b5f61059e565b503d6105b1565b6104cb565b6105de30610421565b3190565b90336106166106107f00000000000000000000000000000000000000000000000000000000000000006100f2565b916100f2565b0361062657610624916106e4565b565b5f636b6aa58960e11b81528061063e6004820161032d565b0390fd5b905090565b6106525f8092610642565b0190565b61065f90610647565b90565b9061067561066e6100a6565b928361046f565b565b67ffffffffffffffff811161069557610691602091610451565b0190565b61045b565b906106ac6106a783610677565b610662565b918252565b606090565b3d5f146106d1576106c63d61069a565b903d5f602084013e5b565b6106d96106b1565b906106cf565b151590565b907f000000000000000000000000000000000000000000000000000000000000000061072061071a6107155f6103ed565b6100f2565b916100f2565b145f14610778575f610755928192906107376100a6565b908161074281610656565b03925af161074e6106b6565b50156106df565b61075c575b565b5f6312171d8360e31b8152806107746004820161032d565b0390fd5b6107ad916107a57f0000000000000000000000000000000000000000000000000000000000000000610439565b919091610b7f565b61075a565b906107bc916105e2565b565b90336107f26107ec7f00000000000000000000000000000000000000000000000000000000000000006100f2565b916100f2565b03610802576108009161086c565b565b5f63284e9ce760e01b81528061081a6004820161032d565b0390fd5b61083261082d610837926103cb565b6103ce565b610155565b90565b60409061086361086a949695939661085960608401985f8501906100fe565b60208301906100fe565b0190610158565b565b8061089f6108997f00000000000000000000000000000000000000000000000000000000000000006100f2565b916100f2565b14610a8957806108bf6108b96108b45f6103ed565b6100f2565b916100f2565b145f14610981576108cf30610421565b3190816108e46108de5f61081e565b91610155565b036108f0575b5050505b565b61091d5f8085856108ff6100a6565b908161090a81610656565b03925af16109166106b6565b50156106df565b6109655791909161095a7feca1cfd23c6f080235ae1c1da0631d6ee86ebe28476dbe0837ef8d5d24d4a11e936109516100a6565b9384938461083a565b0390a15f80806108ea565b5f6312171d8360e31b81528061097d6004820161032d565b0390fd5b6109c9602061099761099284610439565b610445565b6370a08231906109be6109a930610421565b926109b26100a6565b95869485938493610498565b83526004830161010b565b03915afa908115610a84575f91610a56575b5090816109f06109ea5f61081e565b91610155565b036109fe575b5050506108ee565b610a12610a0a82610439565b848491610b7f565b919091610a4b7feca1cfd23c6f080235ae1c1da0631d6ee86ebe28476dbe0837ef8d5d24d4a11e93610a426100a6565b9384938461083a565b0390a15f80806109f6565b610a77915060203d8111610a7d575b610a6f818361046f565b8101906104ad565b5f6109db565b503d610a65565b6104cb565b5f6372c8333160e01b815280610aa16004820161032d565b0390fd5b90610aaf916107be565b565b916020610ad2929493610acb60408201965f8301906100fe565b0190610158565b565b33347fe41f1d3d870a239e6ea9389a547a1330e815f2d008cdca3f571a906ad72bfd8f91610b0c610b036100a6565b92839283610ab1565b0390a1565b33347fe41f1d3d870a239e6ea9389a547a1330e815f2d008cdca3f571a906ad72bfd8f91610b49610b406100a6565b92839283610ab1565b0390a1565b63ffffffff1690565b63ffffffff60e01b1690565b610b77610b72610b7c92610b4e565b610498565b610b57565b90565b90610bc6610bcb93610bb760049493610b9e63a9059cbb919391610b63565b92610ba76100a6565b9687946020860190815201610ab1565b6020820181038252038361046f565b610bec565b565b90565b610be4610bdf610be992610bcd565b6103ce565b610155565b90565b905f602091610bf96103c7565b50610c026103c7565b50828151910182855af115610c95573d5f5190610c27610c215f61081e565b91610155565b145f14610c7b5750610c3881610445565b3b610c4b610c455f61081e565b91610155565b145b610c545750565b610c60610c7791610445565b5f918291635274afe760e01b83526004830161010b565b0390fd5b610c8e610c886001610bd0565b91610155565b1415610c4d565b6040513d5f823e3d90fdfea164736f6c634300081d000aa164736f6c634300081d000a","linkReferences":{}},"methodIdentifiers":{"MAX_PROTOCOL_FEE()":"b8ca3b83","PROTOCOL_FEE_PRECISION()":"d5bf7f9a","UPGRADE_INTERFACE_VERSION()":"ad3cb1cc","acceptOwnership()":"79ba5097","addAllowedPublisherRefCode(uint256,string)":"c43682ab","addConversionConfig(uint256,(uint8,string,string,uint256,uint256,uint8,uint8))":"3c8edeb6","allowedTokenAddresses(address)":"ea7a2517","attributeOffchainEvents(uint256,(uint8,bytes16,address,uint256,uint8,string,string,uint32)[])":"4b79ed64","attributeOnchainEvents(uint256,(uint8,bytes16,address,uint256,uint8,string,string,address,uint32,bytes32,uint256,uint256)[])":"1d1be404","attributionProviders(uint256)":"562569dd","calculateProtocolFeeAmount(uint256)":"2872b4f1","campaigns(uint256)":"141961bc","claimProtocolFees(uint256[])":"0570490d","claimRewards(uint256[],address)":"0520537f","createCampaign(address,uint256,bool,string,(uint8,string,string,uint256,uint256,uint8,uint8)[],string[])":"5e6cdfab","deactivateConversionConfig(uint256,uint8)":"1268cf84","getAvailableProtocolFees(uint256)":"37067568","getCampaignTotalBalance(uint256)":"1f640291","getCampaignTotalFunded(uint256)":"2925edc0","getConversionConfig(uint256,uint8)":"3f9d90e1","getPublisherPayoutAddress(string)":"31f86f1b","getRecipientBalance(uint256,address)":"061b3354","getRecipientClaimed(uint256,address)":"f0bf26b6","incrementTotalCampaigns()":"8fcf78d9","initialize(address,address,address[],(address,address)[],address)":"631651c4","isPublisherRefCodeAllowed(uint256,string)":"455894da","nextAttributionProviderId()":"39fd02cb","nextCampaignId()":"7903a756","owner()":"8da5cb5b","pendingOwner()":"e30c3978","protocolFee()":"b0e21e8a","proxiableUUID()":"52d1902d","publisherRegistryAddress()":"7373c241","pushRewards(uint256,address[])":"02db9ca4","registerAttributionProvider(address)":"32e8faa1","renounceOwnership()":"715018a6","test()":"f8a8fd6d","totalCampaignsCreated()":"7b67faba","transferOwnership(address)":"f2fde38b","treasuryAddress()":"c5f956af","updateAllowedTokenAddress(address,bool)":"03f49f52","updateAttributionProviderSigner(uint256,address)":"08426083","updateCampaignStatus(uint256,uint8)":"10eb6d50","updateProtocolFee(uint16)":"020624d2","updatePublisherRegistryAddress(address)":"db73656c","updateTreasuryAddress(address)":"841e4561","upgradeToAndCall(address,bytes)":"4f1ef286","withdrawRemainingBalance(uint256,address)":"46730410"}}}}}