{"abi":[{"type":"constructor","inputs":[{"name":"_campaignId","type":"uint256","internalType":"uint256"},{"name":"_tokenAddress","type":"address","internalType":"address"},{"name":"_advertiserAddress","type":"address","internalType":"address"}],"stateMutability":"nonpayable"},{"type":"fallback","stateMutability":"payable"},{"type":"receive","stateMutability":"payable"},{"type":"function","name":"advertiserAddress","inputs":[],"outputs":[{"name":"","type":"address","internalType":"address"}],"stateMutability":"view"},{"type":"function","name":"campaignId","inputs":[],"outputs":[{"name":"","type":"uint256","internalType":"uint256"}],"stateMutability":"view"},{"type":"function","name":"getBalance","inputs":[],"outputs":[{"name":"","type":"uint256","internalType":"uint256"}],"stateMutability":"view"},{"type":"function","name":"parentAddress","inputs":[],"outputs":[{"name":"","type":"address","internalType":"address"}],"stateMutability":"view"},{"type":"function","name":"sendPayment","inputs":[{"name":"_amount","type":"uint256","internalType":"uint256"},{"name":"_to","type":"address","internalType":"address"}],"outputs":[],"stateMutability":"nonpayable"},{"type":"function","name":"tokenAddress","inputs":[],"outputs":[{"name":"","type":"address","internalType":"address"}],"stateMutability":"view"},{"type":"function","name":"withdrawAccidentalTokens","inputs":[{"name":"_token","type":"address","internalType":"address"},{"name":"_to","type":"address","internalType":"address"}],"outputs":[],"stateMutability":"nonpayable"},{"type":"event","name":"AccidentalTokenWithdrawn","inputs":[{"name":"token","type":"address","indexed":false,"internalType":"address"},{"name":"to","type":"address","indexed":false,"internalType":"address"},{"name":"amount","type":"uint256","indexed":false,"internalType":"uint256"}],"anonymous":false},{"type":"event","name":"NativePaymentReceived","inputs":[{"name":"from","type":"address","indexed":false,"internalType":"address"},{"name":"amount","type":"uint256","indexed":false,"internalType":"uint256"}],"anonymous":false},{"type":"error","name":"OnlyAccidentalToken","inputs":[]},{"type":"error","name":"OnlyAdvertiser","inputs":[]},{"type":"error","name":"OnlyParent","inputs":[]},{"type":"error","name":"SafeERC20FailedOperation","inputs":[{"name":"token","type":"address","internalType":"address"}]},{"type":"error","name":"TransferFailed","inputs":[]}],"bytecode":{"object":"0x610100604052346100855761001b61001561018c565b916101af565b61002361008a565b610cad6101bf823960805181818160c501526105ec015260a051816101b1015260c051818181610263015281816104e601528181610531015281816106e7015281816107810152610875015260e05181818161020a01526107c80152610cad90f35b610090565b60405190565b5f80fd5b601f801991011690565b634e487b7160e01b5f52604160045260245ffd5b906100bc90610094565b810190811060018060401b038211176100d457604052565b61009e565b906100ec6100e561008a565b92836100b2565b565b5f80fd5b90565b6100fe816100f2565b0361010557565b5f80fd5b90505190610116826100f5565b565b60018060a01b031690565b61012c90610118565b90565b61013881610123565b0361013f57565b5f80fd5b905051906101508261012f565b565b90916060828403126101875761018461016d845f8501610109565b9361017b8160208601610143565b93604001610143565b90565b6100ee565b6101aa610e6c8038038061019f816100d9565b928339810190610152565b909192565b60a05260c0523360805260e05256fe60806040526004361015610028575b361561001e5761001c610b11565b005b610026610ad4565b005b6100325f356100a0565b8062821de31461009b57806312065fe0146100965780638ed5b0fc146100915780638fcfd6001461008c5780639d76ea5814610087578063c58a6ce8146100825763ef36442a0361000e57610393565b610332565b610285565b61022c565b6101d3565b61017a565b610120565b60e01c90565b60405190565b5f80fd5b5f80fd5b5f9103126100be57565b6100b0565b7f000000000000000000000000000000000000000000000000000000000000000090565b60018060a01b031690565b6100fb906100e7565b90565b610107906100f2565b9052565b919061011e905f602085019401906100fe565b565b34610150576101303660046100b4565b61014c61013b6100c3565b6101436100a6565b9182918261010b565b0390f35b6100ac565b90565b61016190610155565b9052565b9190610178905f60208501940190610158565b565b346101aa5761018a3660046100b4565b6101a66101956104db565b61019d6100a6565b91829182610165565b0390f35b6100ac565b7f000000000000000000000000000000000000000000000000000000000000000090565b34610203576101e33660046100b4565b6101ff6101ee6101af565b6101f66100a6565b91829182610165565b0390f35b6100ac565b7f000000000000000000000000000000000000000000000000000000000000000090565b3461025c5761023c3660046100b4565b610258610247610208565b61024f6100a6565b9182918261010b565b0390f35b6100ac565b7f000000000000000000000000000000000000000000000000000000000000000090565b346102b5576102953660046100b4565b6102b16102a0610261565b6102a86100a6565b9182918261010b565b0390f35b6100ac565b6102c381610155565b036102ca57565b5f80fd5b905035906102db826102ba565b565b6102e6816100f2565b036102ed57565b5f80fd5b905035906102fe826102dd565b565b9190604083820312610328578061031c610325925f86016102ce565b936020016102f1565b90565b6100b0565b5f0190565b346103615761034b610345366004610300565b906107b2565b6103536100a6565b8061035d8161032d565b0390f35b6100ac565b919060408382031261038e578061038261038b925f86016102f1565b936020016102f1565b90565b6100b0565b346103c2576103ac6103a6366004610366565b90610aa5565b6103b46100a6565b806103be8161032d565b0390f35b6100ac565b5f90565b90565b90565b6103e56103e06103ea926103cb565b6103ce565b6100e7565b90565b6103f6906103d1565b90565b61040d610408610412926100e7565b6103ce565b6100e7565b90565b61041e906103f9565b90565b61042a90610415565b90565b610436906103f9565b90565b6104429061042d565b90565b61044e90610415565b90565b601f801991011690565b634e487b7160e01b5f52604160045260245ffd5b9061047990610451565b810190811067ffffffffffffffff82111761049357604052565b61045b565b60e01b90565b905051906104ab826102ba565b565b906020828203126104c6576104c3915f0161049e565b90565b6100b0565b6104d36100a6565b3d5f823e3d90fd5b6104e36103c7565b507f000000000000000000000000000000000000000000000000000000000000000061051f6105196105145f6103ed565b6100f2565b916100f2565b146105d55761058c602061055a6105557f0000000000000000000000000000000000000000000000000000000000000000610439565b610445565b6370a082319061058161056c30610421565b926105756100a6565b95869485938493610498565b83526004830161010b565b03915afa9081156105d0575f916105a2575b5090565b6105c3915060203d81116105c9575b6105bb818361046f565b8101906104ad565b5f61059e565b503d6105b1565b6104cb565b6105de30610421565b3190565b90336106166106107f00000000000000000000000000000000000000000000000000000000000000006100f2565b916100f2565b0361062657610624916106e4565b565b5f636b6aa58960e11b81528061063e6004820161032d565b0390fd5b905090565b6106525f8092610642565b0190565b61065f90610647565b90565b9061067561066e6100a6565b928361046f565b565b67ffffffffffffffff811161069557610691602091610451565b0190565b61045b565b906106ac6106a783610677565b610662565b918252565b606090565b3d5f146106d1576106c63d61069a565b903d5f602084013e5b565b6106d96106b1565b906106cf565b151590565b907f000000000000000000000000000000000000000000000000000000000000000061072061071a6107155f6103ed565b6100f2565b916100f2565b145f14610778575f610755928192906107376100a6565b908161074281610656565b03925af161074e6106b6565b50156106df565b61075c575b565b5f6312171d8360e31b8152806107746004820161032d565b0390fd5b6107ad916107a57f0000000000000000000000000000000000000000000000000000000000000000610439565b919091610b7f565b61075a565b906107bc916105e2565b565b90336107f26107ec7f00000000000000000000000000000000000000000000000000000000000000006100f2565b916100f2565b03610802576108009161086c565b565b5f63284e9ce760e01b81528061081a6004820161032d565b0390fd5b61083261082d610837926103cb565b6103ce565b610155565b90565b60409061086361086a949695939661085960608401985f8501906100fe565b60208301906100fe565b0190610158565b565b8061089f6108997f00000000000000000000000000000000000000000000000000000000000000006100f2565b916100f2565b14610a8957806108bf6108b96108b45f6103ed565b6100f2565b916100f2565b145f14610981576108cf30610421565b3190816108e46108de5f61081e565b91610155565b036108f0575b5050505b565b61091d5f8085856108ff6100a6565b908161090a81610656565b03925af16109166106b6565b50156106df565b6109655791909161095a7feca1cfd23c6f080235ae1c1da0631d6ee86ebe28476dbe0837ef8d5d24d4a11e936109516100a6565b9384938461083a565b0390a15f80806108ea565b5f6312171d8360e31b81528061097d6004820161032d565b0390fd5b6109c9602061099761099284610439565b610445565b6370a08231906109be6109a930610421565b926109b26100a6565b95869485938493610498565b83526004830161010b565b03915afa908115610a84575f91610a56575b5090816109f06109ea5f61081e565b91610155565b036109fe575b5050506108ee565b610a12610a0a82610439565b848491610b7f565b919091610a4b7feca1cfd23c6f080235ae1c1da0631d6ee86ebe28476dbe0837ef8d5d24d4a11e93610a426100a6565b9384938461083a565b0390a15f80806109f6565b610a77915060203d8111610a7d575b610a6f818361046f565b8101906104ad565b5f6109db565b503d610a65565b6104cb565b5f6372c8333160e01b815280610aa16004820161032d565b0390fd5b90610aaf916107be565b565b916020610ad2929493610acb60408201965f8301906100fe565b0190610158565b565b33347fe41f1d3d870a239e6ea9389a547a1330e815f2d008cdca3f571a906ad72bfd8f91610b0c610b036100a6565b92839283610ab1565b0390a1565b33347fe41f1d3d870a239e6ea9389a547a1330e815f2d008cdca3f571a906ad72bfd8f91610b49610b406100a6565b92839283610ab1565b0390a1565b63ffffffff1690565b63ffffffff60e01b1690565b610b77610b72610b7c92610b4e565b610498565b610b57565b90565b90610bc6610bcb93610bb760049493610b9e63a9059cbb919391610b63565b92610ba76100a6565b9687946020860190815201610ab1565b6020820181038252038361046f565b610bec565b565b90565b610be4610bdf610be992610bcd565b6103ce565b610155565b90565b905f602091610bf96103c7565b50610c026103c7565b50828151910182855af115610c95573d5f5190610c27610c215f61081e565b91610155565b145f14610c7b5750610c3881610445565b3b610c4b610c455f61081e565b91610155565b145b610c545750565b610c60610c7791610445565b5f918291635274afe760e01b83526004830161010b565b0390fd5b610c8e610c886001610bd0565b91610155565b1415610c4d565b6040513d5f823e3d90fdfea164736f6c634300081d000a","linkReferences":{}},"methodIdentifiers":{"advertiserAddress()":"8fcfd600","campaignId()":"8ed5b0fc","getBalance()":"12065fe0","parentAddress()":"00821de3","sendPayment(uint256,address)":"c58a6ce8","tokenAddress()":"9d76ea58","withdrawAccidentalTokens(address,address)":"ef36442a"},"id":22}